:1000000002000375812812012FE582600302006F50
:10001000780079007A007B007C007D00EC4D601C4C
:1000200088828983E493A3A882A9838A828B83F040
:10003000A3AA82AB831CBCFFE31D80E07582007520
:1000400083007C007D00EC4D600AE4F0A31CBCFF43
:10005000F51D80F27582007583007C007D00EC4DFB
:10006000600AE4F0A31CBCFFF51D80F212012E1201
:1000700001EF80FE1B5B324A0045464D3820467238
:10008000657175656E6379206D6561737572656DF7
:10009000656E74207573696E672054696D65722F83
:1000A000436F756E74657220302E0A46696C653A2E
:1000B0002025730A436F6D70696C65643A2025735F
:1000C0002C2025730A0A00433A5C55736572735CF1
:1000D00071697579755C4F6E6544726976655C44CB
:1000E0006F63756D656E74735C4769744875625CA7
:1000F0004C4142355C4672657145464D382E630071
:100100004D617220203420323032340031363A349E
:10011000303A3539000D663D256C75487A001B5B19
:10012000304B003C4E4F20464C4F41543E00227510
:10013000A7007597DE7597AD43FF8075EF0275A731
:100140001075C12075A70075A90075A900E5A93033
:10015000E7FB75A90375A903E5A930E7FB43A410E4
:1001600075E10175E21075E340759810858E8E7506
:100170008DE6858D8B53890F438920D28ED2997558
:10018000820022AA82438E407592B87593FF8592B1
:10019000948593957591047B00C3EB9A5012E59179
:1001A00030E7FB53917F108D02800205090B80E937
:1001B00075910022AA82AB83BA0004BB00012275AC
:1001C00082F9C002C0031201837582F9120183759E
:1001D00082F91201837582FA120183D003D0021AC8
:1001E000BAFF011B80D25389F0438905C28C2212C9
:1001F00001E69001F41201B47474C0E07400C0E030
:100200007480C0E01202E0158115811581740CC064
:10021000E07401C0E07480C0E07400C0E07401C00C
:10022000E07480C0E074C7C0E07400C0E07480C0B7
:10023000E07479C0E07400C0E07480C0E01202E0B5
:10024000E58124F4F581758A00758C00750900C27A
:100250008DD28C9003E81201B4C28CAA097B008B6A
:10026000058A047B007A00AE8C7F00780088018FBD
:10027000008E077E00EE2AFAEF3BFBE83CFCE93DEE
:10028000FDAE8AE4FF3395E0F8F9EE2AFAEF3BFB86
:10029000E83CFCE93DFDC002C003C004C005741584
:1002A000C0E07401C0E07480C0E01202E0E5812487
:1002B000F9F581741EC0E07401C0E07480C0E012E2
:1002C00002E015811581158102024602092185820D
:1002D0001985831A85F01B850A1C9002CB02038ABC
:1002E000C008858108E50824FBF51CE50824FBF817
:1002F000861908861A08861B9002CB12038AD0083A
:1003000022AA827412C0E07403C0E0C00BC00C8A41
:1003100082220512E4B51202051322AA8274302A41
:10032000FA24C6500A74072AFA3000034302208ACE
:1003300082020301E582FAC4540FF582C00212035F
:100340001BD002740F5AF58202031BAA0DAB0EAC30
:100350000FAD10AE11751820EE2EFEED235401FFE7
:100360004206EA2AFAEB33FBEC33FCED33FDC3EE35
:1003700095144008EEC39514FE430201D518D98A9E
:100380000D8B0E8C0F8D108E112285820B85830CA8
:10039000E4F512F513AA19AB1AAC1B8A828B838C75
:1003A000F0120936FD74012AF519E43BF51A8C1B8D
:1003B000EDFA700302091ABA25028003020912C27B
:1003C00004C205C206C207C208C209C20AC20BC2E1
:1003D00001C202C2037514007515007516FFAB1932
:1003E000AC1AAD1B8B828C838DF0120936FAA3AB4D
:1003F00082AC838B198C1A8D1BBA25078A82120353
:100400000180928A06BE3000402E8A06EE24C64045
:100410002774FFB51613E51575F00AA4FEEA24D07B
:100420002EF51570BFD20580BBE51675F00AA4FE47
:10043000EA24D02EF51680ACBA2E0A74FFB516A4A5
:10044000751600809F8A06BE6100400E8A06EE2463
:100450008540075302DFD2008002C200BA2002802A
:1004600075BA23030204E5BA2A030204EABA2B028E
:10047000805FBA2D028055BA4202805FBA43030200
:10048000052FBA440302066ABA4503020684BA4637
:1004900003020680BA4703020688BA490302066AC5
:1004A000BA4C02803BBA4E0302068CBA4F030206D6
:1004B00071BA5003020603BA5303020553BA550337
:1004C000020676BA580302067B0206B6D20402037D
:1004D000E4D2060203E4D2070203E4D2090203E4F1
:1004E000D20A0203E4D20B0203E474FFB5162030F3
:1004F000090BE51C14F8881C86150203E4E51C248E
:10050000FEF8881C8606088607188E150203E4305C
:10051000090BE51C14F8881C86160203E4E51C246C
:10052000FEF8881C8606088607188E160203E4303B
:10053000090AE51C14F8881C8602800FE51C24FEBD
:10054000F8881C8603088604188B028A821203012D
:100550000206BBE51C24FDF8881C860308860408F7
:10056000860518188B0D8C0E8D0F8B828C838DF069
:1005700012096BAB82AC838B1774FFB5160385171A
:100580001620041DC3E51795155016E515C39517DC
:10059000F515AB151515EB60087582201203018067
:1005A000F1850D82850E83850FF0120936FBFA6006
:1005B00029AB161516C3E464808BF063F08095F0C8
:1005C00050188A82120301AB0DAC0EAD0F0BBB00AD
:1005D000010C8B0D8C0E8D0F80C72004030206BB0F
:1005E000C3E517951540030206BBE515C39517F53E
:1005F00015AB151515EB70030206BB7582201203AF
:100600000180EEE51C24FDF8881C8603088604089A
:10061000860518188B0D8C0E8D0FE50FFB30E70447
:100620007A438013EB546060047A50800AEB30E622
:10063000047A4980027A588A82C0021203017582C4
:100640003A12030175823012030175827812030198
:10065000D002BA4902800BBA50028006850E82127F
:100660000334850D821203348051D20875140A8038
:100670004A751408804575140A8040751410803B33
:10068000D2018037D2028033D203802FE51C24FDB3
:10069000F8881C860308860408860518188B0D8CBC
:1006A0000E8D0F8B828C838DF0E512120952A3E51B
:1006B0001312095280058A821203012001062002CA
:1006C0000330035AE51C24FCF8881C8603088604C2
:1006D0000886050886061818188B0D8C0E8D0F8E4F
:1006E00010750D23750E01750F80850D1D850E1E6D
:1006F000850F1F7401251DFEE4351EFFAB1F8E0DF7
:100700008F0E8B0F851D82851E83851FF012093683
:10071000FBFA70030203958A8212030180CCE51470
:1007200070030203957B2830092BE51C14F8881C04
:10073000E6FC3395E0FDFEFF8C0D8D0E8E0F8F10C5
:1007400020085EAC0D7D007E007F008C0D8D0E8E2E
:100750000F8F10804C300A1FE51C24FCF8881C8683
:10076000040886050886060886071818188C0D8D5B
:100770000E8E0F8F10802AE51C24FEF8881C86043C
:1007800008860518ED3395E0FEFF8C0D8D0E8E0F5B
:100790008F1020080CAC0DAD0E7E007F008E0F8FE9
:1007A00010300B43E50D450E450F451060397408B8
:1007B000B5140C758230C003120301D00380287475
:1007C00010B51423758230C003120301D00330002A
:1007D0000C758278C003120301D003800A75825819
:1007E000C003120301D003300825AC0DAD0EAE0FCF
:1007F000E510FF30E717C3E49CFCE49DFDE49EFE9A
:10080000E49FFF8C0D8D0E8E0F8F108002C2087535
:100810001700D20C8B00751100C00012034BD000E2
:10082000200C0DE511C4FCE6FD4CF618880380028F
:10083000A6110517B20CE50D450E450F451070D6F3
:100840008803E515700375150120051A200417E5C6
:100850001704FCC39515500E758220C003120301C6
:10086000D003151580E930080E75822DC0031203E0
:1008700001D00315158024E517602030060E75821F
:100880002BC003120301D0031515800F30070C7520
:100890008220C003120301D003151520041EAC15DD
:1008A0001515C3E5179C50273005047C3080027C69
:1008B000208C82C003120301D00380E2C3E51795A8
:1008C000155009E515C39517F51580037515008BAF
:1008D00000AB171517EB6022B20C200C0A08E6C417
:1008E000540FFB8B1180078603740F5BF511851184
:1008F00082C00012031BD00080D72004030203959E
:10090000AB151515EB7003020395758220120301D8
:1009100080EE8A8212030102039585128285138379
:1009200022AA82BA0A0810990280FB75990D1099C3
:100930000280FB8A992220F71430F6148883A8825B
:1009400020F507E6A88375830022E280F7E493226E
:10095000E02220F71030F6118883A88220F507F6F0
:10096000A88375830022F280F7F022AA82AB83ACC1
:10097000F07D007E008A828B838CF0120936FFA303
:10098000AA82AB83EF60070DBD00EA0E80E78D827F
:100990008E83220000000000000000000000000024
:00000001FF
