:100000000200037581361200F1E582600302006F81
:10001000780079007A007B007C007D00EC4D601C4C
:1000200088828983E493A3A882A9838A828B83F040
:10003000A3AA82AB831CBCFFE31D80E07582007520
:1000400083007C007D00EC4D600AE4F0A31CBCFF43
:10005000F51D80F27582007583007C007D00EC4DFB
:10006000600AE4F0A31CBCFFF51D80F21200F01240
:10007000028180FE1B5B324A004144432074657359
:10008000742070726F6772616D0A46696C653A2000
:1000900025730A436F6D70696C65643A2025732C73
:1000A0002025730A0A00443A5C636C6F6E655C4CF1
:1000B0004142355C6C6162355F76322E63004D6182
:1000C0007220203720323032340031343A33383A1B
:1000D0003532000A2564000A0D543D2564206D73F5
:1000E00020202020003C4E4F20464C4F41543E00E3
:1000F0002275A7007597DE7597AD75FF8075EF06C1
:1001000075A71075C12075A70075A90075A900E530
:10011000A930E7FB75A90375A903E5A930E7FB43FF
:10012000A41075E10175E20075E340759810858EA5
:100130008E758DE6858D8B53890F438920D28ED2A3
:10014000997582002275A700C2EF75B28075BC2038
:1001500075B91E75E80075DF3F75B300D2EF22AAAE
:1001600082438E407592B87593FF859294859395DE
:100170007591047B00C3EB9A500BE59130E7FB537C
:10018000917F0B80F075910022AA82AB837C007D69
:1001900000C3EC9AED9B502B7E00BE0400501D75F1
:1001A00082FAC002C003C004C005C00612015FD0BD
:1001B00006D005D004D003D0020E80DE0CBC00D1E6
:1001C0000D80CE22AA828513F005F07401800225ED
:1001D000E0D5F0FBFB75A720BA0002800ABA010245
:1001E000800FBA021E8014EBF4FA52F1EB42D48075
:1001F00012EBF4FA52F2EB42D58008EBF4FA52F328
:10020000EB42CC75A700228582BBC2EDD2EC30ED6B
:10021000FD85BD8285BE832212020712035FAA827A
:10022000AB83ACF0FDC002C003C004C00590333303
:1002300075F053744012036BAA82AB83ACF0FDE5FA
:100240008124FCF581E4C0E074FCC0E0747FC0E070
:100250007446C0E08A828B838CF0ED120444AA823B
:10026000AB83ACF0FDE58124FCF5818A828B838C25
:10027000F0ED22C2EDD2EC30EDFD85BD8285BE836E
:10028000229001F41201897474C0E07400C0E0741B
:1002900080C0E012042315811581158174CAC0E065
:1002A0007400C0E07480C0E074BEC0E07400C0E0C0
:1002B0007480C0E074A6C0E07400C0E07480C0E048
:1002C0007479C0E07400C0E07480C0E0120423E5DB
:1002D0008124F4F5815389F0438901C28C758C0027
:1002E000758A002081FD3081FDD28C2081FDC28C79
:1002F000AA8C7B00C002C00374D3C0E07400C0E0CD
:100300007480C0E0120423E58124FBF581AA8A7B76
:1003100000C002C00374D3C0E07400C0E07480C0A9
:10032000E0120423E58124FBF581AB8C7A00AC8AD2
:100330007D00EC2AFAED3BCA25E0CA33FBC002C0BF
:100340000374D7C0E07400C0E07480C0E0120423DE
:10035000E58124FBF5819000641201890202DBE44F
:10036000AC83AB82FAF9748E02056C1205F8BC00FE
:1003700003020597EF60FA30D502B2D1E583B4FFEE
:10038000030205ADE582B4FF030205AD25834007F6
:100390002482400B02059724831450030205ADF517
:1003A00082EA8DF0A4A8F0EA8EF0A428F8E435F0F3
:1003B000F9EB8DF0A428E935F0F9E433CA8FF0A405
:1003C00029F9EA35F0FAEBF88EF0A429F9EA35F0CC
:1003D000FAE433FBEC8DF0A429F9EA35F0FAE43BBA
:1003E000FBE88FF0A42AFAEB35F0FBE433CCFD8E6A
:1003F000F0A42AFAEB35F0FBE43CFCED8FF0A42BE3
:10040000FBEC35F0FC20E7031205C5020576020C73
:100410004685823085833185F03285123390040E13
:100420000206AFC008858108E50824FBF533E5081E
:1004300024FBF8863008863108863290040E1206B6
:10044000AFD008221205F830D502B2D1BF0009BCE6
:1004500000030205BA0205ADBC0003020597E5835F
:10046000B4FF0BE582B4FF030205BA020597E582EB
:10047000B4FF030205ADC395835007247F400B02F0
:10048000059724801450030205ADC0E0E4CCCBCA2C
:10049000F98D138E148F15EF54F0C4F5167583067D
:1004A0008516F0EB84F582E9C4F9EAC4FAEBC4FBE3
:1004B000EC540FC47803D6FC18EBD6FB18EAD6FA36
:1004C0008582F0EDA4A8F0FD8582F0EEA428FEE47C
:1004D00035F0F88582F0EFA428FFE435F0F8E99DC7
:1004E000F9EA9EFAEB9FFBEC98FCAD13AE14AF1546
:1004F00030E7101582E92DF9EA3EFAEB3FFBE43CC8
:10050000FC80EDC082D58398C3E933F9EA33FAEB76
:1005100033FBEC33FCC3E99DEA9EEB9FEC9400B304
:10052000E413F9D002D0E0C44AFAD003D0E0C44BBF
:10053000FBD004D0E0F5F0540FC44CFCD0821582FF
:1005400030F40FD3EC13FCEB13FBEA13FAE913F9C5
:100550000582E930E70A74012AFAE43BFBE43CFC3B
:1005600002058EFCABF0AA83A982749EC2D1F582EB
:100570001205C5020576B98003EA13B34010EA24D8
:1005800001FAE43BFBE43CFC50047C800582BC00A7
:100590000EBB000BBA0008E4F5F0F583F58222A249
:1005A000D1E582138CF092F78B838A8222E4F58363
:1005B000F58275F080F4A2D11322E4F583F58275FB
:1005C000F0C0747F227804EC7011E58224F8500AA0
:1005D000F582E4C9CACBFCD8EF22EC782005822052
:1005E000E713D5820122C3E933F9EA33FAEB33FB8F
:1005F000EC33FCD8EA158222AA82AB83A2F73392AD
:10060000D16002D2F7F582ACF0E58124F9F8E6FD7D
:1006100008E6FE0886F008E6A2F73392D56002D21B
:10062000F7F583AFF022AA827437C0E07406C0E009
:10063000C022C0238A82220529E4B52902052A2284
:10064000AA8274302AFA24C6500A74072AFA3000A3
:10065000034302208A82020626E582FAC4540FF57B
:1006600082C002120640D002740F5AF58202064080
:10067000AA24AB25AC26AD27AE28752F20EE2EFE82
:10068000ED235401FF4206EA2AFAEB33FBEC33FC7C
:10069000ED33FDC3EE952B4008EEC3952BFE4302D0
:1006A00001D52FD98A248B258C268D278E2822854B
:1006B0008222858323E4F529F52AAA30AB31AC32B6
:1006C0008A828B838CF0120C5BFD74012AF530E476
:1006D0003BF5318C32EDFA7003020C3FBA250280F3
:1006E00003020C37C204C205C206C207C208C2090F
:1006F000C20AC20BC201C202C203752B00752C00D4
:10070000752DFFAB30AC31AD328B828C838DF01206
:100710000C5BFAA3AB82AC838B308C318D32BA2563
:10072000078A8212062680928A06BE3000402E8AF0
:1007300006EE24C6402774FFB52D13E52C75F00A8C
:10074000A4FEEA24D02EF52C70BFD20580BBE52D87
:1007500075F00AA4FEEA24D02EF52D80ACBA2E0A3C
:1007600074FFB52DA4752D00809F8A06BE610040E0
:100770000E8A06EE248540075302DFD2008002C2B3
:1007800000BA20028075BA230302080ABA2A0302BB
:10079000080FBA2B02805FBA2D028055BA42028040
:1007A0005FBA4303020854BA440302098FBA4503EF
:1007B0000209A9BA46030209A5BA47030209ADBA5C
:1007C000490302098FBA4C02803BBA4E030209B1B9
:1007D000BA4F03020996BA5003020928BA5303021A
:1007E0000878BA550302099BBA58030209A0020906
:1007F000DBD204020709D206020709D20702070961
:10080000D209020709D20A020709D20B02070974AA
:10081000FFB52D2030090BE53314F88833862C0200
:100820000709E53324FEF888338606088607188E04
:100830002C02070930090BE53314F88833862D02A2
:100840000709E53324FEF888338606088607188EE4
:100850002D02070930090AE53314F888338602802F
:100860000FE53324FEF888338603088604188B02CC
:100870008A821206260209E0E53324FDF8883386D1
:100880000308860408860518188B248C258D268B72
:10089000828C838DF0120C90AB82AC838B2E74FF14
:1008A000B52D03852E2D20041DC3E52E952C501645
:1008B000E52CC3952EF52CAB2C152CEB600875821E
:1008C0002012062680F18524828525838526F01254
:1008D0000C5BFBFA6029AB2D152DC3E464808BF013
:1008E00063F08095F050188A82120626AB24AC255E
:1008F000AD260BBB00010C8B248C258D2680C720D8
:1009000004030209E0C3E52E952C40030209E0E54B
:100910002CC3952EF52CAB2C152CEB70030209E0A3
:1009200075822012062680EEE53324FDF888338692
:100930000308860408860518188B248C258D26E567
:1009400026FB30E7047A438013EB546060047A504E
:10095000800AEB30E6047A4980027A588A82C00223
:1009600012062675823A1206267582301206267500
:100970008278120626D002BA4902800BBA50028051
:10098000068525821206598524821206598051D285
:1009900008752B0A804A752B088045752B0A804004
:1009A000752B10803BD2018037D2028033D2038076
:1009B0002FE53324FDF8883386030886040886056E
:1009C00018188B248C258D268B828C838DF0E5293D
:1009D000120C77A3E52A120C7780058A821206266C
:1009E00020010620020330035AE53324FCF8883343
:1009F00086030886040886050886061818188B24BE
:100A00008C258D268E277524E57525007526808515
:100A1000243485253585263674012534FEE43535A4
:100A2000FFAB368E248F258B2685348285358385D2
:100A300036F0120C5BFBFA70030206BA8A821206C9
:100A40002680CCE52B70030206BA7B1C30092BE50F
:100A50003314F88833E6FC3395E0FDFEFF8C248DDB
:100A6000258E268F2720085EAC247D007E007F0027
:100A70008C248D258E268F27804C300A1FE5332449
:100A8000FCF8883386040886050886060886071859
:100A900018188C248D258E268F27802AE53324FE76
:100AA000F88833860408860518ED3395E0FEFF8C40
:100AB000248D258E268F2720080CAC24AD257E00A2
:100AC0007F008E268F27300B43E52445254526459C
:100AD0002760397408B52B0C758230C003120626C6
:100AE000D00380287410B52B23758230C003120602
:100AF00026D00330000C758278C003120626D0037E
:100B0000800A758258C003120626D003300825AC2F
:100B100024AD25AE26E527FF30E717C3E49CFCE4AF
:100B20009DFDE49EFEE49FFF8C248D258E268F275D
:100B30008002C208752E00D20C8B00752800C00000
:100B4000120670D000200C0DE528C4FCE6FD4CF622
:100B50001888038002A628052EB20CE524452545F9
:100B600026452770D68803E52C7003752C012005D7
:100B70001A200417E52E04FCC3952C500E75822014
:100B8000C003120626D003152C80E930080E7582AA
:100B90002DC003120626D003152C8024E52E6020DC
:100BA00030060E75822BC003120626D003152C804A
:100BB0000F30070C758220C003120626D003152CB7
:100BC00020041EAC2C152CC3E52E9C5027300504A8
:100BD0007C3080027C208C82C003120626D00380E9
:100BE000E2C3E52E952C5009E52CC3952EF52C80FB
:100BF00003752C008B00AB2E152EEB6022B20C205F
:100C00000C0A08E6C4540FFB8B2880078603740F78
:100C10005BF528852882C000120640D00080D720CE
:100C200004030206BAAB2C152CEB70030206BA754E
:100C3000822012062680EE8A821206260206BA85D5
:100C40002982852A8322AA82BA0A0810990280FB87
:100C500075990D10990280FB8A992220F71430F6BD
:100C6000148883A88220F507E6A88375830022E212
:100C700080F7E49322E02220F71030F6118883A851
:100C80008220F507F6A88375830022F280F7F02210
:100C9000AA82AB83ACF07D007E008A828B838CF0CD
:100CA000120C5BFFA3AA82AB83EF60070DBD00EAC5
:100CB0000E80E78D828E832200000000000000007D
:00000001FF
