:1000000002000375814F120131E582600302006F27
:10001000780079007A007B007C007D00EC4D601C4C
:1000200088828983E493A3A882A9838A828B83F040
:10003000A3AA82AB831CBCFFE31D80E07582007520
:1000400083007C007D00EC4D600AE4F0A31CBCFF43
:10005000F51D80F27582007583007C007D00EC4DFB
:10006000600AE4F0A31CBCFFF51D80F212013012FF
:1000700003E380FE1B5B324A0041444320746573F6
:10008000742070726F6772616D0A46696C653A2000
:1000900025730A436F6D70696C65643A2025732C73
:1000A0002025730A0A00443A5C636C6F6E655C4CF1
:1000B0004142355C6C61623576312E63004D617270
:1000C00020203620323032340031313A35353A3161
:1000D000330076723A2020202020663A202020200B
:1000E000487A0076743A20202020207068613A20F7
:1000F000202020000A706572696F643D25332E321E
:10010000660D000A564050315F343D25372E356666
:10011000562C20564050315F353D25372E356656DA
:100120000D000D0A646567726565733A20256600E7
:100130002275A7007597DE7597AD75FF8075EF0680
:1001400075A71075C12075A70075A90075A900E5F0
:10015000A930E7FB75A90375A903E5A930E7FB43BF
:10016000A41075E10175E20075E340759810858E65
:100170008E758DE6858D8B53890F438920D28ED263
:10018000997582002275A700C2EF75B28075BC20F8
:1001900075B91E75E80075DF3F75B300D2EF22AA6E
:1001A00082438E407592B87593FF8592948593959E
:1001B0007591047B00C3EB9A500BE59130E7FB533C
:1001C000917F0B80F075910022AA82AB837C007D29
:1001D00000C3EC9AED9B502B7E00BE0400501D75B1
:1001E00082FAC002C003C004C005C00612019FD03D
:1001F00006D005D004D003D0020E80DE0CBC00D1A6
:100200000D80CE22D2A075822812019FC2A022AA00
:10021000828AE0A2E79290A2E69291A2E59292A24F
:10022000E49293C00212020475822812019FD00248
:100230008AE0A2E39290A2E29291A2E19292A2E0DD
:100240009293020204AA82D2978A8212020F90002D
:10025000020201C9AA82C2978A8212020F90000587
:100260000201C9C2A09000141201C97582331202A2
:1002700054758233120254758232120254758228E8
:1002800012025475820C12025475820112025490AB
:1002900000140201C9AA82AB83ACF07402B50A044F
:1002A0007DC080027D808D82C002C003C004120226
:1002B000549000051201C9D004D003D0027D007E05
:1002C00000ED2AFFEE3BF88C018F82888389F012C3
:1002D00008A0FF60208F82C002C003C004C005C018
:1002E00006120245D006D005D004D003D0020DBDC1
:1002F00000CF0E80CC3000248D028E03C3EA941010
:10030000EB648094805015758220C002C0031202F5
:1003100045D003D0020ABA00E30B80E0225389F0F3
:10032000438901C28C22AA828534F005F0740180D1
:100330000225E0D5F0FBFB75A720BA0002800ABABF
:100340000102800FBA021E8014EBF4FA52F1EB4264
:10035000D48012EBF4FA52F2EB42D58008EBF4FAB7
:1003600052F3EB42CC75A700228582BBC2EDD2ECE2
:1003700030EDFD85BD8285BE83221203691208BC63
:10038000AA82AB83ACF0FDC002C003C004C00590DC
:10039000923A75F0537440120928AA82AB83ACF0EC
:1003A000FDE58124FCF581E4C0E074FCC0E0747FCD
:1003B000C0E07446C0E08A828B838CF0ED120A7232
:1003C000AA82AB83ACF0FDE58124FCF5818A828BA7
:1003D000838CF0ED22C2EDD2EC30EDFD85BD82853F
:1003E000BE8322750B00750C00750D00750E00752F
:1003F000110075120075130075140075150075163F
:100400000075170075180012031D1202639001F4A5
:100410001201C97474C0E07400C0E07480C0E012BE
:100420000A4415811581158174C9C0E07400C0E0CB
:100430007480C0E074BDC0E07400C0E07480C0E0AF
:1004400074A6C0E07400C0E07480C0E07479C0E0BD
:100450007400C0E07480C0E0120A44E58124F4F521
:100460008175340475820112032675340575820185
:10047000120326120185750A01D2009000D275F090
:1004800080120295750A02D2009000E375F0801286
:100490000295E4F50FF510C3E50F940AE5106480AA
:1004A000948040030205F4758A00758C00C28D7536
:1004B00009002081FD3081FDD28C308109108D0230
:1004C00080F8050980F4208109108D0280F8050963
:1004D00080F4C28C8509821209CBAE82AF83AAF068
:1004E000FBC006C007C002C00390000075F0807416
:1004F0004712092885821985831A85F01BF51CE5AA
:100500008124FCF581858C821209CBAE82AF83AA4F
:10051000F0FBC006C007C002C00390000075F08069
:100520007443120928AA82AB83ACF0FDE58124FC58
:10053000F581C002C003C004C005851982851A83F5
:10054000851BF0E51C1209D685821985831A85F072
:100550001BF51CE58124FCF581AE8A7F008E828F1D
:1005600083120A65AE82AF83AAF0FBC006C007C043
:1005700002C003851982851A83851BF0E51C1209C8
:10058000D6AA82AB83ACF0FDE58124FCF581C002E4
:10059000C003C004C00590F4FC75F0327434120935
:1005A00028AA82AB83ACF0FDE58124FCF581C00272
:1005B000C003C004C005C00BC00CC00DC00E8A82B1
:1005C0008B838CF0ED1208C8AE82E58124FCF581A6
:1005D000D005D004D003D002EE60088A0B8B0C8CBF
:1005E0000D8D0E9000011201C9050FE4B50F020533
:1005F000100204977A007B00C3EA9414EB648094A1
:100600008040030206D675820AC002C00312037A34
:10061000AC82AD83AEF0FF7838A60408A60508A624
:100620000608A60775820B12037AAC82AD83AEF082
:10063000FF783CA60408A60508A60608A607783891
:100640008604088605088606088607C004C005C01B
:1006500006C0078511828512838513F0E514120800
:10066000F8AC82E58124FCF581D003D002EC600D6A
:1006700078388611088612088613088614783C8616
:1006800004088605088606088607C002C003C00461
:10069000C005C006C0078515828516838517F0E55D
:1006A000181208F8AC82E58124FCF581D003D00251
:1006B000EC600D783C8615088616088617088618A3
:1006C000900001C002C0031201C9D003D0020ABACF
:1006D00000010B0205F8C00BC00CC00DC00E90004D
:1006E0000075F07A7444120928AA82AB83ACF0FD3D
:1006F000E58124FCF581C002C003C004C00574F488
:10070000C0E07400C0E07480C0E0120A44E58124B7
:10071000F9F581C015C016C017C018C011C012C0AD
:1007200013C0147403C0E07401C0E07480C0E01210
:100730000A44E58124F5F581758A00758C00C28D27
:100740007509002081FD3081FD30811520820E3039
:10075000810BD28C108D0280F3050980EFC28C8052
:10076000E88509821209CBAA82AB83ACF0FDC002F6
:10077000C003C004C00590000075F08074471209E2
:100780002885821985831A85F01BF51CE58124FCD8
:10079000F581858C821209CBAE82AF83AAF0FBC0B3
:1007A00006C007C002C00390000075F080744312B9
:1007B0000928AA82AB83ACF0FDE58124FCF581C059
:1007C00002C003C004C005851982851A83851BF009
:1007D000E51C1209D685821985831A85F01BF51C44
:1007E000E58124FCF581AE8A7F008E828F83120A18
:1007F00065AE82AF83AAF0FBC006C007C002C0038B
:10080000851982851A83851BF0E51C1209D6AA82F8
:10081000AB83ACF0FDE58124FCF581C002C003C0D0
:1008200004C00590F4FC75F0327434120928AA82D1
:10083000AB83ACF0FDE58124FCF581C002C003C0B0
:1008400004C00590000075F0B47443120928AA8210
:10085000AB83ACF0FDE58124FCF581C00BC00CC07E
:100860000DC00E8A828B838CF0ED120A72AA82ABC5
:1008700083ACF0FDE58124FCF581C002C003C00417
:10088000C0057422C0E07401C0E07480C0E0120AA8
:1008900044E58124F9F5819001F41201C902049222
:1008A00020F71430F6148883A88220F507E6A88381
:1008B00075830022E280F7E49322E022E4AC83AB6C
:1008C00082FAF9748E020B9AFFA8811818120BC2D3
:1008D000D2D133E6400730E70B7582012220E706CC
:1008E00075820022C2D1120BA4E97003F582223076
:1008F000D101B3E433F58222FFA8811818120BC28C
:10090000D2D133E6400730E70B7582002220E7069C
:1009100075820122C2D1120BA4E97003F582222054
:10092000D101B3E433F58222120C6FBC0003020C38
:100930000EEF60FA30D502B2D1E583B4FF03020CAA
:1009400024E582B4FF03020C24258340072482405F
:100950000B020C0E2483145003020C24F582EA8D42
:10096000F0A4A8F0EA8EF0A428F8E435F0F9EB8DB5
:10097000F0A428E935F0F9E433CA8FF0A429F9EAA4
:1009800035F0FAEBF88EF0A429F9EA35F0FAE43301
:10099000FBEC8DF0A429F9EA35F0FAE43BFBE88F93
:1009A000F0A42AFAEB35F0FBE433CCFD8EF0A42A58
:1009B000FAEB35F0FBE43CFCED8FF0A42BFBEC35BF
:1009C000F0FC20E703120C3C020BEDE4AC82FBFAD6
:1009D000F97486020B9A120C6F7900E583B58202D6
:1009E000800D5003120C9DE583C39582120CB7E570
:1009F000D0C465D020E117EA2DFAEB3EFBEC3FFCBA
:100A000050097401120CB7EC4480FC020BEDC3EAF0
:100A10009DFAEB9EFBEC9FFC500FC3E499F9E49A1E
:100A2000FAE49BFBE49CFCB2D1120C3C020BED02FD
:100A3000168685823085833185F032851D33900A94
:100A40002F0210D9C008858108E50824FBF533E59D
:100A50000824FBF88630088631088632900A2F1267
:100A600010D9D00822AC83AB827A007900748E0250
:100A700016A4120C6F30D502B2D1BF0009BC00031E
:100A8000020C31020C24BC0003020C0EE583B4FFFF
:100A90000BE582B4FF03020C31020C0EE582B4FFB9
:100AA00003020C24C395835007247F400B020C0ED5
:100AB0002480145003020C24C0E0E4CCCBCAF98D8E
:100AC000348E358F36EF54F0C4F53775830685378D
:100AD000F0EB84F582E9C4F9EAC4FAEBC4FBEC5408
:100AE0000FC47803D6FC18EBD6FB18EAD6FA858239
:100AF000F0EDA4A8F0FD8582F0EEA428FEE435F028
:100B0000F88582F0EFA428FFE435F0F8E99DF9EAD2
:100B10009EFAEB9FFBEC98FCAD34AE35AF3630E778
:100B2000101582E92DF9EA3EFAEB3FFBE43CFC802C
:100B3000EDC082D58398C3E933F9EA33FAEB33FB8E
:100B4000EC33FCC3E99DEA9EEB9FEC9400B3E41305
:100B5000F9D002D0E0C44AFAD003D0E0C44BFBD0B5
:100B600004D0E0F5F0540FC44CFCD082158230F470
:100B70000FD3EC13FCEB13FBEA13FAE913F905822C
:100B8000E930E70A74012AFAE43BFBE43CFC020C7E
:100B900005FCABF0AA83A982749EC2D1F582120C27
:100BA0003C020BED7901AA82E68F82B5821318E62A
:100BB000B5F00E18E6B5830918E68A82B582027987
:100BC0000022B4800FE5F0700AE5837006E58270BC
:100BD000027F00EFB6801518B6001018B6000B188B
:100BE000B6000608080876002208080822B9800323
:100BF000EA13B34010EA2401FAE43BFBE43CFC5066
:100C0000047C800582BC000EBB000BBA0008E4F532
:100C1000F0F583F58222A2D1E582138CF092F78B56
:100C2000838A8222E4F583F58275F080F4A2D113E1
:100C300022E4F583F58275F0C0747F227804EC70AD
:100C400011E58224F8500AF582E4C9CACBFCD8EF3A
:100C500022EC7820058220E713D5820122C3E933F4
:100C6000F9EA33FAEB33FBEC33FCD8EA158222AA1B
:100C700082AB83A2F73392D16002D2F7F582ACF057
:100C8000E58124F9F8E6FD08E6FE0886F008E6A20C
:100C9000F73392D56002D2F7F583AFF022E582C533
:100CA00083F582A2D133A2D592D11392D5ECCFFC99
:100CB000EBCEFBEACDFA226040F82582500274FFA9
:100CC000F582E824F8501ECCCBCAF9E4CC24F850C5
:100CD00014CBCAF9E4CB24F8500BCAF9E4CA24F8BF
:100CE000500379002224086010F8C3EC13FCEB13C6
:100CF000FBEA13FAE913F9D8F122AA82740BC0E0D7
:100D0000740DC0E0C022C0238A82220529E4B529DF
:100D100002052A22AA8274302AFA24C6500A7407CD
:100D20002AFA3001034302208A82020CFAE582FA91
:100D3000C4540FF582C002120D14D002740F5AF57C
:100D400082020D14AA24AB25AC26AD27AE28752F40
:100D500020EE2EFEED235401FF4206EA2AFAEB3381
:100D6000FBEC33FCED33FDC3EE952B4008EEC39551
:100D70002BFE430201D52FD98A248B258C268D2763
:100D80008E2822784CE624D075F00AA4FA784DE635
:100D900024D02AFA784B8603BB2D04C3E49AFA7553
:100DA0002B01C3E464808AF063F08095F0502975CC
:100DB0002F038A0374F6252F401C052BE52F1424DE
:100DC00040F8E52F2440F98704A604772E1BEBFAA0
:100DD0006004052F80DE8B02EA30E70D7841860340
:100DE0007842A6037841762E0AE52D600AE52D04A7
:100DF000FB252BF52B8005300C02052B7840860354
:100E0000E4BB2D0104FB7006200703300802052B0C
:100E1000300503020ECA300657EB600C75822DC0F8
:100E200002120CFAD002801C30070C75822BC00213
:100E3000120CFAD002800D30080A758220C002120E
:100E40000CFAD00278418604BC2E0C758230C002A8
:100E5000120CFAD002152CAC2C152CC3E52B9C409F
:100E600003020F0E758230C002120CFAD00280E726
:100E7000AC2C152CC3E52B9C500C758220C00212A3
:100E80000CFAD00280EA78408604BC2D0C75822DC5
:100E9000C002120CFAD002801C30070C75822BC0E5
:100EA00002120CFAD002800D30080A758220C002AE
:100EB000120CFAD00278418604BC2E52758230C0E2
:100EC00002120CFAD002152C8044EB600E75822DB4
:100ED000C002120CFAD002152C802030070E758249
:100EE0002BC002120CFAD002152C800F30080C75A2
:100EF0008220C002120CFAD002152C78418603BB66
:100F00002E0C758230C002120CFAD002152C752FEF
:100F100001C20EE52F2440F88603BB4503020FCB28
:100F2000BB2E348A03C3E464808BF063F08095F0B9
:100F3000500F758230C003120CFAD0031B8B028055
:100F4000E48B02D20EE52D7038200C03020FCB7516
:100F5000822E120CFA8074300E278A03EB30E71FC2
:100F6000C3E46480852DF063F08095F0500C7582A9
:100F700030C003120CFAD003152D0B8B0280DD8BD1
:100F800002300E0EC3E46480852DF063F08095F08E
:100F90005021E52F2440F886038B82C002120CFA00
:100FA000D002300E0EE52F2440F88603BB2E0280BF
:100FB00002152D152CC3E46480852DF063F0809517
:100FC000F04003200E05052F020F13C3E464808553
:100FD0002DF063F08095F0500A758230120CFA15EE
:100FE0002D80E830050FAA2C152CEA6008758220A8
:100FF000120CFA80F122E52D7003300C0D740725D8
:101000002DFAE52CC39AF52C8006E52C24FAF52C54
:10101000752F0078408602BA2B0F20070C78407697
:1010200020200805752F01052C200519AA2CC3E4E2
:1010300064808AF063F08095F0500A758220120C6B
:10104000FA152C80E7C20EE52F2440F88602BA007C
:10105000028069BA451F3001027665C3E464808569
:101060002DF063F08095F0500A758230120CFA155D
:101070002D80E8D20EC3E52F9402E433FA7014EA0F
:10108000700EC3E46480852DF063F08095F040031A
:10109000300E16E52F2440F886028A82120CFAE5FB
:1010A0002F24FD5012152D800E7402B52F09300C1F
:1010B0000675822E120CFA052F021047300519AA68
:1010C0002CC3E464808AF063F08095F0500A758246
:1010D00020120CFA152C80E722858222858323E4D6
:1010E000F529F52AAA30AB31AC328A828B838CF099
:1010F0001208A0FD74012AF530E43BF5318C32ED85
:10110000FA700302167FBA25028003021677C20521
:10111000C206C207C208C209C20AC20BC20CC2027E
:10112000C203C204752B00752C00752DFFAB30ACCB
:1011300031AD328B828C838DF01208A0FAA3AB8282
:10114000AC838B308C318D32BA25078A82120CFA2F
:1011500080928A06BE3000402E8A06EE24C64027C2
:1011600074FFB52D13E52C75F00AA4FEEA24D02EE9
:10117000F52C70BFD20680BBE52D75F00AA4FEEAFF
:1011800024D02EF52D80ACBA2E0A74FFB52DA4758F
:101190002D00809F8A06BE6100400E8A06EE2485DF
:1011A00040075302DFD2018002C201BA20028075DB
:1011B000BA2303021234BA2A03021239BA2B02806C
:1011C0005FBA2D028055BA4202805FBA4303021211
:1011D0007EBA44030213B9BA45030213D3BA4603D5
:1011E0000213CFBA47030213D7BA49030213B9BA9D
:1011F0004C02803BBA4E030213DBBA4F030213C00A
:10120000BA5003021352BA53030212A2BA55030290
:1012100013C5BA58030213CA021405D205021133CA
:10122000D207021133D208021133D20A021133D28B
:101230000B021133D20C02113374FFB52D20300A8A
:101240000BE53314F88833862C021133E53324FE82
:10125000F888338606088607188E2C021133300A68
:101260000BE53314F88833862D021133E53324FE61
:10127000F888338606088607188E2D021133300A47
:101280000AE53314F888338602800FE53324FEF82C
:1012900088338603088604188B028A82120CFA02AD
:1012A000140AE53324FDF88833860308860408868B
:1012B0000518188B248C258D268B828C838DF0123B
:1012C0001800AB82AC838B2E74FFB52D03852E2DB9
:1012D00020051DC3E52E952C5016E52CC3952EF543
:1012E0002CAB2C152CEB6008758220120CFA80F1C7
:1012F0008524828525838526F01208A0FBFA6029C3
:10130000AB2D152DC3E464808BF063F08095F05015
:10131000188A82120CFAAB24AC25AD260BBB000157
:101320000C8B248C258D2680C720050302140AC34C
:10133000E52E952C400302140AE52CC3952EF52CBE
:10134000AB2C152CEB700302140A758220120CFAD8
:1013500080EEE53324FDF88833860308860408868A
:101360000518188B248C258D26E526FB30E7047A9A
:10137000438013EB546060047A50800AEB30E6043B
:101380007A4980027A588A82C002120CFA75823A2F
:10139000120CFA758230120CFA758278120CFAD09F
:1013A00002BA4902800BBA50028006852582120DCE
:1013B0002D852482120D2D8051D209752B0A804A69
:1013C000752B088045752B0A8040752B10803BD209
:1013D000028037D2038033D204802FE53324FDF816
:1013E0008833860308860408860518188B248C2504
:1013F0008D268B828C838DF0E5291217E7A3E52AD1
:101400001217E780058A82120CFA200206200303D5
:10141000300470E53324FCF888338603088604081A
:1014200086050886061818188B248C258D268E278D
:10143000E524E525E526E5278B828C838DF0EE12E9
:1014400016C874FFB52D03752D06300427747F551B
:1014500027FB8B28E528EB2BFB8B28E52630E706BE
:1014600074014528F528E528246840067499252844
:101470004002D203300306120FF60210E4120D836D
:101480000210E4E52B70030210E47B45300A2BE5E3
:101490003314F88833E6FC3395E0FDFEFF8C248D91
:1014A000258E268F2720095EAC247D007E007F00DC
:1014B0008C248D258E268F27804C300B1FE53324FE
:1014C000FCF888338604088605088606088607180F
:1014D00018188C248D258E268F27802AE53324FE2C
:1014E000F88833860408860518ED3395E0FEFF8CF6
:1014F000248D258E268F2720090CAC24AD257E0057
:101500007F008E268F27300C43E524452545264550
:101510002760397408B52B0C758230C003120CFAA1
:10152000D00380287410B52B23758230C003120CB1
:10153000FAD00330010C758278C003120CFAD00384
:10154000800A758258C003120CFAD003300925AC0A
:1015500024AD25AE26E527FF30E717C3E49CFCE465
:101560009DFDE49EFEE49FFF8C248D258E268F2713
:101570008002C209752E00D20D8B00752800C000B4
:10158000120D44D000200D0DE528C4FCE6FD4CF6FC
:101590001888038002A628052EB20DE524452545AE
:1015A00026452770D68803E52C7003752C0120068C
:1015B0001A200517E52E04FCC3952C500E758220C9
:1015C000C003120CFAD003152C80E930090E758285
:1015D0002DC003120CFAD003152C8024E52E6020B8
:1015E00030070E75822BC003120CFAD003152C8025
:1015F0000F30080C758220C003120CFAD003152C92
:1016000020051EAC2C152CC3E52E9C50273006045B
:101610007C3080027C208C82C003120CFAD00380C4
:10162000E2C3E52E952C5009E52CC3952EF52C80B0
:1016300003752C008B00AB2E152EEB6022B20D2013
:101640000D0A08E6C4540FFB8B2880078603740F2D
:101650005BF528852882C000120D14D00080D720A9
:1016600005030210E4AB2C152CEB70030210E4759B
:101670008220120CFA80EE8A82120CFA0210E485A3
:101680002982852A8322AA82BA0A0810990280FB3D
:1016900075990D10990280FB8A9922FCABF0AA8300
:1016A000A982749EF582C2D1EC30E716D2D1E9F45A
:1016B0002401F9EAF43400FAEBF43400FBECF434DE
:1016C00000FC120C3C020BEDC0E0F845824583455E
:1016D000F07009F5F0FBFCFDFE021796E823A2F777
:1016E00092E0F8A982AA83D2F7ABF07C007E07C310
:1016F000749798404074FF2EFE740A89F0A4F9850F
:10170000F082740A8AF0A4FA85F083740A8BF0A43C
:10171000FB740529F9EA3582FAEB3583FB74003551
:10172000F0FCC3EC13FCEB13FBEA13FAE913F90822
:10173000EC70EF80BAE8C3947FF88B838EF0E4FB03
:10174000FCFDFEFF08C3E933F9EA33FAE58333F51C
:1017500083EB3BD4FBEC3CD4FCED3DD4FDEE3ED41E
:10176000FEEF3FD4FF602D05F074052BD4FBE43C65
:10177000D4FCE43DD4FDE43ED4FEE43FD4FF7582C6
:1017800004C3EF13FFEE13FEED13FDEC13FCEB139C
:10179000FBD582EDD8AF7840D0E020E704762B80EF
:1017A00002762D087906E7C4540F4430F608B906CE
:1017B00003762E08E7540F4430F60819B902E7768D
:1017C0004508E5F020E704762B8004762DF4040824
:1017D00075F00A844430F608E5F04430F608E4F683
:1017E00090004075F0402220F71030F6118883A851
:1017F0008220F507F6A88375830022F280F7F02295
:10180000AA82AB83ACF07D007E008A828B838CF051
:101810001208A0FFA3AA82AB83EF60070DBD00EA08
:101820000E80E78D828E8322000000000000000001
:00000001FF
