:10000000020003758136120111E582600302006F60
:10001000780079007A007B007C007D00EC4D601C4C
:1000200088828983E493A3A882A9838A828B83F040
:10003000A3AA82AB831CBCFFE31D80E07582007520
:1000400083007C007D00EC4D600AE4F0A31CBCFF43
:10005000F51D80F27582007583007C007D00EC4DFB
:10006000600AE4F0A31CBCFFF51D80F2120110121F
:1000700002A180FE1B5B324A004144432074657339
:10008000742070726F6772616D0A46696C653A2000
:1000900025730A436F6D70696C65643A2025732C73
:1000A0002025730A0A00433A5C55736572735C71CC
:1000B000697579755C4F6E6544726976655C446FED
:1000C00063756D656E74735C4769744875625C4CEA
:1000D0004142355C6C6162355F76322E63004D6162
:1000E0007220203520323032340031313A34373A00
:1000F0003536000A2564000A0D543D2564206D73D1
:1001000020202020003C4E4F20464C4F41543E00C2
:100110002275A7007597DE7597AD75FF8075EF06A0
:1001200075A71075C12075A70075A90075A900E510
:10013000A930E7FB75A90375A903E5A930E7FB43DF
:10014000A41075E10175E20075E340759810858E85
:100150008E758DE6858D8B53890F438920D28ED283
:10016000997582002275A700C2EF75B28075BC2018
:1001700075B91E75E80075DF3F75B300D2EF22AA8E
:1001800082438E407592B87593FF859294859395BE
:100190007591047B00C3EB9A500BE59130E7FB535C
:1001A000917F0B80F075910022AA82AB837C007D49
:1001B00000C3EC9AED9B502B7E00BE0400501D75D1
:1001C00082FAC002C003C004C005C00612017FD07D
:1001D00006D005D004D003D0020E80DE0CBC00D1C6
:1001E0000D80CE22AA828513F005F07401800225CD
:1001F000E0D5F0FBFB75A720BA0002800ABA010225
:10020000800FBA021E8014EBF4FA52F1EB42D48054
:1002100012EBF4FA52F2EB42D58008EBF4FA52F307
:10022000EB42CC75A700228582BBC2EDD2EC30ED4B
:10023000FD85BD8285BE832212022712037FAA821A
:10024000AB83ACF0FDC002C003C004C005903333E3
:1002500075F053744012038BAA82AB83ACF0FDE5BA
:100260008124FCF581E4C0E074FCC0E0747FC0E050
:100270007446C0E08A828B838CF0ED120464AA82FB
:10028000AB83ACF0FDE58124FCF5818A828B838C05
:10029000F0ED22C2EDD2EC30EDFD85BD8285BE834E
:1002A000229001F41201A97474C0E07400C0E074DB
:1002B00080C0E012044315811581158174EAC0E005
:1002C0007400C0E07480C0E074DEC0E07400C0E080
:1002D0007480C0E074A6C0E07400C0E07480C0E028
:1002E0007479C0E07400C0E07480C0E0120443E59B
:1002F0008124F4F5815389F0438901C28C758C0007
:10030000758A002081FD3081FDD28C2081FDC28C58
:10031000AA8C7B00C002C00374F3C0E07400C0E08C
:100320007480C0E0120443E58124FBF581AA8A7B36
:1003300000C002C00374F3C0E07400C0E07480C069
:10034000E0120443E58124FBF581AB8C7A00AC8A92
:100350007D00EC2AFAED3BCA25E0CA33FBC002C09F
:100360000374F7C0E07400C0E07480C0E01204437E
:10037000E58124FBF5819000641201A90202FBE4EF
:10038000AC83AB82FAF9748E02058C120618BC009D
:10039000030205B7EF60FA30D502B2D1E583B4FFAE
:1003A000030205CDE582B4FF030205CD2583400796
:1003B0002482400B0205B724831450030205CDF5B7
:1003C00082EA8DF0A4A8F0EA8EF0A428F8E435F0D3
:1003D000F9EB8DF0A428E935F0F9E433CA8FF0A4E5
:1003E00029F9EA35F0FAEBF88EF0A429F9EA35F0AC
:1003F000FAE433FBEC8DF0A429F9EA35F0FAE43B9A
:10040000FBE88FF0A42AFAEB35F0FBE433CCFD8E49
:10041000F0A42AFAEB35F0FBE43CFCED8FF0A42BC2
:10042000FBEC35F0FC20E7031205E5020596020C13
:100430006685823085833185F03285123390042EB3
:100440000206CFC008858108E50824FBF533E508DE
:1004500024FBF8863008863108863290042E120676
:10046000CFD0082212061830D502B2D1BF0009BC85
:1004700000030205DA0205CDBC00030205B7E583DF
:10048000B4FF0BE582B4FF030205DA0205B7E5828B
:10049000B4FF030205CDC395835007247F400B02B0
:1004A00005B724801450030205CDC0E0E4CCCBCACC
:1004B000F98D138E148F15EF54F0C4F5167583065D
:1004C0008516F0EB84F582E9C4F9EAC4FAEBC4FBC3
:1004D000EC540FC47803D6FC18EBD6FB18EAD6FA16
:1004E0008582F0EDA4A8F0FD8582F0EEA428FEE45C
:1004F00035F0F88582F0EFA428FFE435F0F8E99DA7
:10050000F9EA9EFAEB9FFBEC98FCAD13AE14AF1525
:1005100030E7101582E92DF9EA3EFAEB3FFBE43CA7
:10052000FC80EDC082D58398C3E933F9EA33FAEB56
:1005300033FBEC33FCC3E99DEA9EEB9FEC9400B3E4
:10054000E413F9D002D0E0C44AFAD003D0E0C44B9F
:10055000FBD004D0E0F5F0540FC44CFCD0821582DF
:1005600030F40FD3EC13FCEB13FBEA13FAE913F9A5
:100570000582E930E70A74012AFAE43BFBE43CFC1B
:100580000205AEFCABF0AA83A982749EC2D1F582AB
:100590001205E5020596B98003EA13B34010EA2478
:1005A00001FAE43BFBE43CFC50047C800582BC0087
:1005B0000EBB000BBA0008E4F5F0F583F58222A229
:1005C000D1E582138CF092F78B838A8222E4F58343
:1005D000F58275F080F4A2D11322E4F583F58275DB
:1005E000F0C0747F227804EC7011E58224F8500A80
:1005F000F582E4C9CACBFCD8EF22EC782005822032
:10060000E713D5820122C3E933F9EA33FAEB33FB6E
:10061000EC33FCD8EA158222AA82AB83A2F733928C
:10062000D16002D2F7F582ACF0E58124F9F8E6FD5D
:1006300008E6FE0886F008E6A2F73392D56002D2FB
:10064000F7F583AFF022AA827457C0E07406C0E0C9
:10065000C022C0238A82220529E4B52902052A2264
:10066000AA8274302AFA24C6500A74072AFA300083
:10067000034302208A82020646E582FAC4540FF53B
:1006800082C002120660D002740F5AF58202066020
:10069000AA24AB25AC26AD27AE28752F20EE2EFE62
:1006A000ED235401FF4206EA2AFAEB33FBEC33FC5C
:1006B000ED33FDC3EE952B4008EEC3952BFE4302B0
:1006C00001D52FD98A248B258C268D278E2822852B
:1006D0008222858323E4F529F52AAA30AB31AC3296
:1006E0008A828B838CF0120C7BFD74012AF530E436
:1006F0003BF5318C32EDFA7003020C5FBA250280B3
:1007000003020C57C204C205C206C207C208C209CE
:10071000C20AC20BC201C202C203752B00752C00B3
:10072000752DFFAB30AC31AD328B828C838DF012E6
:100730000C7BFAA3AB82AC838B308C318D32BA2523
:10074000078A8212064680928A06BE3000402E8AB0
:1007500006EE24C6402774FFB52D13E52C75F00A6C
:10076000A4FEEA24D02EF52C70BFD20580BBE52D67
:1007700075F00AA4FEEA24D02EF52D80ACBA2E0A1C
:1007800074FFB52DA4752D00809F8A06BE610040C0
:100790000E8A06EE248540075302DFD2008002C293
:1007A00000BA20028075BA230302082ABA2A03027B
:1007B000082FBA2B02805FBA2D028055BA42028000
:1007C0005FBA4303020874BA44030209AFBA45038F
:1007D0000209C9BA46030209C5BA47030209CDBADC
:1007E00049030209AFBA4C02803BBA4E030209D159
:1007F000BA4F030209B6BA5003020948BA530302BA
:100800000898BA55030209BBBA58030209C0020985
:10081000FBD204020729D206020729D207020729C0
:10082000D209020729D20A020729D20B020729742A
:10083000FFB52D2030090BE53314F88833862C02E0
:100840000729E53324FEF888338606088607188EC4
:100850002C02072930090BE53314F88833862D0262
:100860000729E53324FEF888338606088607188EA4
:100870002D02072930090AE53314F88833860280EF
:100880000FE53324FEF888338603088604188B02AC
:100890008A82120646020A00E53324FDF888338670
:1008A0000308860408860518188B248C258D268B52
:1008B000828C838DF0120CB0AB82AC838B2E74FFD4
:1008C000B52D03852E2D20041DC3E52E952C501625
:1008D000E52CC3952EF52CAB2C152CEB60087582FE
:1008E0002012064680F18524828525838526F01214
:1008F0000C7BFBFA6029AB2D152DC3E464808BF0D3
:1009000063F08095F050188A82120646AB24AC251D
:10091000AD260BBB00010C8B248C258D2680C720B7
:100920000403020A00C3E52E952C4003020A00E5E9
:100930002CC3952EF52CAB2C152CEB7003020A0062
:1009400075822012064680EEE53324FDF888338652
:100950000308860408860518188B248C258D26E547
:1009600026FB30E7047A438013EB546060047A502E
:10097000800AEB30E6047A4980027A588A82C00203
:1009800012064675823A1206467582301206467580
:100990008278120646D002BA4902800BBA50028011
:1009A000068525821206798524821206798051D225
:1009B00008752B0A804A752B088045752B0A8040E4
:1009C000752B10803BD2018037D2028033D2038056
:1009D0002FE53324FDF8883386030886040886054E
:1009E00018188B248C258D268B828C838DF0E5291D
:1009F000120C97A3E52A120C9780058A82120646EC
:100A000020010620020330035AE53324FCF8883322
:100A100086030886040886050886061818188B249D
:100A20008C258D268E2775240575250175268085D4
:100A3000243485253585263674012534FEE4353584
:100A4000FFAB368E248F258B2685348285358385B2
:100A500036F0120C7BFBFA70030206DA8A82120669
:100A60004680CCE52B70030206DA7B1C30092BE5AF
:100A70003314F88833E6FC3395E0FDFEFF8C248DBB
:100A8000258E268F2720085EAC247D007E007F0007
:100A90008C248D258E268F27804C300A1FE5332429
:100AA000FCF8883386040886050886060886071839
:100AB00018188C248D258E268F27802AE53324FE56
:100AC000F88833860408860518ED3395E0FEFF8C20
:100AD000248D258E268F2720080CAC24AD257E0082
:100AE0007F008E268F27300B43E52445254526457C
:100AF0002760397408B52B0C758230C00312064686
:100B0000D00380287410B52B23758230C0031206E1
:100B100046D00330000C758278C003120646D0031D
:100B2000800A758258C003120646D003300825ACEF
:100B300024AD25AE26E527FF30E717C3E49CFCE48F
:100B40009DFDE49EFEE49FFF8C248D258E268F273D
:100B50008002C208752E00D20C8B00752800C000E0
:100B6000120690D000200C0DE528C4FCE6FD4CF6E2
:100B70001888038002A628052EB20CE524452545D9
:100B800026452770D68803E52C7003752C012005B7
:100B90001A200417E52E04FCC3952C500E758220F4
:100BA000C003120646D003152C80E930080E75826A
:100BB0002DC003120646D003152C8024E52E60209C
:100BC00030060E75822BC003120646D003152C800A
:100BD0000F30070C758220C003120646D003152C77
:100BE00020041EAC2C152CC3E52E9C502730050488
:100BF0007C3080027C208C82C003120646D00380A9
:100C0000E2C3E52E952C5009E52CC3952EF52C80DA
:100C100003752C008B00AB2E152EEB6022B20C203E
:100C20000C0A08E6C4540FFB8B2880078603740F58
:100C30005BF528852882C000120660D00080D7208E
:100C400004030206DAAB2C152CEB70030206DA75EE
:100C5000822012064680EE8A821206460206DA8555
:100C60002982852A8322AA82BA0A0810990280FB67
:100C700075990D10990280FB8A992220F71430F69D
:100C8000148883A88220F507E6A88375830022E2F2
:100C900080F7E49322E02220F71030F6118883A831
:100CA0008220F507F6A88375830022F280F7F022F0
:100CB000AA82AB83ACF07D007E008A828B838CF0AD
:100CC000120C7BFFA3AA82AB83EF60070DBD00EA85
:100CD0000E80E78D828E832200000000000000005D
:00000001FF
