:100000000200037581AF1201E1E582600302006F17
:10001000780079007A007B007C007D00EC4D601C4C
:1000200088828983E493A3A882A9838A828B83F040
:10003000A3AA82AB831CBCFFE31D80E07582007520
:1000400083007C007D00EC4D600AE4F0A31CBCFF43
:10005000F51D80F27582007583007C007D00EC4DFB
:10006000600AE4F0A31CBCFFF51D80F21201C61269
:10007000053480FE456E7465722070617373636F22
:1000800064653A20002020202020202020202020ED
:10009000202020202000547970652077686174202A
:1000A000796F752077616E7420746F206469737046
:1000B0006C617920696E206C696E65203220283170
:1000C000362063686172206D6178293A20000A0049
:1000D00057726F6E672050617373636F6465004180
:1000E0007474656D707473204F7665722000537957
:1000F0007374656D2048616E6700547279204167A2
:1001000061696E001B5B324A004144432074657391
:10011000742070726F6772616D0A46696C653A206F
:1001200025730A436F6D70696C65643A2025732CE2
:100130002025730A0A00443A5C636C6F6E655C4C60
:100140004142355C6C61623576332E63004D6172DD
:1001500020203720323032340031353A32373A32CB
:1001600034000A706572696F643D25332E32660D66
:10017000000A564050315F343D25372E3566562CE7
:1001800020564050315F353D25372E3566560D00DF
:100190000D0A646567726565733A2025660076729C
:1001A0003A2530342E326620663A2530342E3166B8
:1001B000487A0076743A2530342E32662070683AD8
:1001C00025342E316600E4F522F5237525247526A5
:1001D00001E4F527F528E4F529F52AE4F52BF52CBB
:1001E0002275A7007597DE7597AD75FF8075EF06D0
:1001F00075A71075C12075A70075A90075A900E540
:10020000A930E7FB75A90375A903E5A930E7FB430E
:10021000A41075E10175E20075E340759810858EB4
:100220008E758DE6858D8B53890F438920D28ED2B2
:10023000997582002275A700C2EF75B28075BC2047
:1002400075B91E75E80075DF3F75B300D2EF22AABD
:1002500082438E407592B87593FF859294859395ED
:100260007591047B00C3EB9A500BE59130E7FB538B
:10027000917F0B80F075910022AA82AB837C007D78
:1002800000C3EC9AED9B502B7E00BE0400501D7500
:1002900082FAC002C003C004C005C00612024FD0DB
:1002A00006D005D004D003D0020E80DE0CBC00D1F5
:1002B0000D80CE22D2A075822812024FC2A022AA9F
:1002C000828AE0A2E79290A2E69291A2E59292A29F
:1002D000E49293C0021202B475822812024FD00237
:1002E0008AE0A2E39290A2E29291A2E19292A2E02D
:1002F00092930202B4AA82D2978A821202BF90001D
:1003000002020279AA82C2978A821202BF90000575
:10031000020279C2A090001412027975823312038E
:100320000475823312030475823212030475822825
:1003300012030475820C12030475820112030490E7
:100340000014020279AA82AB83ACF07402B52D04CA
:100350007DC080027D808D82C002C003C004120374
:1003600004900005120279D004D003D0027D007EF3
:1003700000ED2AFFEE3BF88C018F82888389F01212
:100380000D0BFF60208F82C002C003C004C005C0F7
:10039000061202F5D006D005D004D003D0020DBD60
:1003A00000CF0E80CC3000248D028E03C3EA94105F
:1003B000EB648094805015758220C002C003120245
:1003C000F5D003D0020ABA00E30B80E0225389F093
:1003D000438901C28C22AA828511F005F074018044
:1003E0000225E0D5F0FBFB75A720BA0002800ABA0F
:1003F0000102800FBA021E8014EBF4FA52F1EB42B4
:10040000D48012EBF4FA52F2EB42D58008EBF4FA06
:1004100052F3EB42CC75A700228582BBC2EDD2EC31
:1004200030EDFD85BD8285BE8322120419120D2791
:10043000AA82AB83ACF0FDC002C003C004C005902B
:10044000923A75F0537440120D93AA82AB83ACF0CC
:10045000FDE58124FCF581E4C0E074FCC0E0747F1C
:10046000C0E07446C0E08A828B838CF0ED120FBB33
:10047000AA82AB83ACF0FDE58124FCF5818A828BF6
:10048000838CF0ED22C2EDD2EC30EDFD85BD82858E
:10049000BE832285823085833185F032E4F533F5E1
:1004A00034E52E24FFFFE52F34FFF879007A00C3EE
:1004B000E99FEA648088F063F08095F05059C002AB
:1004C000C007C000C001120EEDAB82D001D000D039
:1004D00007D002BB0A028003BB0D1DE5332530FCAB
:1004E000E5343531FDAE328C828D838EF0E4120F0F
:1004F0000085338285348322E92530FCEA3531FDDD
:10050000AE328C828D838EF0EB120F0009B90001A0
:100510000A89338A348098E5332530FAE534353159
:10052000FBAC328A828B838CF0E4120F00852E8222
:10053000852F8322753900753A00753B00753C00A4
:10054000753F0075400075410075420075430075A8
:1005500044007545007546001203CD120313752D36
:1005600001D20090007475F080120345752D02D2FF
:100570000090008575F080120345E5224523600355
:100580000206BC9001F41202797496C0E07400C0B7
:10059000E07480C0E0120ECC158115811581752E96
:1005A00011E4F52F90008F75F04012049374CEC0C3
:1005B000E07400C0E07480C0E0120ECC158115819B
:1005C0001581752D02D20090008F75F04012034501
:1005D0009001F4120279788FE6FE3395E0FFEE2465
:1005E000D0F511EF34FFF5127890E6FE3395E0FF79
:1005F000EE24D0F535EF34FFF5367891E6FE3395ED
:10060000E0FFEE24D0F537EF34FFF53890006412A8
:100610000E36AE82AF8385351185361290000AC042
:1006200006C007120E36AA82AB83D007D006EA2E88
:10063000FEEB3FFFE5372EFEE5383FFFEEB5251810
:10064000EFB52614752201E4F523752901E4F52A96
:10065000E4F527F52802057A752D01D2009000D027
:1006600075F080120345E4F522F5230527E4B5274C
:100670000205287403B52706E4B528028002802B02
:10068000752D01D2009000DF75F080120345752DA5
:1006900002D2009000EE75F080120345752B01E444
:1006A000F52C752201E4F52302057A752D01D2009F
:1006B0009000FA75F08012034502057A7401B52B9B
:1006C00007E4B52C03020D099001F41202797404B9
:1006D000C0E07401C0E07480C0E0120ECC1581153A
:1006E0008115817459C0E07401C0E07480C0E07469
:1006F0004DC0E07401C0E07480C0E07436C0E074A6
:1007000001C0E07480C0E07409C0E07401C0E0740E
:1007100080C0E0120ECCE58124F4F58175110475DA
:1007200082011203D67511057582011203D61202D9
:1007300035E529452A7003020D09E4F53DF53EC370
:10074000E53D940AE53E64809480400302089C7570
:100750008A00758C00C28D7524002081FD3081FDDA
:10076000D28C308109108D0280F8052480F420811C
:1007700009108D0280F8052480F4C28C8524821231
:100780000E53AC82AD83AEF0FFC004C005C006C0FE
:100790000790000075F0807447120D9385824F8595
:1007A000835085F051F552E58124FCF581858C82DA
:1007B000120E53AA82AB83ACF0FDC002C003C0048A
:1007C000C00590000075F0807443120D93AA82ABAF
:1007D00083ACF0FDE58124FCF581C002C003C004B8
:1007E000C005854F828550838551F0E552120E5E1B
:1007F00085824F85835085F051F552E58124FCF5C3
:1008000081AE8A7F008E828F83120FAEAE82AF835D
:10081000AAF0FBC006C007C002C003854F82855006
:10082000838551F0E552120E5EAA82AB83ACF0FDD7
:10083000E58124FCF581C002C003C004C00590F42A
:10084000FC75F0327434120D93AA82AB83ACF0FDC8
:10085000E58124FCF581C002C003C004C005C03995
:10086000C03AC03BC03C8A828B838CF0ED120D33C2
:10087000AE82E58124FCF581D005D004D003D002FE
:10088000EE60088A398B3A8C3B8D3C900001120255
:1008900079053DE4B53D02053E02073F7A007B0045
:1008A000C3EA9414EB64809480400302097E75824D
:1008B0000AC002C00312042AAC82AD83AEF0FF78F6
:1008C00065A60408A60508A60608A60775820B12E9
:1008D000042AAC82AD83AEF0FF7869A60408A605B1
:1008E00008A60608A6077865860408860508860611
:1008F000088607C004C005C006C007853F82854042
:10090000838541F0E542120D63AC82E58124FCF55C
:1009100081D003D002EC600D7865863F08864008E0
:100920008641088642786986040886050886060896
:100930008607C002C003C004C005C006C0078543C7
:10094000828544838545F0E546120D63AC82E581DE
:1009500024FCF581D003D002EC600D786986430851
:100960008644088645088646900001C002C00312EE
:100970000279D003D0020ABA00010B0208A0C039E4
:10098000C03AC03BC03C90000075F07A7444120D30
:1009900093AA82AB83ACF0FDE58124FCF581C00213
:1009A000C003C004C0057462C0E07401C0E074807C
:1009B000C0E0120ECCE58124F9F581C043C044C0EB
:1009C00045C046C03FC040C041C0427471C0E074E1
:1009D00001C0E07480C0E0120ECCE58124F5F58101
:1009E00075820A12042AAA82AB83ACF0FD740AC095
:1009F000E074D7C0E074A3C0E0743CC0E08A828B8E
:100A0000838CF0ED120D63AA82E58124FCF581EA66
:100A1000601875820012042AAA82AB83ACF0FDEA4A
:100A20004B4C8DF0C2F745F070B675820B12042A5C
:100A3000AA82AB83ACF0FD740AC0E074D7C0E07446
:100A4000A3C0E0743CC0E08A828B838CF0ED120D71
:100A500033AA82E58124FCF581EA600E754B0075AE
:100A60004C00754D80754E3F800C754B00754C00E9
:100A7000754D80754EBF900001120279758A007520
:100A80008C00C28D7524002081FD3081FD308115E0
:100A900020820E30810BD28C108D0280F3052480D1
:100AA000EFC28C80E8852482120E53AE82AF83AAF7
:100AB000F0FBC006C007C002C00390000075F080C4
:100AC0007447120D9385824F85835085F051F552FE
:100AD000E58124FCF581858C82120E53AE82AF83B2
:100AE000AAF0FBC006C007C002C00390000075F06A
:100AF000807443120D93AA82AB83ACF0FDE5812490
:100B0000FCF581C002C003C004C005854F8285503A
:100B1000838551F0E552120E5E85824F85835085A4
:100B2000F051F552E58124FCF581AE8A7F008E827A
:100B30008F83120FAEAE82AF83AAF0FBC006C00750
:100B4000C002C003854F828550838551F0E5521263
:100B50000E5EAA82AB83ACF0FDE58124FCF581C07A
:100B600002C003C004C00590F4FC75F03274341266
:100B70000D93AA82AB83ACF0FDE58124FCF581C026
:100B800002C003C004C005854B82854C83854DF0AF
:100B9000E54E120D93AA82AB83ACF0FDE58124FCF7
:100BA000F581C002C003C004C00590000075F0B418
:100BB0007443120D93AA82AB83ACF0FDE58124FC53
:100BC000F581C039C03AC03BC03C8A828B838CF02F
:100BD000ED120FBB85824785834885F049F54AE5CC
:100BE0008124FCF581C047C048C049C04A7490C008
:100BF000E07401C0E07480C0E0120ECCE58124F9FD
:100C0000F58130A603020D00C039C03AC03BC03C9C
:100C100090000075F080743F120FBB85824F858372
:100C20005085F051F552E58124FCF5817449C0E00E
:100C30007413C0E07492C0E0743FC0E0853F8285C9
:100C400040838541F0E542120FBBAC82AD83AAF030
:100C5000FBE58124FCF581C04FC050C051C052C09B
:100C600004C005C002C003749EC0E07401C0E074FB
:100C700080C0E0746DC0E07400C0E07440C0E01259
:100C80000F68E58124F2F581752D01D20090006D89
:100C900075F0401203457449C0E07413C0E07492CB
:100CA000C0E0743FC0E08543828544838545F0E51C
:100CB00046120FBBAA82AB83ACF0FDE58124FCF5A4
:100CC00081C047C048C049C04AC002C003C004C078
:100CD0000574B3C0E07401C0E07480C0E0747EC0ED
:100CE000E07400C0E07440C0E0120F68E58124F2B7
:100CF000F581752D02D20090007E75F040120345FB
:100D00009001F412027902073180FE20F71430F6C8
:100D1000148883A88220F507E6A88375830022E261
:100D200080F7E49322E022E4AC83AB82FAF9748E7C
:100D30000210E3FFA881181812110BD2D133E6403C
:100D40000730E70B7582012220E70675820022C278
:100D5000D11210EDE97003F5822230D101B3E433F2
:100D6000F58222FFA881181812110BD2D133E64068
:100D70000730E70B7582002220E70675820122C248
:100D8000D11210EDE97003F5822220D101B3E433D2
:100D9000F582221211B8BC0003021157EF60FA303D
:100DA000D502B2D1E583B4FF0302116DE582B4FF31
:100DB0000302116D258340072482400B0211572442
:100DC0008314500302116DF582EA8DF0A4A8F0EAB5
:100DD0008EF0A428F8E435F0F9EB8DF0A428E9357D
:100DE000F0F9E433CA8FF0A429F9EA35F0FAEBF808
:100DF0008EF0A429F9EA35F0FAE433FBEC8DF0A487
:100E000029F9EA35F0FAE43BFBE88FF0A42AFAEB83
:100E100035F0FBE433CCFD8EF0A42AFAEB35F0FB81
:100E2000E43CFCED8FF0A42BFBEC35F0FC20E70359
:100E3000121185021136E5828511F0A4C582C0F039
:100E40008512F0A4D0F025F0C5838511F0A4258388
:100E5000F58322E4AC82FBFAF974860210E31211E6
:100E6000B87900E583B58202800D50031211E6E5E2
:100E700083C39582121200E5D0C465D020E117EA41
:100E80002DFAEB3EFBEC3FFC50097401121200EC12
:100E90004480FC021136C3EA9DFAEB9EFBEC9FFCFA
:100EA000500FC3E499F9E49AFAE49BFBE49CFCB28A
:100EB000D1121185021136021BCF858261858362B2
:100EC00085F063851064900EB7021622C0088581F4
:100ED00008E50824FBF564E50824FBF8866108862C
:100EE00062088663900EB7121622D008221098026C
:100EF00080FBAA998A82C002121BCFD0028A82226A
:100F000020F71030F6118883A88220F507F6A88311
:100F100075830022F280F7F022AA82AB09AC0AADF9
:100F20000B8B828C838DF0EA120F000509E4B50962
:100F300002050A2285820985830A85F00B850C61EA
:100F4000850D62850E63850F64900F19121622AA13
:100F500082AB83AC09AD0AAE0B8C828D838EF0E43C
:100F6000120F008A828B8322C008858108E508243D
:100F7000F8F564E50824FBF8860908860A08860B5C
:100F8000E50824F8F88661088662088663900F19E0
:100F9000121622AA82AB83AC09AD0AAE0B8C828DED
:100FA000838EF0E4120F008A828B83D00822AC83F8
:100FB000AB827A007900748E021BED1211B830D525
:100FC00002B2D1BF0009BC000302117A02116DBC4C
:100FD0000003021157E583B4FF0BE582B4FF03025F
:100FE000117A021157E582B4FF0302116DC3958394
:100FF0005007247F400B0211572480145003021124
:101000006DC0E0E4CCCBCAF98D118E128F13EF5472
:10101000F0C4F5147583068514F0EB84F582E9C4F9
:10102000F9EAC4FAEBC4FBEC540FC47803D6FC18FD
:10103000EBD6FB18EAD6FA8582F0EDA4A8F0FD8580
:1010400082F0EEA428FEE435F0F88582F0EFA428C3
:10105000FFE435F0F8E99DF9EA9EFAEB9FFBEC9886
:10106000FCAD11AE12AF1330E7101582E92DF9EA8D
:101070003EFAEB3FFBE43CFC80EDC082D58398C395
:10108000E933F9EA33FAEB33FBEC33FCC3E99DEACD
:101090009EEB9FEC9400B3E413F9D002D0E0C44A75
:1010A000FAD003D0E0C44BFBD004D0E0F5F0540FED
:1010B000C44CFCD082158230F40FD3EC13FCEB133C
:1010C000FBEA13FAE913F90582E930E70A74012A09
:1010D000FAE43BFBE43CFC02114EFCABF0AA83A912
:1010E00082749EC2D1F5821211850211367901AA4D
:1010F00082E68F82B5821318E6B5F00E18E6B58346
:101100000918E68A82B58202790022B4800FE5F0E0
:10111000700AE5837006E58270027F00EFB68015E5
:1011200018B6001018B6000B18B6000608080876A6
:10113000002208080822B98003EA13B34010EA2409
:1011400001FAE43BFBE43CFC50047C800582BC00DB
:101150000EBB000BBA0008E4F5F0F583F58222A27D
:10116000D1E582138CF092F78B838A8222E4F58397
:10117000F58275F080F4A2D11322E4F583F582752F
:10118000F0C0747F227804EC7011E58224F8500AD4
:10119000F582E4C9CACBFCD8EF22EC782005822086
:1011A000E713D5820122C3E933F9EA33FAEB33FBC3
:1011B000EC33FCD8EA158222AA82AB83A2F73392E1
:1011C000D16002D2F7F582ACF0E58124F9F8E6FDB2
:1011D00008E6FE0886F008E6A2F73392D56002D250
:1011E000F7F583AFF022E582C583F582A2D133A261
:1011F000D592D11392D5ECCFFCEBCEFBEACDFA22FF
:101200006040F82582500274FFF582E824F8501EF1
:10121000CCCBCAF9E4CC24F85014CBCAF9E4CB24E3
:10122000F8500BCAF9E4CA24F850037900222408C4
:101230006010F8C3EC13FCEB13FBEA13FAE913F9A3
:10124000D8F122AA827454C0E07412C0E0C053C026
:10125000548A8222055AE4B55A02055B22AA827496
:10126000302AFA24C6500A74072AFA3001034302CE
:10127000208A82021243E582FAC4540FF582C0022A
:1012800012125DD002740F5AF58202125DAA55AB9C
:1012900056AC57AD58AE59756020EE2EFEED235476
:1012A00001FF4206EA2AFAEB33FBEC33FCED33FD97
:1012B000C3EE955C4008EEC3955CFE430201D56029
:1012C000D98A558B568C578D588E592278ACE62486
:1012D000D075F00AA4FA78ADE624D02AFA78AB8665
:1012E00003BB2D04C3E49AFA755C01C3E464808AED
:1012F000F063F08095F050297560038A0374F62539
:1013000060401C055CE5601424A0F8E56024A0F9A9
:101310008704A604772E1BEBFA6004056080DE8B41
:1013200002EA30E70D78A1860378A2A60378A176B9
:101330002E0AE55E600AE55E04FB255CF55C80052F
:10134000300C02055C78A08603E4BB2D0104FB7021
:1013500006200703300802055C3005030214133031
:101360000657EB600C75822DC002121243D002802A
:101370001C30070C75822BC002121243D002800D64
:1013800030080A758220C002121243D00278A1866A
:1013900004BC2E0C758230C002121243D002155DBF
:1013A000AC5D155DC3E55C9C40030214577582304B
:1013B000C002121243D00280E7AC5D155DC3E55C4C
:1013C0009C500C758220C002121243D00280EA7831
:1013D000A08604BC2D0C75822DC002121243D002CF
:1013E000801C30070C75822BC002121243D0028081
:1013F0000D30080A758220C002121243D00278A173
:101400008604BC2E52758230C002121243D00215DF
:101410005D8044EB600E75822DC002121243D00233
:10142000155D802030070E75822BC002121243D04A
:1014300002155D800F30080C758220C00212124325
:10144000D002155D78A18603BB2E0C758230C002D8
:10145000121243D002155D756001C20EE56024A032
:10146000F88603BB4503021514BB2E348A03C3E47C
:1014700064808BF063F08095F0500F758230C0036C
:10148000121243D0031B8B0280E48B02D20EE55E66
:101490007038200C0302151475822E1212438074CA
:1014A000300E278A03EB30E71FC3E46480855EF0CB
:1014B00063F08095F0500C758230C003121243D057
:1014C00003155E0B8B0280DD8B02300E0EC3E464CD
:1014D00080855EF063F08095F05021E56024A0F8EF
:1014E00086038B82C002121243D002300E0EE560DA
:1014F00024A0F88603BB2E028002155E155DC3E4AE
:101500006480855EF063F08095F04003200E050551
:101510006002145CC3E46480855EF063F08095F043
:10152000500A758230121243155E80E830050FAA0A
:101530005D155DEA600875822012124380F122E594
:101540005E7003300C0D7407255EFAE55DC39AF5F5
:101550005D8006E55D24FAF55D75600078A0860281
:10156000BA2B0F20070C78A07620200805756001A3
:10157000055D200519AA5DC3E464808AF063F080EC
:1015800095F0500A758220121243155D80E7C20E55
:10159000E56024A0F88602BA00028069BA451F30CF
:1015A00001027665C3E46480855EF063F08095F0A7
:1015B000500A758230121243155E80E8D20EC3E5E0
:1015C000609402E433FA7014EA700EC3E464808518
:1015D0005EF063F08095F04003300E16E56024A0C5
:1015E000F886028A82121243E56024FD5012155ECD
:1015F000800E7402B56009300C0675822E121243FB
:101600000560021590300519AA5DC3E464808AF074
:1016100063F08095F0500A758220121243155D80A8
:10162000E722858253858354E4F55AF55BAA61ABC2
:1016300062AC638A828B838CF0120D0BFD74012ADD
:10164000F561E43BF5628C63EDFA7003021BC8BAE6
:1016500025028003021BC0C205C206C207C208C21F
:1016600009C20AC20BC20CC202C203C204755C00EA
:10167000755D00755EFFAB61AC62AD638B828C8380
:101680008DF0120D0BFAA3AB82AC838B618C628D53
:1016900063BA25078A8212124380928A06BE3000FE
:1016A000402E8A06EE24C6402774FFB55E13E55D22
:1016B00075F00AA4FEEA24D02EF55D70BFD2068034
:1016C000BBE55E75F00AA4FEEA24D02EF55E80AC80
:1016D000BA2E0A74FFB55EA4755E00809F8A06BEAE
:1016E0006100400E8A06EE248540075302DFD201D6
:1016F0008002C201BA20028075BA230302177DBAA4
:101700002A03021782BA2B02805FBA2D028055BAD3
:101710004202805FBA43030217C7BA4403021902A8
:10172000BA450302191CBA4603021918BA47030244
:101730001920BA4903021902BA4C02803BBA4E037F
:10174000021924BA4F03021909BA500302189BBAAE
:1017500053030217EBBA550302190EBA58030219C4
:101760001302194ED20502167CD20702167CD2084B
:1017700002167CD20A02167CD20B02167CD20C0214
:10178000167C74FFB55E20300A0BE56414F888649B
:10179000865D02167CE56424FEF888648606088669
:1017A00007188E5D02167C300A0BE56414F8886415
:1017B000865E02167CE56424FEF888648606088648
:1017C00007188E5E02167C300A0AE56414F88864F5
:1017D0008602800FE56424FEF88864860308860488
:1017E000188B028A82121243021953E56424FDF811
:1017F0008864860308860408860518188B558C565D
:101800008D578B828C838DF0121D30AB82AC838B15
:101810005F74FFB55E03855F5E20051DC3E55F95C0
:101820005D5016E55DC3955FF55DAB5D155DEB60E5
:101830000875822012124380F18555828556838572
:1018400057F0120D0BFBFA6029AB5E155EC3E46422
:10185000808BF063F08095F050188A82121243ABAF
:1018600055AC56AD570BBB00010C8B558C568D57A4
:1018700080C7200503021953C3E55F955D4003024D
:101880001953E55DC3955FF55DAB5D155DEB7003C9
:1018900002195375822012124380EEE56424FDF88C
:1018A0008864860308860408860518188B558C56AC
:1018B0008D57E557FB30E7047A438013EB546060A3
:1018C000047A50800AEB30E6047A4980027A588A1A
:1018D00082C00212124375823A121243758230128C
:1018E0001243758278121243D002BA4902800BBAB1
:1018F0005002800685568212127685558212127623
:101900008051D209755C0A804A755C088045755C17
:101910000A8040755C10803BD2028037D20380334E
:10192000D204802FE56424FDF888648603088604C9
:1019300008860518188B558C568D578B828C838D95
:10194000F0E55A120F00A3E55B120F0080058A82B2
:10195000121243200206200303300470E56424FCC5
:10196000F888648603088604088605088606181821
:10197000188B558C568D578E58E555E556E557E52D
:10198000588B828C838DF0EE121C1174FFB55E03B0
:10199000755E06300427747F5558FB8B59E559EB6B
:1019A0002BFB8B59E55730E70674014559F559E58E
:1019B0005924684006749925594002D20330030621
:1019C00012153F02162D1212CC02162DE55C700383
:1019D00002162D7BA5300A2BE56414F88864E6FC1A
:1019E0003395E0FDFEFF8C558D568E578F5820099C
:1019F0005EAC557D007E007F008C558D568E578FD6
:101A000058804C300B1FE56424FCF8886486040879
:101A100086050886060886071818188C558D568E78
:101A2000578F58802AE56424FEF888648604088667
:101A30000518ED3395E0FEFF8C558D568E578F5867
:101A400020090CAC55AD567E007F008E578F583064
:101A50000C43E55545564557455860397408B55C03
:101A60000C758230C003121243D00380287410B565
:101A70005C23758230C003121243D00330010C7511
:101A80008278C003121243D003800A758258C003C3
:101A9000121243D003300925AC55AD56AE57E55868
:101AA000FF30E717C3E49CFCE49DFDE49EFEE49F49
:101AB000FF8C558D568E578F588002C209755F0076
:101AC000D20D8B00755900C00012128DD000200D70
:101AD0000DE559C4FCE6FD4CF61888038002A659B2
:101AE000055FB20DE55545564557455870D68803F4
:101AF000E55D7003755D0120061A200517E55F049A
:101B0000FCC3955D500E758220C003121243D003B2
:101B1000155D80E930090E75822DC003121243D085
:101B200003155D8024E55F602030070E75822BC0B1
:101B300003121243D003155D800F30080C7582200C
:101B4000C003121243D003155D20051EAC5D155D68
:101B5000C3E55F9C50273006047C3080027C208CDB
:101B600082C003121243D00380E2C3E55F955D504B
:101B700009E55DC3955FF55D8003755D008B00AB86
:101B80005F155FEB6022B20D200D0A08E6C4540F0A
:101B9000FB8B5980078603740F5BF559855982C00A
:101BA0000012125DD00080D720050302162DAB5D18
:101BB000155DEB700302162D75822012124380EE24
:101BC0008A8212124302162D855A82855B8322AACD
:101BD00082BA0A0810990280FB75990D109902804B
:101BE000FB8A9922FCABF0AA83A982749EF582C27B
:101BF000D1EC30E716D2D1E9F42401F9EAF434004B
:101C0000FAEBF43400FBECF43400FC121185021101
:101C100036C0E0F84582458345F07009F5F0FBFCDD
:101C2000FDFE021CDFE823A2F792E0F8A982AA8356
:101C3000D2F7ABF07C007E07C3749798404074FFE6
:101C40002EFE740A89F0A4F985F082740A8AF0A441
:101C5000FA85F083740A8BF0A4FB740529F9EA3540
:101C600082FAEB3583FB740035F0FCC3EC13FCEB1C
:101C700013FBEA13FAE913F908EC70EF80BAE8C332
:101C8000947FF88B838EF0E4FBFCFDFEFF08C3E934
:101C900033F9EA33FAE58333F583EB3BD4FBEC3CD1
:101CA000D4FCED3DD4FDEE3ED4FEEF3FD4FF602DDD
:101CB00005F074052BD4FBE43CD4FCE43DD4FDE4F6
:101CC0003ED4FEE43FD4FF758204C3EF13FFEE134E
:101CD000FEED13FDEC13FCEB13FBD582EDD8AF78D2
:101CE000A0D0E020E704762B8002762D087906E765
:101CF000C4540F4430F608B90603762E08E7540F93
:101D00004430F60819B902E7764508E5F020E70403
:101D1000762B8004762DF4040875F00A844430F69E
:101D200008E5F04430F608E4F69000A075F0402293
:101D3000AA82AB83ACF07D007E008A828B838CF01C
:101D4000120D0BFFA3AA82AB83EF60070DBD00EA63
:101D50000E80E78D828E83220000000000000000CC
:00000001FF
