:10000000020003758151120131E582600302006F25
:10001000780079007A007B007C007D00EC4D601C4C
:1000200088828983E493A3A882A9838A828B83F040
:10003000A3AA82AB831CBCFFE31D80E07582007520
:1000400083007C007D00EC4D600AE4F0A31CBCFF43
:10005000F51D80F27582007583007C007D00EC4DFB
:10006000600AE4F0A31CBCFFF51D80F212013012FF
:1000700003E380FE1B5B324A0041444320746573F6
:10008000742070726F6772616D0A46696C653A2000
:1000900025730A436F6D70696C65643A2025732C73
:1000A0002025730A0A00443A5C636C6F6E655C4CF1
:1000B0004142355C6C61623576312E63004D617270
:1000C00020203620323032340031333A31303A3564
:1000D000360076723A2020202020663A2020202008
:1000E000487A0076743A20202020207068613A20F7
:1000F000202020000A706572696F643D25332E321E
:10010000660D000A564050315F343D25372E356666
:10011000562C20564050315F353D25372E356656DA
:100120000D000D0A646567726565733A20256600E7
:100130002275A7007597DE7597AD75FF8075EF0680
:1001400075A71075C12075A70075A90075A900E5F0
:10015000A930E7FB75A90375A903E5A930E7FB43BF
:10016000A41075E10175E20075E340759810858E65
:100170008E758DE6858D8B53890F438920D28ED263
:10018000997582002275A700C2EF75B28075BC20F8
:1001900075B91E75E80075DF3F75B300D2EF22AA6E
:1001A00082438E407592B87593FF8592948593959E
:1001B0007591047B00C3EB9A500BE59130E7FB533C
:1001C000917F0B80F075910022AA82AB837C007D29
:1001D00000C3EC9AED9B502B7E00BE0400501D75B1
:1001E00082FAC002C003C004C005C00612019FD03D
:1001F00006D005D004D003D0020E80DE0CBC00D1A6
:100200000D80CE22D2A075822812019FC2A022AA00
:10021000828AE0A2E79290A2E69291A2E59292A24F
:10022000E49293C00212020475822812019FD00248
:100230008AE0A2E39290A2E29291A2E19292A2E0DD
:100240009293020204AA82D2978A8212020F90002D
:10025000020201C9AA82C2978A8212020F90000587
:100260000201C9C2A09000141201C97582331202A2
:1002700054758233120254758232120254758228E8
:1002800012025475820C12025475820112025490AB
:1002900000140201C9AA82AB83ACF07402B5230436
:1002A0007DC080027D808D82C002C003C004120226
:1002B000549000051201C9D004D003D0027D007E05
:1002C00000ED2AFFEE3BF88C018F82888389F012C3
:1002D00008F9FF60208F82C002C003C004C005C0BF
:1002E00006120245D006D005D004D003D0020DBDC1
:1002F00000CF0E80CC3000248D028E03C3EA941010
:10030000EB648094805015758220C002C0031202F5
:1003100045D003D0020ABA00E30B80E0225389F0F3
:10032000438901C28C22AA82851CF005F0740180E9
:100330000225E0D5F0FBFB75A720BA0002800ABABF
:100340000102800FBA021E8014EBF4FA52F1EB4264
:10035000D48012EBF4FA52F2EB42D58008EBF4FAB7
:1003600052F3EB42CC75A700228582BBC2EDD2ECE2
:1003700030EDFD85BD8285BE832212036912091509
:10038000AA82AB83ACF0FDC002C003C004C00590DC
:10039000923A75F0537440120981AA82AB83ACF093
:1003A000FDE58124FCF581E4C0E074FCC0E0747FCD
:1003B000C0E07446C0E08A828B838CF0ED120ACBD9
:1003C000AA82AB83ACF0FDE58124FCF5818A828BA7
:1003D000838CF0ED22C2EDD2EC30EDFD85BD82853F
:1003E000BE832275240075250075260075270075CB
:1003F0002A00752B00752C00752D00752E00752FA9
:1004000000753000753100753200753300753400A9
:1004100075350012031D1202639001F41201C974B4
:1004200074C0E07400C0E07480C0E0120A9D1581C1
:100430001581158174C9C0E07400C0E07480C0E00B
:1004400074BDC0E07400C0E07480C0E074A6C0E079
:100450007400C0E07480C0E07479C0E07400C0E053
:100460007480C0E0120A9DE58124F4F581751C04B6
:10047000758201120326751C05758201120326126E
:100480000185752301D2009000D275F0801202958B
:10049000752302D2009000E375F080120295E4F516
:1004A00028F529C3E528940AE5296480948040034F
:1004B000020600758A00758C00C28D7522002081AD
:1004C000FD3081FDD28C308109108D0280F805222B
:1004D00080F4208109108D0280F8052280F4C28CFE
:1004E000852282120A24AE82AF83AAF0FBC006C026
:1004F00007C002C00390000075F0807447120981A4
:1005000085823685833785F038F539E58124FCF519
:1005100081858C82120A24AE82AF83AAF0FBC006CA
:10052000C007C002C00390000075F0807443120938
:1005300081AA82AB83ACF0FDE58124FCF581C00289
:10054000C003C004C0058536828537838538F0E551
:1005500039120A2F85823685833785F038F539E5DB
:100560008124FCF581AE8A7F008E828F83120ABEC1
:10057000AE82AF83AAF0FBC006C007C002C00385ED
:1005800036828537838538F0E539120A2FAA82AB87
:1005900083ACF0FDE58124FCF581C002C003C004FA
:1005A000C00590F4FC75F0327434120981AA82AB54
:1005B00083ACF0FDE58124FCF581C002C003C004DA
:1005C000C005C024C025C026C0278A828B838CF03A
:1005D000ED120921AE82E58124FCF581D005D0041D
:1005E000D003D002EE60088A248B258C268D2790BC
:1005F00000011201C90528E4B5280205290204A357
:100600007A007B00C3EA9414EB6480948040030278
:1006100006E275820AC002C00312037AAC82AD837F
:10062000AEF0FF783AA60408A60508A60608A607B5
:1006300075820B12037AAC82AD83AEF0FF783EA6D2
:100640000408A60508A60608A607783A86040886C0
:1006500005088606088607C004C005C006C00785D1
:100660002A82852B83852CF0E52D120951AC82E579
:100670008124FCF581D003D002EC600D783A862A03
:1006800008862B08862C08862D783E860408860569
:10069000088606088607C002C003C004C005C0065D
:1006A000C007852E82852F838530F0E531120951F0
:1006B000AC82E58124FCF581D003D002EC600D789A
:1006C0003E862E08862F088630088631900001C0AD
:1006D00002C0031201C9D003D0020ABA00010B0202
:1006E0000604C024C025C026C02790000075F07AFB
:1006F0007444120981AA82AB83ACF0FDE58124FC2D
:10070000F581C002C003C004C00574F4C0E07400E9
:10071000C0E07480C0E0120A9DE58124F9F581C033
:100720002EC02FC030C031C02AC02BC02CC02D74A9
:1007300003C0E07401C0E07480C0E0120A9DE5814E
:1007400024F5F5812081033082FA30810C75320066
:1007500075330075348075353F30820C7532007505
:1007600033007534807535BF9000011201C9758A58
:1007700000758C00C28D7522002081FD3081FD3016
:10078000811520820E30810BD28C108D0280F305F2
:100790002280EFC28C80E8852282120A24AA82ABD2
:1007A00083ACF0FDC002C003C004C005900000751A
:1007B000F080744712098185823685833785F03849
:1007C000F539E58124FCF581858C82120A24AE82FC
:1007D000AF83AAF0FBC006C007C002C003900000B0
:1007E00075F0807443120981AA82AB83ACF0FDE5F9
:1007F0008124FCF581C002C003C004C00585368297
:100800008537838538F0E539120A2F85823685834E
:100810003785F038F539E58124FCF581AE8A7F0013
:100820008E828F83120ABEAE82AF83AAF0FBC0060F
:10083000C007C002C0038536828537838538F0E55E
:1008400039120A2FAA82AB83ACF0FDE58124FCF5B6
:1008500081C002C003C004C00590F4FC75F032747E
:1008600034120981AA82AB83ACF0FDE58124FCF54A
:1008700081C002C003C004C00585328285338385F0
:1008800034F0E535120981AA82AB83ACF0FDE58135
:1008900024FCF581C002C003C004C00590000075AF
:1008A000F0B47443120981AA82AB83ACF0FDE581F8
:1008B00024FCF581C024C025C026C0278A828B83F2
:1008C0008CF0ED120ACBAA82AB83ACF0FDE581245B
:1008D000FCF581C002C003C004C0057422C0E074EE
:1008E00001C0E07480C0E0120A9DE58124F9F58121
:1008F0009001F41201C902049E20F71430F6148806
:1009000083A88220F507E6A88375830022E280F79A
:10091000E49322E022E4AC83AB82FAF9748E020BFA
:10092000F3FFA8811818120C1BD2D133E640073010
:10093000E70B7582012220E70675820022C2D112E0
:100940000BFDE97003F5822230D101B3E433F58267
:1009500022FFA8811818120C1BD2D133E6400730B1
:10096000E70B7582002220E70675820122C2D112B0
:100970000BFDE97003F5822220D101B3E433F58247
:1009800022120CC8BC0003020C67EF60FA30D502DB
:10099000B2D1E583B4FF03020C7DE582B4FF03020C
:1009A0000C7D258340072482400B020C67248314AE
:1009B0005003020C7DF582EA8DF0A4A8F0EA8EF0D7
:1009C000A428F8E435F0F9EB8DF0A428E935F0F926
:1009D000E433CA8FF0A429F9EA35F0FAEBF88EF087
:1009E000A429F9EA35F0FAE433FBEC8DF0A429F9F7
:1009F000EA35F0FAE43BFBE88FF0A42AFAEB35F095
:100A0000FBE433CCFD8EF0A42AFAEB35F0FBE43C9A
:100A1000FCED8FF0A42BFBEC35F0FC20E703120C6F
:100A200095020C46E4AC82FBFAF97486020BF312D1
:100A30000CC87900E583B58202800D5003120CF6D4
:100A4000E583C39582120D10E5D0C465D020E1176F
:100A5000EA2DFAEB3EFBEC3FFC50097401120D103D
:100A6000EC4480FC020C46C3EA9DFAEB9EFBEC9F33
:100A7000FC500FC3E499F9E49AFAE49BFBE49CFC74
:100A8000B2D1120C95020C460216DF8582188583BE
:100A90001985F01A85091B900A88021132C0088551
:100AA0008108E50824FBF51BE50824FBF8861808F7
:100AB000861908861A900A88121132D00822AC834F
:100AC000AB827A007900748E0216FD120CC830D504
:100AD00002B2D1BF0009BC0003020C8A020C7DBC2B
:100AE0000003020C67E583B4FF0BE582B4FF030249
:100AF0000C8A020C67E582B4FF03020C7DC3958368
:100B00005007247F400B020C672480145003020C12
:100B10007DC0E0E4CCCBCAF98D1C8E1D8F1EEF5436
:100B2000F0C4F51F758306851FF0EB84F582E9C4D8
:100B3000F9EAC4FAEBC4FBEC540FC47803D6FC18F2
:100B4000EBD6FB18EAD6FA8582F0EDA4A8F0FD8575
:100B500082F0EEA428FEE435F0F88582F0EFA428B8
:100B6000FFE435F0F8E99DF9EA9EFAEB9FFBEC987B
:100B7000FCAD1CAE1DAF1E30E7101582E92DF9EA61
:100B80003EFAEB3FFBE43CFC80EDC082D58398C38A
:100B9000E933F9EA33FAEB33FBEC33FCC3E99DEAC2
:100BA0009EEB9FEC9400B3E413F9D002D0E0C44A6A
:100BB000FAD003D0E0C44BFBD004D0E0F5F0540FE2
:100BC000C44CFCD082158230F40FD3EC13FCEB1331
:100BD000FBEA13FAE913F90582E930E70A74012AFE
:100BE000FAE43BFBE43CFC020C5EFCABF0AA83A9FC
:100BF00082749EC2D1F582120C95020C467901AA2C
:100C000082E68F82B5821318E6B5F00E18E6B5833A
:100C10000918E68A82B58202790022B4800FE5F0D5
:100C2000700AE5837006E58270027F00EFB68015DA
:100C300018B6001018B6000B18B60006080808769B
:100C4000002208080822B98003EA13B34010EA24FE
:100C500001FAE43BFBE43CFC50047C800582BC00D0
:100C60000EBB000BBA0008E4F5F0F583F58222A272
:100C7000D1E582138CF092F78B838A8222E4F5838C
:100C8000F58275F080F4A2D11322E4F583F5827524
:100C9000F0C0747F227804EC7011E58224F8500AC9
:100CA000F582E4C9CACBFCD8EF22EC78200582207B
:100CB000E713D5820122C3E933F9EA33FAEB33FBB8
:100CC000EC33FCD8EA158222AA82AB83A2F73392D6
:100CD000D16002D2F7F582ACF0E58124F9F8E6FDA7
:100CE00008E6FE0886F008E6A2F73392D56002D245
:100CF000F7F583AFF022E582C583F582A2D133A256
:100D0000D592D11392D5ECCFFCEBCEFBEACDFA22F3
:100D10006040F82582500274FFF582E824F8501EE6
:100D2000CCCBCAF9E4CC24F85014CBCAF9E4CB24D8
:100D3000F8500BCAF9E4CA24F850037900222408B9
:100D40006010F8C3EC13FCEB13FBEA13FAE913F998
:100D5000D8F122AA827464C0E0740DC0E0C00AC059
:100D60000B8A82220511E4B51102051222AA8274AF
:100D7000302AFA24C6500A74072AFA3001034302C3
:100D8000208A82020D53E582FAC4540FF582C00214
:100D9000120D6DD002740F5AF582020D6DAA0CABC4
:100DA0000DAC0EAD0FAE10751720EE2EFEED2354D8
:100DB00001FF4206EA2AFAEB33FBEC33FCED33FD8C
:100DC000C3EE95134008EEC39513FE430201D517F9
:100DD000D98A0C8B0D8C0E8D0F8E1022784EE62446
:100DE000D075F00AA4FA784FE624D02AFA784D8616
:100DF00003BB2D04C3E49AFA751301C3E464808A2B
:100E0000F063F08095F050297517038A0374F62576
:100E100017401C0513E517142442F8E5172442F97E
:100E20008704A604772E1BEBFA6004051780DE8B7F
:100E300002EA30E70D784386037844A603784376C8
:100E40002E0AE515600AE51504FB2513F513800548
:100E5000300C02051378428603E4BB2D0104FB70BD
:100E6000062007033008020513300503020F233064
:100E70000657EB600C75822DC002120D53D0028014
:100E80001C30070C75822BC002120D53D002800D4E
:100E900030080A758220C002120D53D002784386B2
:100EA00004BC2E0C758230C002120D53D0021514F2
:100EB000AC141514C3E5139C4003020F6775823010
:100EC000C002120D53D00280E7AC141514C3E51311
:100ED0009C500C758220C002120D53D00280EA781B
:100EE000428604BC2D0C75822DC002120D53D00217
:100EF000801C30070C75822BC002120D53D002806B
:100F00000D30080A758220C002120D53D0027843BA
:100F10008604BC2E52758230C002120D53D00215C9
:100F2000148044EB600E75822DC002120D53D00266
:100F30001514802030070E75822BC002120D53D07D
:100F4000021514800F30080C758220C002120D5358
:100F5000D002151478438603BB2E0C758230C00274
:100F6000120D53D0021514751701C20EE517244255
:100F7000F88603BB4503021024BB2E348A03C3E466
:100F800064808BF063F08095F0500F758230C00361
:100F9000120D53D0031B8B0280E48B02D20EE51599
:100FA0007038200C0302102475822E120D538074A9
:100FB000300E278A03EB30E71FC3E464808515F009
:100FC00063F08095F0500C758230C003120D53D041
:100FD0000315150B8B0280DD8B02300E0EC3E4640B
:100FE000808515F063F08095F05021E5172442F8D4
:100FF00086038B82C002120D53D002300E0EE5170D
:101000002442F88603BB2E02800215151514C3E492
:1010100064808515F063F08095F04003200E05058F
:1010200017020F6CC3E464808515F063F08095F0BF
:10103000500A758230120D53151580E830050FAA3D
:10104000141514EA6008758220120D5380F122E510
:10105000157003300C0D74072515FAE514C39AF5C5
:10106000148006E51424FAF51475170078428602F8
:10107000BA2B0F20070C784276202008057517013F
:101080000514200519AA14C3E464808AF063F08073
:1010900095F0500A758220120D53151480E7C20E88
:1010A000E5172442F88602BA00028069BA451F306B
:1010B00001027665C3E464808515F063F08095F0E5
:1010C000500A758230120D53151580E8D20EC3E513
:1010D000179402E433FA7014EA700EC3E464808556
:1010E00015F063F08095F04003300E16E5172442AA
:1010F000F886028A82120D53E51724FD5012151549
:10110000800E7402B51709300C0675822E120D532D
:1011100005170210A0300519AA14C3E464808AF0F0
:1011200063F08095F0500A758220120D53151480DB
:10113000E72285820A85830BE4F511F512AA18AB24
:1011400019AC1A8A828B838CF01208F9FD74012A7B
:10115000F518E43BF5198C1AEDFA70030216D8BAAB
:10116000250280030216D0C205C206C207C208C209
:1011700009C20AC20BC20CC202C203C20475130028
:101180007514007515FFAB18AC19AD1A8B828C83E2
:101190008DF01208F9FAA3AB82AC838B188C198DF1
:1011A0001ABA25078A82120D5380928A06BE300031
:1011B000402E8A06EE24C6402774FFB51513E514A9
:1011C00075F00AA4FEEA24D02EF51470BFD2068072
:1011D000BBE51575F00AA4FEEA24D02EF51580AC07
:1011E000BA2E0A74FFB515A4751500809F8A06BE35
:1011F0006100400E8A06EE248540075302DFD201CB
:101200008002C201BA20028075BA230302128DBA8D
:101210002A03021292BA2B02805FBA2D028055BABD
:101220004202805FBA43030212D7BA440302141287
:10123000BA450302142CBA4603021428BA47030223
:101240001430BA4903021412BA4C02803BBA4E035E
:10125000021434BA4F03021419BA50030213ABBA82
:1012600053030212FBBA550302141EBA58030214A8
:101270002302145ED20502118CD20702118CD2080F
:1012800002118CD20A02118CD20B02118CD20C02E8
:10129000118C74FFB51520300A0BE51B14F8881B60
:1012A000861402118CE51B24FEF8881B860608862E
:1012B00007188E1402118C300A0BE51B14F8881BDA
:1012C000861502118CE51B24FEF8881B860608860D
:1012D00007188E1502118C300A0AE51B14F8881BBA
:1012E0008602800FE51B24FEF8881B86030886040F
:1012F000188B028A82120D53021463E51B24FDF839
:10130000881B860308860408860518188B0C8C0D2C
:101310008D0E8B828C838DF0121859AB82AC838B2F
:101320001674FFB5150385161520051DC3E5169522
:10133000145016E514C39516F514AB141514EB6090
:1013400008758220120D5380F1850C82850D8385EE
:101350000EF01208F9FBFA6029AB151515C3E46409
:10136000808BF063F08095F050188A82120D53AB99
:101370000CAC0DAD0E0BBB00010C8B0C8C0D8D0E4F
:1013800080C7200503021463C3E5169514400302C9
:101390001463E514C39516F514AB141514EB700320
:1013A000021463758220120D5380EEE51B24FDF8B4
:1013B000881B860308860408860518188B0C8C0D7C
:1013C0008D0EE50EFB30E7047A438013EB5460602A
:1013D000047A50800AEB30E6047A4980027A588A0F
:1013E00082C002120D5375823A120D53758230126B
:1013F0000D53758278120D53D002BA4902800BBA90
:1014000050028006850D82120D86850C82120D8693
:101410008051D20975130A804A75130880457513E7
:101420000A8040751310803BD2028037D20380338C
:10143000D204802FE51B24FDF8881B860308860450
:1014400008860518188B0C8C0D8D0E8B828C838D65
:10145000F0E511121840A3E51212184080058A82A7
:10146000120D53200206200303300470E51B24FCF8
:10147000F8881B860308860408860508860618185F
:10148000188B0C8C0D8D0E8E0FE50CE50DE50EE521
:101490000F8B828C838DF0EE12172174FFB515032C
:1014A000751506300427747F550FFB8B10E510EB84
:1014B0002BFB8B10E50E30E70674014510F510E5A7
:1014C0001024684006749925104002D203300306A8
:1014D00012104F02113D120DDC02113DE513700395
:1014E00002113D7B47300A2BE51B14F8881BE6FCF4
:1014F0003395E0FDFEFF8C0C8D0D8E0E8F0F2009B5
:101500005EAC0C7D007E007F008C0C8D0D8E0E8FEE
:101510000F804C300B1FE51B24FCF8881B86040849
:1015200086050886060886071818188C0C8D0D8EFF
:101530000E8F0F802AE51B24FEF8881B8604088680
:101540000518ED3395E0FEFF8C0C8D0D8E0E8F0F80
:1015500020090CAC0CAD0D7E007F008E0E8F0F307D
:101560000C43E50C450D450E450F60397408B51365
:101570000C758230C003120D53D00380287410B54F
:101580001323758230C003120D53D00330010C7544
:101590008278C003120D53D003800A758258C003AD
:1015A000120D53D003300925AC0CAD0DAE0EE50F76
:1015B000FF30E717C3E49CFCE49DFDE49EFEE49F3E
:1015C000FF8C0C8D0D8E0E8F0F8002C209751600D8
:1015D000D20D8B00751000C000120D9DD000200DA3
:1015E0000DE510C4FCE6FD4CF61888038002A61039
:1015F0000516B20DE50C450D450E450F70D6880356
:10160000E514700375140120061A200517E5160469
:10161000FCC39514500E758220C003120D53D003E5
:10162000151480E930090E75822DC003120D53D0B8
:101630000315148024E516602030070E75822BC038
:1016400003120D53D0031514800F30080C7582203F
:10165000C003120D53D003151420051EAC1415142D
:10166000C3E5169C50273006047C3080027C208C19
:1016700082C003120D53D00380E2C3E516951450C7
:1016800009E514C39516F51480037514008B00AB9F
:10169000161516EB6022B20D200D0A08E6C4540F91
:1016A000FB8B1080078603740F5BF510851082C0DA
:1016B00000120D6DD00080D720050302113DAB1440
:1016C0001514EB700302113D758220120D5380EE4C
:1016D0008A82120D5302113D85118285128322AA3E
:1016E00082BA0A0810990280FB75990D1099028040
:1016F000FB8A9922FCABF0AA83A982749EF582C270
:10170000D1EC30E716D2D1E9F42401F9EAF434003F
:10171000FAEBF43400FBECF43400FC120C95020CF0
:1017200046C0E0F84582458345F07009F5F0FBFCC2
:10173000FDFE0217EFE823A2F792E0F8A982AA8340
:10174000D2F7ABF07C007E07C3749798404074FFDB
:101750002EFE740A89F0A4F985F082740A8AF0A436
:10176000FA85F083740A8BF0A4FB740529F9EA3535
:1017700082FAEB3583FB740035F0FCC3EC13FCEB11
:1017800013FBEA13FAE913F908EC70EF80BAE8C327
:10179000947FF88B838EF0E4FBFCFDFEFF08C3E929
:1017A00033F9EA33FAE58333F583EB3BD4FBEC3CC6
:1017B000D4FCED3DD4FDEE3ED4FEEF3FD4FF602DD2
:1017C00005F074052BD4FBE43CD4FCE43DD4FDE4EB
:1017D0003ED4FEE43FD4FF758204C3EF13FFEE1343
:1017E000FEED13FDEC13FCEB13FBD582EDD8AF78C7
:1017F00042D0E020E704762B8002762D087906E7B8
:10180000C4540F4430F608B90603762E08E7540F87
:101810004430F60819B902E7764508E5F020E704F8
:10182000762B8004762DF4040875F00A844430F693
:1018300008E5F04430F608E4F690004275F04022E6
:1018400020F71030F6118883A88220F507F6A883C8
:1018500075830022F280F7F022AA82AB83ACF07D80
:10186000007E008A828B838CF01208F9FFA3AA8283
:10187000AB83EF60070DBD00EA0E80E78D828E839B
:101880002200000000000000000000000000000036
:00000001FF
