:10000000020003758189120159E582600302006FC5
:10001000780079007A007B007C007D00EC4D601C4C
:1000200088828983E493A3A882A9838A828B83F040
:10003000A3AA82AB831CBCFFE31D80E07582007520
:1000400083007C007D00EC4D600AE4F0A31CBCFF43
:10005000F51D80F27582007583007C007D00EC4DFB
:10006000600AE4F0A31CBCFFF51D80F212015812D7
:10007000040B80FE1B5B324A0041444320746573CD
:10008000742070726F6772616D0A46696C653A2000
:1000900025730A436F6D70696C65643A2025732C73
:1000A0002025730A0A00433A5C55736572735C71CC
:1000B000697579755C4F6E6544726976655C446FED
:1000C00063756D656E74735C4769744875625C4CEA
:1000D0004142355C6C61623576332E63004D61724E
:1000E00020203620323032340032313A32393A313F
:1000F00035000A706572696F643D25332E32660DD6
:10010000000A564050315F343D25372E3566562C57
:1001100020564050315F353D25372E3566560D004F
:100120000D0A646567726565733A2025660076720C
:100130003A2530342E326620663A2530342E316628
:10014000487A0076743A2530342E3266562070682C
:100150003A25332E306643002275A7007597DE7569
:1001600097AD75FF8075EF0675A71075C12075A74F
:100170000075A90075A900E5A930E7FB75A903750D
:10018000A903E5A930E7FB43A41075E10175E2007E
:1001900075E340759810858E8E758DE6858D8B5331
:1001A000890F438920D28ED2997582002275A700CB
:1001B000C2EF75B28075BC2075B91E75E80075DF99
:1001C0003F75B300D2EF22AA82438E407592B87574
:1001D00093FF8592948593957591047B00C3EB9A68
:1001E000500BE59130E7FB53917F0B80F075910048
:1001F00022AA82AB837C007D00C3EC9AED9B502B3E
:100200007E00BE0400501D7582FAC002C003C00407
:10021000C005C0061201C7D006D005D004D003D057
:10022000020E80DE0CBC00D10D80CE22D2A07582E1
:10023000281201C7C2A022AA828AE0A2E79290A255
:10024000E69291A2E59292A2E49293C00212022C4D
:100250007582281201C7D0028AE0A2E39290A2E23E
:100260009291A2E19292A2E0929302022CAA82D2EF
:10027000978A821202379000020201F1AA82C29785
:100280008A821202379000050201F1C2A090001488
:100290001201F175823312027C75823312027C7571
:1002A000823212027C75822812027C75820C120244
:1002B0007C75820112027C9000140201F1AA82ABCB
:1002C00083ACF07402B523047DC080027D808D82F2
:1002D000C002C003C00412027C9000051201F1D0DC
:1002E00004D003D0027D007E00ED2AFFEE3BF88CA7
:1002F000018F82888389F0120A09FF60208F82C0F3
:1003000002C003C004C005C00612026DD006D005AD
:10031000D004D003D0020DBD00CF0E80CC3000241D
:100320008D028E03C3EA9410EB648094805015759F
:100330008220C002C00312026DD003D0020ABA00AC
:10034000E30B80E0225389F0438901C28C22AA8208
:100350008511F005F07401800225E0D5F0FBFB75F6
:10036000A720BA0002800ABA0102800FBA021E80DA
:1003700014EBF4FA52F1EB42D48012EBF4FA52F29D
:10038000EB42D58008EBF4FA52F3EB42CC75A700B0
:10039000228582BBC2EDD2EC30EDFD85BD8285BEEB
:1003A0008322120391120A25AA82AB83ACF0FDC00E
:1003B00002C003C004C00590923A75F05374401215
:1003C0000A91AA82AB83ACF0FDE58124FCF581E4BF
:1003D000C0E074FCC0E0747FC0E07446C0E08A8274
:1003E0008B838CF0ED120C70AA82AB83ACF0FDE530
:1003F0008124FCF5818A828B838CF0ED22C2EDD2C0
:10040000EC30EDFD85BD8285BE8322752400752507
:1004100000752600752700752A00752B00752C00C5
:10042000752D00752E00752F007530007531007523
:100430003600753700753800753900120345120211
:100440008B9001F41201F17474C0E07400C0E07488
:1004500080C0E0120BAD15811581158174E9C0E0F3
:100460007400C0E07480C0E074DDC0E07400C0E0DF
:100470007480C0E074A6C0E07400C0E07480C0E086
:100480007479C0E07400C0E07480C0E0120BADE588
:100490008124F4F58175110475820112034E7511E2
:1004A0000575820112034E1201ADE4F528F529C34A
:1004B000E528940AE52964809480400302060C75BF
:1004C0008A00758C00C28D7522002081FD3081FD6F
:1004D000D28C308109108D0280F8052280F42081B1
:1004E00009108D0280F8052280F4C28C85228212C8
:1004F0000B34AE82AF83AAF0FBC006C007C002C0B7
:100500000390000075F0807447120A9185823A8545
:10051000833B85F03CF53DE58124FCF581858C82AB
:10052000120B34AE82AF83AAF0FBC006C007C00234
:10053000C00390000075F0807443120A91AA82AB48
:1005400083ACF0FDE58124FCF581C002C003C0044A
:10055000C005853A82853B83853CF0E53D120B3F23
:1005600085823A85833B85F03CF53DE58124FCF5A9
:1005700081AE8A7F008E828F83120C63AE82AF833E
:10058000AAF0FBC006C007C002C003853A82853BC3
:1005900083853CF0E53D120B3FAA82AB83ACF0FDB6
:1005A000E58124FCF581C002C003C004C00590F4BD
:1005B000FC75F0327434120A91AA82AB83ACF0FD60
:1005C000E58124FCF581C002C003C004C005C0243D
:1005D000C025C026C0278A828B838CF0ED120A3199
:1005E000AE82E58124FCF581D005D004D003D00291
:1005F000EE60088A248B258C268D2790000112013D
:10060000F10528E4B5280205290204AF7A007B0031
:10061000C3EA9414EB6480948040030206EE758272
:100620000AC002C0031203A2AC82AD83AEF0FF7811
:1006300050A60408A60508A60608A60775820B1290
:1006400003A2AC82AD83AEF0FF7854A60408A605E1
:1006500008A60608A60778508604088605088606B8
:10066000088607C004C005C006C007852A82852BFE
:1006700083852CF0E52D120A61AC82E58124FCF51E
:1006800081D003D002EC600D7850862A08862B08B2
:10069000862C08862D785486040886050886060868
:1006A0008607C002C003C004C005C006C007852E6F
:1006B00082852F838530F0E531120A61AC82E581B5
:1006C00024FCF581D003D002EC600D7854862E080E
:1006D000862F088630088631900001C002C00312C0
:1006E00001F1D003D0020ABA00010B020610C024A7
:1006F000C025C026C02790000075F07A7444120A05
:1007000091AA82AB83ACF0FDE58124FCF581C002A7
:10071000C003C004C00574F2C0E07400C0E074807F
:10072000C0E0120BADE58124F9F581C02EC02FC0C9
:1007300030C031C02AC02BC02CC02D7401C0E07461
:1007400001C0E07480C0E0120BADE58124F5F581B5
:1007500020A6232081033082FA30810E7536007581
:10076000370075388075393F800C75360075370055
:100770007538807539BF9000011201F1758A0075D6
:100780008C00C28D7522002081FD3081FD308115E5
:1007900020820E30810BD28C108D0280F3052280D6
:1007A000EFC28C80E8852282120B34AA82AB83AC24
:1007B000F0FDC002C003C004C00590000075F080C9
:1007C0007447120A9185823A85833B85F03CF53D5A
:1007D000E58124FCF581858C82120B34AE82AF83D7
:1007E000AAF0FBC006C007C002C00390000075F06D
:1007F000807443120A91AA82AB83ACF0FDE5812498
:10080000FCF581C002C003C004C005853A82853B67
:1008100083853CF0E53D120B3F85823A85833B851D
:10082000F03CF53DE58124FCF581AE8A7F008E82A7
:100830008F83120C63AE82AF83AAF0FBC006C007A1
:10084000C002C003853A82853B83853CF0E53D12BA
:100850000B3FAA82AB83ACF0FDE58124FCF581C09F
:1008600002C003C004C00590F4FC75F03274341269
:100870000A91AA82AB83ACF0FDE58124FCF581C02E
:1008800002C003C004C0058536828537838538F0F1
:10089000E539120A91AA82AB83ACF0FDE58124FC14
:1008A000F581C002C003C004C00590000075F0B41B
:1008B0007443120A91AA82AB83ACF0FDE58124FC5B
:1008C000F581C024C025C026C0278A828B838CF086
:1008D000ED120C7085823285833385F034F535E571
:1008E0008124FCF581C032C033C034C0357420C0CF
:1008F000E07401C0E07480C0E0120BADE58124F922
:10090000F58130A603020A00C024C025C026C027F6
:1009100090000075F080743F120C7085823A8583D8
:100920003B85F03CF53DE58124FCF5817449C0E050
:100930007413C0E07492C0E0743FC0E0852A8285E1
:100940002B83852CF0E52D120C70AC82AD83AAF0C0
:10095000FBE58124FCF581C03AC03BC03CC03DC0F2
:1009600004C005C002C003742EC0E07401C0E0746E
:1009700080C0E07458C0E07400C0E07440C0E01271
:100980000C1DE58124F2F581752301C20090005809
:1009900075F0401202BD7449C0E07413C0E0749257
:1009A000C0E0743FC0E0852E82852F838530F0E55E
:1009B00031120C70AA82AB83ACF0FDE58124FCF50A
:1009C00081C032C033C034C035C002C003C004C0CF
:1009D000057443C0E07401C0E07480C0E07469C075
:1009E000E07400C0E07440C0E0120C1DE58124F208
:1009F000F581752302C20090006975F0401202BDB6
:100A00009001F41201F10204AA20F71430F61488C0
:100A100083A88220F507E6A88375830022E280F789
:100A2000E49322E022E4AC83AB82FAF9748E020DE7
:100A300098FFA8811818120DC0D2D133E6400730B4
:100A4000E70B7582012220E70675820022C2D112CF
:100A50000DA2E97003F5822230D101B3E433F582AF
:100A600022FFA8811818120DC0D2D133E6400730FA
:100A7000E70B7582002220E70675820122C2D1129F
:100A80000DA2E97003F5822220D101B3E433F5828F
:100A900022120E6DBC0003020E0CEF60FA30D5027C
:100AA000B2D1E583B4FF03020E22E582B4FF030254
:100AB0000E22258340072482400B020E0C2483144F
:100AC0005003020E22F582EA8DF0A4A8F0EA8EF01F
:100AD000A428F8E435F0F9EB8DF0A428E935F0F915
:100AE000E433CA8FF0A429F9EA35F0FAEBF88EF076
:100AF000A429F9EA35F0FAE433FBEC8DF0A429F9E6
:100B0000EA35F0FAE43BFBE88FF0A42AFAEB35F083
:100B1000FBE433CCFD8EF0A42AFAEB35F0FBE43C89
:100B2000FCED8FF0A42BFBEC35F0FC20E703120E5C
:100B30003A020DEBE4AC82FBFAF97486020D9812CE
:100B40000E6D7900E583B58202800D5003120E9B75
:100B5000E583C39582120EB5E5D0C465D020E117B8
:100B6000EA2DFAEB3EFBEC3FFC50097401120EB586
:100B7000EC4480FC020DEBC3EA9DFAEB9EFBEC9F7C
:100B8000FC500FC3E499F9E49AFAE49BFBE49CFC63
:100B9000B2D1120E3A020DEB02188485824C858385
:100BA0004D85F04E85104F900B980212D7C00885E6
:100BB0008108E50824FBF54FE50824FBF8864C087E
:100BC000864D08864E900B981212D7D00822AA8222
:100BD000AB09AC0AAD0B8B828C838DF0EA121899AD
:100BE0000509E4B50902050A2285820985830A857B
:100BF000F00B850C4C850D4D850E4E850F4F900BDF
:100C0000CE1212D7AA82AB83AC09AD0AAE0B8C828E
:100C10008D838EF0E41218998A828B8322C0088516
:100C20008108E50824F8F54FE50824FBF886090853
:100C3000860A08860BE50824F8F8864C08864D08D5
:100C4000864E900BCE1212D7AA82AB83AC09AD0AA6
:100C5000AE0B8C828D838EF0E41218998A828B837E
:100C6000D00822AC83AB827A007900748E0218BB64
:100C7000120E6D30D502B2D1BF0009BC0003020EC6
:100C80002F020E22BC0003020E0CE583B4FF0BE51D
:100C900082B4FF03020E2F020E0CE582B4FF0302A2
:100CA0000E22C395835007247F400B020E0C248034
:100CB000145003020E22C0E0E4CCCBCAF98D118E91
:100CC000128F13EF54F0C4F5147583068514F0EBFE
:100CD00084F582E9C4F9EAC4FAEBC4FBEC540FC40E
:100CE0007803D6FC18EBD6FB18EAD6FA8582F0ED2D
:100CF000A4A8F0FD8582F0EEA428FEE435F0F88586
:100D000082F0EFA428FFE435F0F8E99DF9EA9EFAB5
:100D1000EB9FFBEC98FCAD11AE12AF1330E7101552
:100D200082E92DF9EA3EFAEB3FFBE43CFC80EDC0A2
:100D300082D58398C3E933F9EA33FAEB33FBEC331A
:100D4000FCC3E99DEA9EEB9FEC9400B3E413F9D059
:100D500002D0E0C44AFAD003D0E0C44BFBD004D0A8
:100D6000E0F5F0540FC44CFCD082158230F40FD360
:100D7000EC13FCEB13FBEA13FAE913F90582E930F3
:100D8000E70A74012AFAE43BFBE43CFC020E03FC94
:100D9000ABF0AA83A982749EC2D1F582120E3A02E8
:100DA0000DEB7901AA82E68F82B5821318E6B5F0C1
:100DB0000E18E6B5830918E68A82B5820279002208
:100DC000B4800FE5F0700AE5837006E58270027F5B
:100DD00000EFB6801518B6001018B6000B18B60054
:100DE0000608080876002208080822B98003EA13DA
:100DF000B34010EA2401FAE43BFBE43CFC50047CE1
:100E0000800582BC000EBB000BBA0008E4F5F0F5CB
:100E100083F58222A2D1E582138CF092F78B838A2C
:100E20008222E4F583F58275F080F4A2D11322E4E6
:100E3000F583F58275F0C0747F227804EC7011E5BB
:100E40008224F8500AF582E4C9CACBFCD8EF22EC20
:100E50007820058220E713D5820122C3E933F9EA1D
:100E600033FAEB33FBEC33FCD8EA158222AA82ABCF
:100E700083A2F73392D16002D2F7F582ACF0E5811C
:100E800024F9F8E6FD08E6FE0886F008E6A2F73346
:100E900092D56002D2F7F583AFF022E582C583F5E3
:100EA00082A2D133A2D592D11392D5ECCFFCEBCE56
:100EB000FBEACDFA226040F82582500274FFF582E9
:100EC000E824F8501ECCCBCAF9E4CC24F85014CB5B
:100ED000CAF9E4CB24F8500BCAF9E4CA24F8500349
:100EE00079002224086010F8C3EC13FCEB13FBEA32
:100EF00013FAE913F9D8F122AA827409C0E0740F39
:100F0000C0E0C03EC03F8A82220545E4B5450205E7
:100F10004622AA8274302AFA24C6500A74072AFA92
:100F20003001034302208A82020EF8E582FAC4549B
:100F30000FF582C002120F12D002740F5AF582020E
:100F40000F12AA40AB41AC42AD43AE44754B20EE0C
:100F50002EFEED235401FF4206EA2AFAEB33FBECA6
:100F600033FCED33FDC3EE95474008EEC39547FED5
:100F7000430201D54BD98A408B418C428D438E442C
:100F8000227886E624D075F00AA4FA7887E624D081
:100F90002AFA78858603BB2D04C3E49AFA754701C3
:100FA000C3E464808AF063F08095F05029754B03A8
:100FB0008A0374F6254B401C0547E54B14247AF848
:100FC000E54B247AF98704A604772E1BEBFA60041C
:100FD000054B80DE8B02EA30E70D787B8603787C58
:100FE000A603787B762E0AE549600AE54904FB25CD
:100FF00047F5478005300C020547787A8603E4BB45
:101000002D0104FB70062007033008020547300558
:10101000030210C8300657EB600C75822DC0021217
:101020000EF8D002801C30070C75822BC002120E05
:10103000F8D002800D30080A758220C002120EF826
:10104000D002787B8604BC2E0C758230C002120E52
:10105000F8D0021548AC481548C3E5479C40030248
:10106000110C758230C002120EF8D00280E7AC4835
:101070001548C3E5479C500C758220C002120EF83B
:10108000D00280EA787A8604BC2D0C75822DC002CD
:10109000120EF8D002801C30070C75822BC0021291
:1010A0000EF8D002800D30080A758220C002120EA0
:1010B000F8D002787B8604BC2E52758230C00212B2
:1010C0000EF8D00215488044EB600E75822DC002E8
:1010D000120EF8D0021548802030070E75822BC002
:1010E00002120EF8D0021548800F30080C758220CD
:1010F000C002120EF8D0021548787B8603BB2E0C76
:10110000758230C002120EF8D0021548754B01C22C
:101110000EE54B247AF88603BB45030211C9BB2EAA
:10112000348A03C3E464808BF063F08095F0500F41
:10113000758230C003120EF8D0031B8B0280E48B43
:1011400002D20EE5497038200C030211C975822EB7
:10115000120EF88074300E278A03EB30E71FC3E4C9
:1011600064808549F063F08095F0500C758230C042
:1011700003120EF8D00315490B8B0280DD8B023071
:101180000E0EC3E464808549F063F08095F0502131
:10119000E54B247AF886038B82C002120EF8D00247
:1011A000300E0EE54B247AF88603BB2E0280021522
:1011B000491548C3E464808549F063F08095F040A8
:1011C00003200E05054B021111C3E464808549F02C
:1011D00063F08095F0500A758230120EF815498040
:1011E000E830050FAA481548EA6008758220120EFB
:1011F000F880F122E5497003300C0D74072549FA97
:10120000E548C39AF5488006E54824FAF548754B49
:1012100000787A8602BA2B0F20070C787A76202085
:101220000805754B010548200519AA48C3E46480E8
:101230008AF063F08095F0500A758220120EF8153E
:101240004880E7C20EE54B247AF88602BA00028095
:1012500069BA451F3001027665C3E464808549F0B0
:1012600063F08095F0500A758230120EF8154980AF
:10127000E8D20EC3E54B9402E433FA7014EA700E20
:10128000C3E464808549F063F08095F04003300E3C
:1012900016E54B247AF886028A82120EF8E54B2472
:1012A000FD50121549800E7402B54B09300C0675BD
:1012B000822E120EF8054B021245300519AA48C3BA
:1012C000E464808AF063F08095F0500A7582201201
:1012D0000EF8154880E72285823E85833FE4F54578
:1012E000F546AA4CAB4DAC4E8A828B838CF0120A29
:1012F00009FD74012AF54CE43BF54D8C4EEDFA7076
:101300000302187DBA25028003021875C205C206C1
:10131000C207C208C209C20AC20BC20CC202C2037F
:10132000C2047547007548007549FFAB4CAC4DAD24
:101330004E8B828C838DF0120A09FAA3AB82AC83A8
:101340008B4C8C4D8D4EBA25078A82120EF88092F6
:101350008A06BE3000402E8A06EE24C6402774FF5F
:10136000B54913E54875F00AA4FEEA24D02EF548E5
:1013700070BFD20680BBE54975F00AA4FEEA24D00E
:101380002EF54980ACBA2E0A74FFB549A475490000
:10139000809F8A06BE6100400E8A06EE24854007C3
:1013A0005302DFD2018002C201BA20028075BA2343
:1013B00003021432BA2A03021437BA2B02805FBA2E
:1013C0002D028055BA4202805FBA430302147CBAF0
:1013D00044030215B7BA45030215D1BA46030215F4
:1013E000CDBA47030215D5BA49030215B7BA4C0264
:1013F000803BBA4E030215D9BA4F030215BEBA504C
:1014000003021550BA53030214A0BA55030215C3C0
:10141000BA58030215C8021603D205021331D207C7
:10142000021331D208021331D20A021331D20B0255
:101430001331D20C02133174FFB54920300A0BE589
:101440004F14F8884F8648021331E54F24FEF88880
:101450004F8606088607188E48021331300A0BE5BE
:101460004F14F8884F8649021331E54F24FEF8885F
:101470004F8606088607188E49021331300A0AE59E
:101480004F14F8884F8602800FE54F24FEF8884FEE
:101490008603088604188B028A82120EF802160848
:1014A000E54F24FDF8884F86030886040886051852
:1014B000188B408C418D428B828C838DF01219FEEB
:1014C000AB82AC838B4A74FFB54903854A4920053A
:1014D0001DC3E54A95485016E548C3954AF548AB03
:1014E000481548EB6008758220120EF880F185409F
:1014F000828541838542F0120A09FBFA6029AB49D3
:101500001549C3E464808BF063F08095F050188A2D
:1015100082120EF8AB40AC41AD420BBB00010C8B0C
:10152000408C418D4280C7200503021608C3E54A5E
:1015300095484003021608E548C3954AF548AB486C
:101540001548EB7003021608758220120EF880EE23
:10155000E54F24FDF8884F860308860408860518A1
:10156000188B408C418D42E542FB30E7047A438082
:1015700013EB546060047A50800AEB30E6047A4939
:1015800080027A588A82C002120EF875823A120ED0
:10159000F8758230120EF8758278120EF8D002BA01
:1015A0004902800BBA50028006854182120F2B85BA
:1015B0004082120F2B8051D20975470A804A754725
:1015C00008804575470A8040754710803BD20280ED
:1015D00037D2038033D204802FE54F24FDF8884FA3
:1015E000860308860408860518188B408C418D42B6
:1015F0008B828C838DF0E545121899A3E54612186D
:101600009980058A82120EF8200206200303300416
:1016100070E54F24FCF8884F860308860408860589
:101620000886061818188B408C418D428E43E54081
:10163000E541E542E5438B828C838DF0EE1218DFA5
:1016400074FFB54903754906300427747F5543FB81
:101650008B44E544EB2BFB8B44E54230E7067401F9
:101660004544F544E5442468400674992544400205
:10167000D2033003061211F40212E2120F81021299
:10168000E2E54770030212E27B7F300A2BE54F143C
:10169000F8884FE6FC3395E0FDFEFF8C408D418ECF
:1016A000428F4320095EAC407D007E007F008C406D
:1016B0008D418E428F43804C300B1FE54F24FCF848
:1016C000884F8604088605088606088607181818B5
:1016D0008C408D418E428F43802AE54F24FEF8884E
:1016E0004F860408860518ED3395E0FEFF8C408D8B
:1016F000418E428F4320090CAC40AD417E007F00FB
:101700008E428F43300C43E540454145424543609E
:10171000397408B5470C758230C003120EF8D00337
:1017200080287410B54723758230C003120EF8D09C
:101730000330010C758278C003120EF8D003800AC2
:10174000758258C003120EF8D003300925AC40ADA5
:1017500041AE42E543FF30E717C3E49CFCE49DFD46
:10176000E49EFEE49FFF8C408D418E428F438002B9
:10177000C209754A00D20D8B00754400C000120FDB
:1017800042D000200D0DE544C4FCE6FD4CF618885F
:10179000038002A644054AB20DE540454145424555
:1017A0004370D68803E548700375480120061A2067
:1017B0000517E54A04FCC39548500E758220C00306
:1017C000120EF8D003154880E930090E75822DC03D
:1017D00003120EF8D00315488024E54A6020300734
:1017E0000E75822BC003120EF8D0031548800F30FF
:1017F000080C758220C003120EF8D003154820058E
:101800001EAC481548C3E54A9C50273006047C307E
:1018100080027C208C82C003120EF8D00380E2C3C9
:10182000E54A95485009E548C3954AF5488003754F
:1018300048008B00AB4A154AEB6022B20D200D0A1E
:1018400008E6C4540FFB8B4480078603740F5BF5D6
:1018500044854482C000120F12D00080D7200503B7
:101860000212E2AB481548EB70030212E2758220C7
:10187000120EF880EE8A82120EF80212E28545827C
:1018800085468322AA82BA0A0810990280FB7599BC
:101890000D10990280FB8A992220F71030F61188EA
:1018A00083A88220F507F6A88375830022F280F7CB
:1018B000F022FCABF0AA83A982749EF582C2D1EC1F
:1018C00030E716D2D1E9F42401F9EAF43400FAEB56
:1018D000F43400FBECF43400FC120E3A020DEBC0C1
:1018E000E0F84582458345F07009F5F0FBFCFDFE0C
:1018F0000219ADE823A2F792E0F8A982AA83D2F7F1
:10190000ABF07C007E07C3749798404074FF2EFEB6
:10191000740A89F0A4F985F082740A8AF0A4FA8521
:10192000F083740A8BF0A4FB740529F9EA3582FA76
:10193000EB3583FB740035F0FCC3EC13FCEB13FBBD
:10194000EA13FAE913F908EC70EF80BAE8C3947F60
:10195000F88B838EF0E4FBFCFDFEFF08C3E933F94E
:10196000EA33FAE58333F583EB3BD4FBEC3CD4FC60
:10197000ED3DD4FDEE3ED4FEEF3FD4FF602D05F0EB
:1019800074052BD4FBE43CD4FCE43DD4FDE43ED40C
:10199000FEE43FD4FF758204C3EF13FFEE13FEEDA8
:1019A00013FDEC13FCEB13FBD582EDD8AF787AD0A6
:1019B000E020E704762B8002762D087906E7C454F0
:1019C0000F4430F608B90603762E08E7540F44306A
:1019D000F60819B902E7764508E5F020E704762B0A
:1019E0008004762DF4040875F00A844430F608E586
:1019F000F04430F608E4F690007A75F04022AA82AE
:101A0000AB83ACF07D007E008A828B838CF0120A5F
:101A100009FFA3AA82AB83EF60070DBD00EA0E8029
:101A2000E78D828E8322000000000000000000008D
:00000001FF
