:1000000002000375814F120131E582600302006F27
:10001000780079007A007B007C007D00EC4D601C4C
:1000200088828983E493A3A882A9838A828B83F040
:10003000A3AA82AB831CBCFFE31D80E07582007520
:1000400083007C007D00EC4D600AE4F0A31CBCFF43
:10005000F51D80F27582007583007C007D00EC4DFB
:10006000600AE4F0A31CBCFFF51D80F212013012FF
:1000700003E380FE1B5B324A0041444320746573F6
:10008000742070726F6772616D0A46696C653A2000
:1000900025730A436F6D70696C65643A2025732C73
:1000A0002025730A0A00443A5C636C6F6E655C4CF1
:1000B0004142355C6C61623576312E63004D617270
:1000C00020203620323032340031313A33323A3463
:1000D000370076723A2020202020663A2020202007
:1000E000487A0076743A20202020207068613A20F7
:1000F000202020000A706572696F643D25332E321E
:10010000660D000A564050315F343D25372E356666
:10011000562C20564050315F353D25372E356656DA
:100120000D000D0A646567726565733A20256600E7
:100130002275A7007597DE7597AD75FF8075EF0680
:1001400075A71075C12075A70075A90075A900E5F0
:10015000A930E7FB75A90375A903E5A930E7FB43BF
:10016000A41075E10175E20075E340759810858E65
:100170008E758DE6858D8B53890F438920D28ED263
:10018000997582002275A700C2EF75B28075BC20F8
:1001900075B91E75E80075DF3F75B300D2EF22AA6E
:1001A00082438E407592B87593FF8592948593959E
:1001B0007591047B00C3EB9A500BE59130E7FB533C
:1001C000917F0B80F075910022AA82AB837C007D29
:1001D00000C3EC9AED9B502B7E00BE0400501D75B1
:1001E00082FAC002C003C004C005C00612019FD03D
:1001F00006D005D004D003D0020E80DE0CBC00D1A6
:100200000D80CE22D2A075822812019FC2A022AA00
:10021000828AE0A2E79290A2E69291A2E59292A24F
:10022000E49293C00212020475822812019FD00248
:100230008AE0A2E39290A2E29291A2E19292A2E0DD
:100240009293020204AA82D2978A8212020F90002D
:10025000020201C9AA82C2978A8212020F90000587
:100260000201C9C2A09000141201C97582331202A2
:1002700054758233120254758232120254758228E8
:1002800012025475820C12025475820112025490AB
:1002900000140201C9AA82AB83ACF07402B50A044F
:1002A0007DC080027D808D82C002C003C004120226
:1002B000549000051201C9D004D003D0027D007E05
:1002C00000ED2AFFEE3BF88C018F82888389F012C3
:1002D000089DFF60208F82C002C003C004C005C01B
:1002E00006120245D006D005D004D003D0020DBDC1
:1002F00000CF0E80CC3000248D028E03C3EA941010
:10030000EB648094805015758220C002C0031202F5
:1003100045D003D0020ABA00E30B80E0225389F0F3
:10032000438901C28C22AA828534F005F0740180D1
:100330000225E0D5F0FBFB75A720BA0002800ABABF
:100340000102800FBA021E8014EBF4FA52F1EB4264
:10035000D48012EBF4FA52F2EB42D58008EBF4FAB7
:1003600052F3EB42CC75A700228582BBC2EDD2ECE2
:1003700030EDFD85BD8285BE83221203691208B966
:10038000AA82AB83ACF0FDC002C003C004C00590DC
:10039000923A75F0537440120925AA82AB83ACF0EF
:1003A000FDE58124FCF581E4C0E074FCC0E0747FCD
:1003B000C0E07446C0E08A828B838CF0ED120A6F35
:1003C000AA82AB83ACF0FDE58124FCF5818A828BA7
:1003D000838CF0ED22C2EDD2EC30EDFD85BD82853F
:1003E000BE8322750B00750C00750D00750E00752F
:1003F000110075120075130075140075150075163F
:100400000075170075180012031D1202639001F4A5
:100410001201C97474C0E07400C0E07480C0E012BE
:100420000A4115811581158174C9C0E07400C0E0CE
:100430007480C0E074BDC0E07400C0E07480C0E0AF
:1004400074A6C0E07400C0E07480C0E07479C0E0BD
:100450007400C0E07480C0E0120A41E58124F4F524
:100460008175340475820112032675340575820185
:10047000120326120185750A01D2009000D275F090
:1004800080120295750A02D2009000E375F0801286
:100490000295E4F50FF510C3E50F940AE5106480AA
:1004A000948040030205F4758A00758C00C28D7536
:1004B00009002081FD3081FDD28C308109108D0230
:1004C00080F8050980F4208109108D0280F8050963
:1004D00080F4C28C8509821209C8AE82AF83AAF06B
:1004E000FBC006C007C002C00390000075F0807416
:1004F0004712092585821985831A85F01BF51CE5AD
:100500008124FCF581858C821209C8AE82AF83AA52
:10051000F0FBC006C007C002C00390000075F08069
:100520007443120925AA82AB83ACF0FDE58124FC5B
:10053000F581C002C003C004C005851982851A83F5
:10054000851BF0E51C1209D385821985831A85F075
:100550001BF51CE58124FCF581AE8A7F008E828F1D
:1005600083120A62AE82AF83AAF0FBC006C007C046
:1005700002C003851982851A83851BF0E51C1209C8
:10058000D3AA82AB83ACF0FDE58124FCF581C002E7
:10059000C003C004C00590F4FC75F0327434120935
:1005A00025AA82AB83ACF0FDE58124FCF581C00275
:1005B000C003C004C005C00BC00CC00DC00E8A82B1
:1005C0008B838CF0ED1208C5AE82E58124FCF581A9
:1005D000D005D004D003D002EE60088A0B8B0C8CBF
:1005E0000D8D0E9000011201C9050FE4B50F020533
:1005F000100204977A007B00C3EA9414EB648094A1
:100600008040030206D675820AC002C00312037A34
:10061000AC82AD83AEF0FF7838A60408A60508A624
:100620000608A60775820B12037AAC82AD83AEF082
:10063000FF783CA60408A60508A60608A607783891
:100640008604088605088606088607C004C005C01B
:1006500006C0078511828512838513F0E514120800
:10066000F5AC82E58124FCF581D003D002EC600D6D
:1006700078388611088612088613088614783C8616
:1006800004088605088606088607C002C003C00461
:10069000C005C006C0078515828516838517F0E55D
:1006A000181208F5AC82E58124FCF581D003D00254
:1006B000EC600D783C8615088616088617088618A3
:1006C000900001C002C0031201C9D003D0020ABACF
:1006D00000010B0205F8C00BC00CC00DC00E90004D
:1006E0000075F07A7444120925AA82AB83ACF0FD40
:1006F000E58124FCF581C002C003C004C00574F488
:10070000C0E07400C0E07480C0E0120A41E58124BA
:10071000F9F581C015C016C017C018C011C012C0AD
:1007200013C0147403C0E07401C0E07480C0E01210
:100730000A41E58124F5F581758A00758C00C28D2A
:100740007509002081FD3081FD30811220820BD29D
:100750008C108D0280F6050980F2C28C80EB850931
:10076000821209C8AA82AB83ACF0FDC002C003C0EC
:1007700004C00590000075F0807447120925858239
:100780001985831A85F01BF51CE58124FCF581850C
:100790008C821209C8AE82AF83AAF0FBC006C007E4
:1007A000C002C00390000075F0807443120925AAAE
:1007B00082AB83ACF0FDE58124FCF581C002C0036F
:1007C000C004C005851982851A83851BF0E51C12BB
:1007D00009D385821985831A85F01BF51CE58124D0
:1007E000FCF581AE8A7F008E828F83120A62AE8210
:1007F000AF83AAF0FBC006C007C002C00385198200
:10080000851A83851BF0E51C1209D3AA82AB83AC41
:10081000F0FDE58124FCF581C002C003C004C005E1
:1008200090F4FC75F0327434120925AA82AB83ACC3
:10083000F0FDE58124FCF581C002C003C004C005C1
:1008400090000075F0B47443120925AA82AB83AC02
:10085000F0FDE58124FCF581C00BC00CC00DC00E7D
:100860008A828B838CF0ED120A6FAA82AB83ACF084
:10087000FDE58124FCF581C002C003C004C00574FD
:1008800022C0E07401C0E07480C0E0120A41E5813A
:1008900024F9F5819001F41201C902049220F714A1
:1008A00030F6148883A88220F507E6A883758300B4
:1008B00022E280F7E49322E022E4AC83AB82FAF9EF
:1008C000748E020B97FFA8811818120BBFD2D13378
:1008D000E6400730E70B7582012220E706758200AB
:1008E00022C2D1120BA1E97003F5822230D101B3EB
:1008F000E433F58222FFA8811818120BBFD2D1333E
:10090000E6400730E70B7582002220E7067582017A
:1009100022C2D1120BA1E97003F5822220D101B3CA
:10092000E433F58222120C6CBC0003020C0BEF6066
:10093000FA30D502B2D1E583B4FF03020C21E5827F
:10094000B4FF03020C21258340072482400B020CD4
:100950000B2483145003020C21F582EA8DF0A4A825
:10096000F0EA8EF0A428F8E435F0F9EB8DF0A42835
:10097000E935F0F9E433CA8FF0A429F9EA35F0FA41
:10098000EBF88EF0A429F9EA35F0FAE433FBEC8DAC
:10099000F0A429F9EA35F0FAE43BFBE88FF0A42A49
:1009A000FAEB35F0FBE433CCFD8EF0A42AFAEB35FC
:1009B000F0FBE43CFCED8FF0A42BFBEC35F0FC20CD
:1009C000E703120C39020BEAE4AC82FBFAF97486F5
:1009D000020B97120C6C7900E583B58202800D50F2
:1009E00003120C9AE583C39582120CB4E5D0C4655A
:1009F000D020E117EA2DFAEB3EFBEC3FFC500974E6
:100A000001120CB4EC4480FC020BEAC3EA9DFAEB41
:100A10009EFBEC9FFC500FC3E499F9E49AFAE49B27
:100A2000FBE49CFCB2D1120C39020BEA021683855E
:100A3000823085833185F032851D33900A2C021077
:100A4000D6C008858108E50824FBF533E50824FBBA
:100A5000F88630088631088632900A2C1210D6D0DB
:100A60000822AC83AB827A007900748E0216A11240
:100A70000C6C30D502B2D1BF0009BC0003020C2EB1
:100A8000020C21BC0003020C0BE583B4FF0BE582D2
:100A9000B4FF03020C2E020C0BE582B4FF03020C20
:100AA00021C395835007247F400B020C0B24801434
:100AB0005003020C21C0E0E4CCCBCAF98D348E3552
:100AC0008F36EF54F0C4F5377583068537F0EB8425
:100AD000F582E9C4F9EAC4FAEBC4FBEC540FC4781C
:100AE00003D6FC18EBD6FB18EAD6FA8582F0EDA403
:100AF000A8F0FD8582F0EEA428FEE435F0F88582AA
:100B0000F0EFA428FFE435F0F8E99DF9EA9EFAEB4E
:100B10009FFBEC98FCAD34AE35AF3630E710158254
:100B2000E92DF9EA3EFAEB3FFBE43CFC80EDC082A4
:100B3000D58398C3E933F9EA33FAEB33FBEC33FCA2
:100B4000C3E99DEA9EEB9FEC9400B3E413F9D00255
:100B5000D0E0C44AFAD003D0E0C44BFBD004D0E0CC
:100B6000F5F0540FC44CFCD082158230F40FD3EC56
:100B700013FCEB13FBEA13FAE913F90582E930E7FA
:100B80000A74012AFAE43BFBE43CFC020C02FCABD5
:100B9000F0AA83A982749EC2D1F582120C39020B8D
:100BA000EA7901AA82E68F82B5821318E6B5F00EC3
:100BB00018E6B5830918E68A82B58202790022B464
:100BC000800FE5F0700AE5837006E58270027F0011
:100BD000EFB6801518B6001018B6000B18B6000650
:100BE00008080876002208080822B98003EA13B32F
:100BF0004010EA2401FAE43BFBE43CFC50047C8016
:100C00000582BC000EBB000BBA0008E4F5F0F583CA
:100C1000F58222A2D1E582138CF092F78B838A822F
:100C200022E4F583F58275F080F4A2D11322E4F575
:100C300083F58275F0C0747F227804EC7011E58230
:100C400024F8500AF582E4C9CACBFCD8EF22EC782C
:100C500020058220E713D5820122C3E933F9EA3364
:100C6000FAEB33FBEC33FCD8EA158222AA82AB8381
:100C7000A2F73392D16002D2F7F582ACF0E581247D
:100C8000F9F8E6FD08E6FE0886F008E6A2F73392DA
:100C9000D56002D2F7F583AFF022E582C583F582F5
:100CA000A2D133A2D592D11392D5ECCFFCEBCEFBDF
:100CB000EACDFA226040F82582500274FFF582E8FE
:100CC00024F8501ECCCBCAF9E4CC24F85014CBCA7B
:100CD000F9E4CB24F8500BCAF9E4CA24F85003799C
:100CE000002224086010F8C3EC13FCEB13FBEA139A
:100CF000FAE913F9D8F122AA827408C0E0740DC091
:100D0000E0C022C0238A82220529E4B52902052AEF
:100D100022AA8274302AFA24C6500A74072AFA30AA
:100D200001034302208A82020CF7E582FAC4540FC1
:100D3000F582C002120D11D002740F5AF582020D15
:100D400011AA24AB25AC26AD27AE28752F20EE2E98
:100D5000FEED235401FF4206EA2AFAEB33FBEC33A3
:100D6000FCED33FDC3EE952B4008EEC3952BFE43FF
:100D70000201D52FD98A248B258C268D278E2822F7
:100D8000784CE624D075F00AA4FA784DE624D02AEF
:100D9000FA784B8603BB2D04C3E49AFA752B01C382
:100DA000E464808AF063F08095F05029752F038AFF
:100DB0000374F6252F401C052BE52F142440F8E57D
:100DC0002F2440F98704A604772E1BEBFA60040554
:100DD0002F80DE8B02EA30E70D784186037842A649
:100DE000037841762E0AE52D600AE52D04FB252BBC
:100DF000F52B8005300C02052B78408603E4BB2DD3
:100E00000104FB7006200703300802052B300503A0
:100E1000020EC7300657EB600C75822DC002120C13
:100E2000F7D002801C30070C75822BC002120CF721
:100E3000D002800D30080A758220C002120CF7D053
:100E40000278418604BC2E0C758230C002120CF769
:100E5000D002152CAC2C152CC3E52B9C4003020FA3
:100E60000B758230C002120CF7D00280E7AC2C1553
:100E70002CC3E52B9C500C758220C002120CF7D0BD
:100E80000280EA78408604BC2D0C75822DC00212C7
:100E90000CF7D002801C30070C75822BC002120C9C
:100EA000F7D002800D30080A758220C002120CF7BC
:100EB000D00278418604BC2E52758230C002120CDA
:100EC000F7D002152C8044EB600E75822DC0021203
:100ED0000CF7D002152C802030070E75822BC00233
:100EE000120CF7D002152C800F30080C758220C030
:100EF00002120CF7D002152C78418603BB2E0C751C
:100F00008230C002120CF7D002152C752F01C20ED0
:100F1000E52F2440F88603BB4503020FC8BB2E34DF
:100F20008A03C3E464808BF063F08095F0500F7502
:100F30008230C003120CF7D0031B8B0280E48B02BB
:100F4000D20EE52D7038200C03020FC875822E12C8
:100F50000CF78074300E278A03EB30E71FC3E4647C
:100F600080852DF063F08095F0500C758230C003C1
:100F7000120CF7D003152D0B8B0280DD8B02300E87
:100F80000EC3E46480852DF063F08095F05021E578
:100F90002F2440F886038B82C002120CF7D0023057
:100FA0000E0EE52F2440F88603BB2E028002152D7D
:100FB000152CC3E46480852DF063F08095F0400328
:100FC000200E05052F020F10C3E46480852DF06309
:100FD000F08095F0500A758230120CF7152D80E8DC
:100FE00030050FAA2C152CEA6008758220120CF728
:100FF00080F122E52D7003300C0D7407252DFAE5E4
:101000002CC39AF52C8006E52C24FAF52C752F00BC
:1010100078408602BA2B0F20070C784076202008F3
:1010200005752F01052C200519AA2CC3E464808ABC
:10103000F063F08095F0500A758220120CF7152CA1
:1010400080E7C20EE52F2440F88602BA00028069CC
:10105000BA451F3001027665C3E46480852DF063D4
:10106000F08095F0500A758230120CF7152D80E84B
:10107000D20EC3E52F9402E433FA7014EA700EC363
:10108000E46480852DF063F08095F04003300E1607
:10109000E52F2440F886028A82120CF7E52F24FD02
:1010A0005012152D800E7402B52F09300C06758272
:1010B0002E120CF7052F021044300519AA2CC3E498
:1010C00064808AF063F08095F0500A758220120CDB
:1010D000F7152C80E722858222858323E4F529F504
:1010E0002AAA30AB31AC328A828B838CF012089DF5
:1010F000FD74012AF530E43BF5318C32EDFA7003D2
:1011000002167CBA25028003021674C205C206C20A
:1011100007C208C209C20AC20BC20CC202C203C281
:1011200004752B00752C00752DFFAB30AC31AD3242
:101130008B828C838DF012089DFAA3AB82AC838BDB
:10114000308C318D32BA25078A82120CF780928A50
:1011500006BE3000402E8A06EE24C6402774FFB536
:101160002D13E52C75F00AA4FEEA24D02EF52C7080
:10117000BFD20680BBE52D75F00AA4FEEA24D02E6E
:10118000F52D80ACBA2E0A74FFB52DA4752D008004
:101190009F8A06BE6100400E8A06EE2485400753F2
:1011A00002DFD2018002C201BA20028075BA230395
:1011B000021231BA2A03021236BA2B02805FBA2D0C
:1011C000028055BA4202805FBA430302127BBA44DE
:1011D000030213B6BA45030213D0BA46030213CC76
:1011E000BA47030213D4BA49030213B6BA4C0280B9
:1011F0003BBA4E030213D8BA4F030213BDBA5003D1
:1012000002134FBA530302129FBA55030213C2BA14
:1012100058030213C7021402D205021130D207028A
:101220001130D208021130D20A021130D20B021151
:1012300030D20C02113074FFB52D20300A0BE5338B
:1012400014F88833862C021130E53324FEF88833F5
:101250008606088607188E2C021130300A0BE533FB
:1012600014F88833862D021130E53324FEF88833D4
:101270008606088607188E2D021130300A0AE533DB
:1012800014F888338602800FE53324FEF88833860D
:1012900003088604188B028A82120CF7021407E5F1
:1012A0003324FDF888338603088604088605181859
:1012B0008B248C258D268B828C838DF01217FDABB1
:1012C00082AC838B2E74FFB52D03852E2D20051D3A
:1012D000C3E52E952C5016E52CC3952EF52CAB2C82
:1012E000152CEB6008758220120CF780F1852482A2
:1012F0008525838526F012089DFBFA6029AB2D1504
:101300002DC3E464808BF063F08095F050188A82DE
:10131000120CF7AB24AC25AD260BBB00010C8B24C3
:101320008C258D2680C7200503021407C3E52E9562
:101330002C4003021407E52CC3952EF52CAB2C157D
:101340002CEB7003021407758220120CF780EEE577
:101350003324FDF8883386030886040886051818A8
:101360008B248C258D26E526FB30E7047A438013F9
:10137000EB546060047A50800AEB30E6047A4980CE
:10138000027A588A82C002120CF775823A120CF760
:10139000758230120CF7758278120CF7D002BA49B8
:1013A00002800BBA50028006852582120D2A852400
:1013B00082120D2A8051D209752B0A804A752B089A
:1013C0008045752B0A8040752B10803BD2028037F8
:1013D000D2038033D204802FE53324FDF88833868E
:1013E0000308860408860518188B248C258D268B07
:1013F000828C838DF0E5291217E4A3E52A1217E405
:1014000080058A82120CF720020620030330047044
:10141000E53324FCF888338603088604088605082B
:1014200086061818188B248C258D268E27E524E532
:1014300025E526E5278B828C838DF0EE1216C57488
:10144000FFB52D03752D06300427747F5527FB8BC0
:1014500028E528EB2BFB8B28E52630E706740145B1
:1014600028F528E52824684006749925284002D2EA
:1014700003300306120FF30210E1120D800210E197
:10148000E52B70030210E17B45300A2BE53314F89D
:101490008833E6FC3395E0FDFEFF8C248D258E26F7
:1014A0008F2720095EAC247D007E007F008C248D78
:1014B000258E268F27804C300B1FE53324FCF888BF
:1014C0003386040886050886060886071818188CCF
:1014D000248D258E268F27802AE53324FEF8883335
:1014E000860408860518ED3395E0FEFF8C248D25D3
:1014F0008E268F2720090CAC24AD257E007F008E20
:10150000268F27300C43E52445254526452760399D
:101510007408B52B0C758230C003120CF7D0038011
:10152000287410B52B23758230C003120CF7D0033A
:1015300030010C758278C003120CF7D003800A7555
:101540008258C003120CF7D003300925AC24AD2516
:10155000AE26E527FF30E717C3E49CFCE49DFDE4DD
:101560009EFEE49FFF8C248D258E268F278002C24D
:1015700009752E00D20D8B00752800C000120D4198
:10158000D000200D0DE528C4FCE6FD4CF6188803BC
:101590008002A628052EB20DE524452545264527BF
:1015A00070D68803E52C7003752C0120061A2005DF
:1015B00017E52E04FCC3952C500E758220C0031233
:1015C0000CF7D003152C80E930090E75822DC0036D
:1015D000120CF7D003152C8024E52E602030070E66
:1015E00075822BC003120CF7D003152C800F300826
:1015F0000C758220C003120CF7D003152C20051E99
:10160000AC2C152CC3E52E9C50273006047C308072
:10161000027C208C82C003120CF7D00380E2C3E569
:101620002E952C5009E52CC3952EF52C8003752C96
:10163000008B00AB2E152EEB6022B20D200D0A0898
:10164000E6C4540FFB8B2880078603740F5BF528D4
:10165000852882C000120D11D00080D7200503021A
:1016600010E1AB2C152CEB70030210E175822012F7
:101670000CF780EE8A82120CF70210E18529828530
:101680002A8322AA82BA0A0810990280FB75990D52
:1016900010990280FB8A9922FCABF0AA83A982747C
:1016A0009EF582C2D1EC30E716D2D1E9F42401F9DB
:1016B000EAF43400FAEBF43400FBECF43400FC12EE
:1016C0000C39020BEAC0E0F84582458345F0700909
:1016D000F5F0FBFCFDFE021793E823A2F792E0F879
:1016E000A982AA83D2F7ABF07C007E07C3749798D7
:1016F000404074FF2EFE740A89F0A4F985F08274CC
:101700000A8AF0A4FA85F083740A8BF0A4FB7405AE
:1017100029F9EA3582FAEB3583FB740035F0FCC316
:10172000EC13FCEB13FBEA13FAE913F908EC70EF86
:1017300080BAE8C3947FF88B838EF0E4FBFCFDFE57
:10174000FF08C3E933F9EA33FAE58333F583EB3B6A
:10175000D4FBEC3CD4FCED3DD4FDEE3ED4FEEF3F9B
:10176000D4FF602D05F074052BD4FBE43CD4FCE4DD
:101770003DD4FDE43ED4FEE43FD4FF758204C3EFC4
:1017800013FFEE13FEED13FDEC13FCEB13FBD58200
:10179000EDD8AF7840D0E020E704762B8002762D9C
:1017A000087906E7C4540F4430F608B90603762ECC
:1017B00008E7540F4430F60819B902E7764508E502
:1017C000F020E704762B8004762DF4040875F00AE7
:1017D000844430F608E5F04430F608E4F690004022
:1017E00075F0402220F71030F6118883A88220F58A
:1017F00007F6A88375830022F280F7F022AA82AB55
:1018000083ACF07D007E008A828B838CF012089D71
:10181000FFA3AA82AB83EF60070DBD00EA0E80E74D
:101820008D828E8322000000000000000000000076
:00000001FF
