:100000000200037581AB120167E582600302006F95
:10001000780079007A007B007C007D00EC4D601C4C
:1000200088828983E493A3A882A9838A828B83F040
:10003000A3AA82AB831CBCFFE31D80E07582007520
:1000400083007C007D00EC4D600AE4F0A31CBCFF43
:10005000F51D80F27582007583007C007D00EC4DFB
:10006000600AE4F0A31CBCFFF51D80F212016612C9
:10007000041980FE1B5B324A0041444320746573BF
:10008000742070726F6772616D0A46696C653A2000
:1000900025730A436F6D70696C65643A2025732C73
:1000A0002025730A0A00433A5C55736572735C71CC
:1000B000697579755C4F6E6544726976655C446FED
:1000C00063756D656E74735C4769744875625C4CEA
:1000D0004142355C6C61623576332E63004D61724E
:1000E00020203620323032340032303A34313A3542
:1000F000370076723A2020205620663A20202020B1
:10010000487A0076743A2020205620207068613AA0
:1001100020202043000A706572696F643D25332EEC
:1001200032660D000A564050315F343D25372E357A
:1001300066562C20564050315F353D25372E3566AA
:10014000560D000D0A646567726565733A20256671
:10015000002530342E3266002530342E31660025DD
:1001600030342E3066002275A7007597DE7597AD86
:1001700075FF8075EF0675A71075C12075A700750E
:10018000A90075A900E5A930E7FB75A90375A903C6
:10019000E5A930E7FB43A41075E10175E20075E3C2
:1001A00040759810858E8E758DE6858D8B53890FE1
:1001B000438920D28ED2997582002275A700C2EFA2
:1001C00075B28075BC2075B91E75E80075DF3F7586
:1001D000B300D2EF22AA82438E407592B87593FF86
:1001E0008592948593957591047B00C3EB9A500B8F
:1001F000E59130E7FB53917F0B80F075910022AAC7
:1002000082AB837C007D00C3EC9AED9B502B7E007B
:10021000BE0400501D7582FAC002C003C004C005B0
:10022000C0061201D5D006D005D004D003D0020EEE
:1002300080DE0CBC00D10D80CE22D2A075822812A7
:1002400001D5C2A022AA828AE0A2E79290A2E692F9
:1002500091A2E59292A2E49293C00212023A7582B0
:10026000281201D5D0028AE0A2E39290A2E29291F4
:10027000A2E19292A2E0929302023AAA82D2978AD3
:10028000821202459000020201FFAA82C2978A826E
:100290001202459000050201FFC2A0900014120155
:1002A000FF75823312028A75823312028A75823296
:1002B00012028A75822812028A75820C12028A75CD
:1002C000820112028A9000140201FFAA82AB83AC61
:1002D000F07402B523047DC080027D808D82C0024F
:1002E000C003C00412028A9000051201FFD004D09E
:1002F00003D0027D007E00ED2AFFEE3BF88C018FDB
:1003000082888389F0120AA5FF60208F82C002C014
:1003100003C004C005C00612027BD006D005D0047D
:10032000D003D0020DBD00CF0E80CC3000248D0252
:100330008E03C3EA9410EB6480948050157582207C
:10034000C002C00312027BD003D0020ABA00E30B42
:1003500080E0225389F0438901C28C22AA82851150
:10036000F005F07401800225E0D5F0FBFB75A720B5
:10037000BA0002800ABA0102800FBA021E8014EB92
:10038000F4FA52F1EB42D48012EBF4FA52F2EB425F
:10039000D58008EBF4FA52F3EB42CC75A700228526
:1003A00082BBC2EDD2EC30EDFD85BD8285BE8322DD
:1003B00012039F120AC1AA82AB83ACF0FDC002C037
:1003C00003C004C00590923A75F0537440120B2D8F
:1003D000AA82AB83ACF0FDE58124FCF581E4C0E0AA
:1003E00074FCC0E0747FC0E07446C0E08A828B83F6
:1003F0008CF0ED120D0CAA82AB83ACF0FDE58124EC
:10040000FCF5818A828B838CF0ED22C2EDD2EC3038
:10041000EDFD85BD8285BE8322752400752500759E
:100420002600752700752A00752B00752C00752D88
:1004300000752E00752F007530007531007536007F
:100440007537007538007539001203531202999000
:1004500001F41201FF7474C0E07400C0E07480C045
:10046000E0120C4915811581158174E9C0E0740012
:10047000C0E07480C0E074DDC0E07400C0E074804F
:10048000C0E074A6C0E07400C0E07480C0E074797D
:10049000C0E07400C0E07480C0E0120C49E5812423
:1004A000F4F58175110475820112035C75110575EF
:1004B000820112035C1201BB752301D2009000F28D
:1004C00075F0801202CB752302D20090010375F003
:1004D000801202CBE4F528F529C3E528940AE52922
:1004E000648094804003020636758A00758C00C2D1
:1004F0008D7522002081FD3081FDD28C3081091064
:100500008D0280F8052280F4208109108D0280F888
:10051000052280F4C28C852282120BD0AE82AF837A
:10052000AAF0FBC006C007C002C00390000075F02F
:10053000807447120B2D85823A85833B85F03CF50C
:100540003DE58124FCF581858C82120BD0AE82AF13
:1005500083AAF0FBC006C007C002C003900000756C
:10056000F0807443120B2DAA82AB83ACF0FDE581C1
:1005700024FCF581C002C003C004C005853A828511
:100580003B83853CF0E53D120BDB85823A85833B5E
:1005900085F03CF53DE58124FCF581AE8A7F008E37
:1005A000828F83120CFFAE82AF83AAF0FBC006C01D
:1005B00007C002C003853A82853B83853CF0E53D58
:1005C000120BDBAA82AB83ACF0FDE58124FCF58144
:1005D000C002C003C004C00590F4FC75F03274344E
:1005E000120B2DAA82AB83ACF0FDE58124FCF581D2
:1005F000C002C003C004C005C024C025C026C02757
:100600008A828B838CF0ED120ACDAE82E58124FCC8
:10061000F581D005D004D003D002EE60088A248B87
:10062000258C268D279000011201FF0528E4B528AE
:100630000205290204D97A007B00C3EA9414EB6412
:10064000809480400302071875820AC002C003121A
:1006500003B0AC82AD83AEF0FF7850A60408A605C7
:1006600008A60608A60775820B1203B0AC82AD83FC
:10067000AEF0FF7854A60408A60508A60608A6074B
:1006800078508604088605088606088607C004C0D8
:1006900005C006C007852A82852B83852CF0E52DB1
:1006A000120AFDAC82E58124FCF581D003D002EC76
:1006B000600D7850862A08862B08862C08862D78AF
:1006C000548604088605088606088607C002C0030B
:1006D000C004C005C006C007852E82852F838530E3
:1006E000F0E531120AFDAC82E58124FCF581D003EE
:1006F000D002EC600D7854862E08862F08863008CC
:100700008631900001C002C0031201FFD003D00265
:100710000ABA00010B02063AC024C025C026C02731
:1007200090000075F07A7444120B2DAA82AB83AC52
:10073000F0FDE58124FCF581C002C003C004C005C2
:100740007415C0E07401C0E07480C0E0120C49E58B
:100750008124F9F581C02EC02FC030C031C02AC01D
:100760002BC02CC02D7424C0E07401C0E07480C084
:10077000E0120C49E58124F5F5812081033082FAED
:1007800030810C75360075370075388075393F300B
:10079000820C7536007537007538807539BF90004A
:1007A000011201FF758A00758C00C28D7522002030
:1007B00081FD3081FD30811520820E30810BD28C7D
:1007C000108D0280F3052280EFC28C80E8852282A2
:1007D000120BD0AA82AB83ACF0FDC002C003C004F0
:1007E000C00590000075F0807447120B2D85823A89
:1007F00085833B85F03CF53DE58124FCF581858CC6
:1008000082120BD0AE82AF83AAF0FBC006C007C035
:1008100002C00390000075F0807443120B2DAA8271
:10082000AB83ACF0FDE58124FCF581C002C003C0C0
:1008300004C005853A82853B83853CF0E53D120B7B
:10084000DB85823A85833B85F03CF53DE58124FCE0
:10085000F581AE8A7F008E828F83120CFFAE82AF4D
:1008600083AAF0FBC006C007C002C003853A828598
:100870003B83853CF0E53D120BDBAA82AB83ACF0F9
:10088000FDE58124FCF581C002C003C004C00590D1
:10089000F4FC75F0327434120B2DAA82AB83ACF0E9
:1008A000FDE58124FCF581C002C003C004C00585BC
:1008B00036828537838538F0E539120B2DAA82AB55
:1008C00083ACF0FDE58124FCF581C002C003C004C7
:1008D000C00590000075F0B47443120B2DAA82ABD2
:1008E00083ACF0FDE58124FCF581C024C025C02641
:1008F000C0278A828B838CF0ED120D0C85823285A5
:10090000833385F034F535E58124FCF581C032C0B0
:1009100033C034C0357443C0E07401C0E07480C09B
:10092000E0120C49E58124F9F5817449C0E07413A3
:10093000C0E07492C0E0743FC0E0852A82852B83BA
:10094000852CF0E52D120D0CAE82AF83AAF0FBE5ED
:100950008124FCF581C006C007C002C0037451C0E9
:10096000E07401C0E07480C0E07458C0E07400C05E
:10097000E07440C0E0120CB9E58124F6F5817523DE
:1009800001D20090005875F0401202CBC024C0255F
:10099000C026C02790000075F080743F120D0CAA8D
:1009A00082AB83ACF0FDE58124FCF581C002C0037D
:1009B000C004C00590000075F07A7444120B2DAA93
:1009C00082AB83ACF0FDE58124FCF581C002C0035D
:1009D000C004C0057458C0E07401C0E07480C0E079
:1009E0007469C0E07400C0E07440C0E0120CB9E566
:1009F0008124F6F581752301D20090006975F040DD
:100A00001202CB7449C0E07413C0E07492C0E07469
:100A10003FC0E0852E82852F838530F0E531120DB1
:100A20000CAA82AB83ACF0FDE58124FCF581C00209
:100A3000C003C004C0057451C0E07401C0E07480FC
:100A4000C0E0747AC0E07400C0E07440C0E0120CF2
:100A5000B9E58124F6F581752302D20090007A75FC
:100A6000F0401202CBC032C033C034C035745FC016
:100A7000E07401C0E07480C0E0747AC0E07400C02B
:100A8000E07440C0E0120CB9E58124F6F5817523CD
:100A900002D20090008B75F0401202CB9001F4124C
:100AA00001FF0204D420F71430F6148883A88220B2
:100AB000F507E6A88375830022E280F7E49322E03D
:100AC00022E4AC83AB82FAF9748E020E34FFA88163
:100AD0001818120E5CD2D133E6400730E70B75824E
:100AE000012220E70675820022C2D1120E3EE97073
:100AF00003F5822230D101B3E433F58222FFA881CD
:100B00001818120E5CD2D133E6400730E70B75821D
:100B1000002220E70675820122C2D1120E3EE97042
:100B200003F5822220D101B3E433F58222120F09AA
:100B3000BC0003020EA8EF60FA30D502B2D1E58303
:100B4000B4FF03020EBEE582B4FF03020EBE25838E
:100B500040072482400B020EA82483145003020E87
:100B6000BEF582EA8DF0A4A8F0EA8EF0A428F8E49D
:100B700035F0F9EB8DF0A428E935F0F9E433CA8FAC
:100B8000F0A429F9EA35F0FAEBF88EF0A429F9EA95
:100B900035F0FAE433FBEC8DF0A429F9EA35F0FAEC
:100BA000E43BFBE88FF0A42AFAEB35F0FBE433CC0E
:100BB000FD8EF0A42AFAEB35F0FBE43CFCED8FF05F
:100BC000A42BFBEC35F0FC20E703120ED6020E87B7
:100BD000E4AC82FBFAF97486020E34120F09790034
:100BE000E583B58202800D5003120F37E583C3956C
:100BF00082120F51E5D0C465D020E117EA2DFAEB3F
:100C00003EFBEC3FFC50097401120F51EC4480FC98
:100C1000020E87C3EA9DFAEB9EFBEC9FFC500FC3CC
:100C2000E499F9E49AFAE49BFBE49CFCB2D1120E3D
:100C3000D6020E8702192085824C85834D85F04EA1
:100C400085104F900C34021373C008858108E508A5
:100C500024FBF54FE50824FBF8864C08864D0886F2
:100C60004E900C34121373D00822AA82AB09AC0A3E
:100C7000AD0B8B828C838DF0EA1219350509E4B532
:100C80000902050A2285820985830A85F00B850CF5
:100C90004C850D4D850E4E850F4F900C6A121373C7
:100CA000AA82AB83AC09AD0AAE0B8C828D838EF029
:100CB000E41219358A828B8322C008858108E508F1
:100CC00024F8F54FE50824FBF8860908860A08860B
:100CD0000BE50824F8F8864C08864D08864E900CE3
:100CE0006A121373AA82AB83AC09AD0AAE0B8C8275
:100CF0008D838EF0E41219358A828B83D00822AC62
:100D000083AB827A007900748E021957120F093072
:100D1000D502B2D1BF0009BC0003020ECB020EBE49
:100D2000BC0003020EA8E583B4FF0BE582B4FF0309
:100D3000020ECB020EA8E582B4FF03020EBEC395DD
:100D4000835007247F400B020EA824801450030216
:100D50000EBEC0E0E4CCCBCAF98D118E128F13EF1A
:100D600054F0C4F5147583068514F0EB84F582E91C
:100D7000C4F9EAC4FAEBC4FBEC540FC47803D6FC04
:100D800018EBD6FB18EAD6FA8582F0EDA4A8F0FDA0
:100D90008582F0EEA428FEE435F0F88582F0EFA419
:100DA00028FFE435F0F8E99DF9EA9EFAEB9FFBECA9
:100DB00098FCAD11AE12AF1330E7101582E92DF992
:100DC000EA3EFAEB3FFBE43CFC80EDC082D5839821
:100DD000C3E933F9EA33FAEB33FBEC33FCC3E99DA7
:100DE000EA9EEB9FEC9400B3E413F9D002D0E0C488
:100DF0004AFAD003D0E0C44BFBD004D0E0F5F05465
:100E00000FC44CFCD082158230F40FD3EC13FCEBF2
:100E100013FBEA13FAE913F90582E930E70A7401D2
:100E20002AFAE43BFBE43CFC020E9FFCABF0AA83F5
:100E3000A982749EC2D1F582120ED6020E87790164
:100E4000AA82E68F82B5821318E6B5F00E18E6B5D1
:100E5000830918E68A82B58202790022B4800FE500
:100E6000F0700AE5837006E58270027F00EFB680BD
:100E70001518B6001018B6000B18B60006080808BA
:100E800076002208080822B98003EA13B34010EA6A
:100E90002401FAE43BFBE43CFC50047C800582BC6A
:100EA000000EBB000BBA0008E4F5F0F583F58222D2
:100EB000A2D1E582138CF092F78B838A8222E4F52B
:100EC00083F58275F080F4A2D11322E4F583F582D4
:100ED00075F0C0747F227804EC7011E58224F8501C
:100EE0000AF582E4C9CACBFCD8EF22EC782005824F
:100EF00020E713D5820122C3E933F9EA33FAEB3351
:100F0000FBEC33FCD8EA158222AA82AB83A2F7332A
:100F100092D16002D2F7F582ACF0E58124F9F8E6CF
:100F2000FD08E6FE0886F008E6A2F73392D56002D7
:100F3000D2F7F583AFF022E582C583F582A2D133E3
:100F4000A2D592D11392D5ECCFFCEBCEFBEACDFA31
:100F5000226040F82582500274FFF582E824F850A0
:100F60001ECCCBCAF9E4CC24F85014CBCAF9E4CB9C
:100F700024F8500BCAF9E4CA24F85003790022245B
:100F8000086010F8C3EC13FCEB13FBEA13FAE91347
:100F9000F9D8F122AA8274A5C0E0740FC0E0C03E67
:100FA000C03F8A82220545E4B54502054622AA8251
:100FB00074302AFA24C6500A74072AFA300103430F
:100FC00002208A82020F94E582FAC4540FF582C08F
:100FD00002120FAED002740F5AF582020FAEAA4071
:100FE000AB41AC42AD43AE44754B20EE2EFEED233B
:100FF0005401FF4206EA2AFAEB33FBEC33FCED33F3
:10100000FDC3EE95474008EEC39547FE430201D568
:101010004BD98A408B418C428D438E442278A8E67E
:1010200024D075F00AA4FA78A9E624D02AFA78A781
:101030008603BB2D04C3E49AFA754701C3E46480B8
:101040008AF063F08095F05029754B038A0374F69B
:10105000254B401C0547E54B14249CF8E54B249C8C
:10106000F98704A604772E1BEBFA6004054B80DE9B
:101070008B02EA30E70D789D8603789EA603789D63
:10108000762E0AE549600AE54904FB2547F54780C5
:1010900005300C020547789C8603E4BB2D0104FB58
:1010A000700620070330080205473005030211646B
:1010B000300657EB600C75822DC002120F94D002DF
:1010C000801C30070C75822BC002120F94D0028056
:1010D0000D30080A758220C002120F94D002789D4C
:1010E0008604BC2E0C758230C002120F94D00215FB
:1010F00048AC481548C3E5479C40030211A87582D7
:1011000030C002120F94D00280E7AC481548C3E506
:10111000479C500C758220C002120F94D00280EAC6
:10112000789C8604BC2D0C75822DC002120F94D0C1
:1011300002801C30070C75822BC002120F94D00263
:10114000800D30080A758220C002120F94D00278F8
:101150009D8604BC2E52758230C002120F94D002BC
:1011600015488044EB600E75822DC002120F94D09A
:10117000021548802030070E75822BC002120F9492
:10118000D0021548800F30080C758220C002120F63
:1011900094D0021548789D8603BB2E0C758230C012
:1011A00002120F94D0021548754B01C20EE54B2474
:1011B0009CF88603BB4503021265BB2E348A03C329
:1011C000E464808BF063F08095F0500F758230C03E
:1011D00003120F94D0031B8B0280E48B02D20EE526
:1011E000497038200C0302126575822E120F94800C
:1011F00074300E278A03EB30E71FC3E4648085490F
:10120000F063F08095F0500C758230C003120F949B
:10121000D00315490B8B0280DD8B02300E0EC3E428
:1012200064808549F063F08095F05021E54B249C63
:10123000F886038B82C002120F94D002300E0EE5A6
:101240004B249CF88603BB2E02800215491548C327
:10125000E464808549F063F08095F04003200E053A
:10126000054B0211ADC3E464808549F063F08095BD
:10127000F0500A758230120F94154980E830050F3E
:10128000AA481548EA6008758220120F9480F1225E
:10129000E5497003300C0D74072549FAE548C39AF7
:1012A000F5488006E54824FAF548754B00789C8699
:1012B00002BA2B0F20070C789C7620200805754B6E
:1012C000010548200519AA48C3E464808AF063F048
:1012D0008095F0500A758220120F94154880E7C25D
:1012E0000EE54B249CF88602BA00028069BA451FBD
:1012F0003001027665C3E464808549F063F080952F
:10130000F0500A758230120F94154980E8D20EC34E
:10131000E54B9402E433FA7014EA700EC3E464807F
:101320008549F063F08095F04003300E16E54B24BC
:101330009CF886028A82120F94E54B24FD50121508
:1013400049800E7402B54B09300C0675822E120FBF
:1013500094054B0212E1300519AA48C3E464808A5F
:10136000F063F08095F0500A758220120F941548B2
:1013700080E72285823E85833FE4F545F546AA4C09
:10138000AB4DAC4E8A828B838CF0120AA5FD7401A2
:101390002AF54CE43BF54D8C4EEDFA700302191919
:1013A000BA25028003021911C205C206C207C2088B
:1013B000C209C20AC20BC20CC202C203C2047547F0
:1013C000007548007549FFAB4CAC4DAD4E8B828C1F
:1013D000838DF0120AA5FAA3AB82AC838B4C8C4DA3
:1013E0008D4EBA25078A82120F9480928A06BE30EB
:1013F00000402E8A06EE24C6402774FFB54913E547
:101400004875F00AA4FEEA24D02EF54870BFD20633
:1014100080BBE54975F00AA4FEEA24D02EF5498088
:10142000ACBA2E0A74FFB549A4754900809F8A069C
:10143000BE6100400E8A06EE248540075302DFD2CB
:10144000018002C201BA20028075BA23030214CEC1
:10145000BA2A030214D3BA2B02805FBA2D02805538
:10146000BA4202805FBA4303021518BA4403021657
:1014700053BA450302166DBA4603021669BA47030A
:10148000021671BA4903021653BA4C02803BBA4E97
:1014900003021675BA4F0302165ABA50030215EC2E
:1014A000BA530302153CBA550302165FBA58030239
:1014B000166402169FD2050213CDD2070213CDD2B5
:1014C000080213CDD20A0213CDD20B0213CDD20CD7
:1014D0000213CD74FFB54920300A0BE54F14F8888C
:1014E0004F86480213CDE54F24FEF8884F86060844
:1014F0008607188E480213CD300A0BE54F14F88882
:101500004F86490213CDE54F24FEF8884F86060822
:101510008607188E490213CD300A0AE54F14F88861
:101520004F8602800FE54F24FEF8884F8603088619
:1015300004188B028A82120F940216A4E54F24FD30
:10154000F8884F860308860408860518188B408C97
:10155000418D428B828C838DF0121A9AAB82AC83C0
:101560008B4A74FFB54903854A4920051DC3E54AE6
:1015700095485016E548C3954AF548AB481548EBE1
:101580006008758220120F9480F185408285418326
:101590008542F0120AA5FBFA6029AB491549C3E45C
:1015A00064808BF063F08095F050188A82120F945B
:1015B000AB40AC41AD420BBB00010C8B408C418D6C
:1015C0004280C72005030216A4C3E54A954840039C
:1015D0000216A4E548C3954AF548AB481548EB7098
:1015E000030216A4758220120F9480EEE54F24FDAD
:1015F000F8884F860308860408860518188B408CE7
:10160000418D42E542FB30E7047A438013EB54609E
:1016100060047A50800AEB30E6047A4980027A58F6
:101620008A82C002120F9475823A120F947582302A
:10163000120F94758278120F94D002BA4902800B6F
:10164000BA50028006854182120FC7854082120F70
:10165000C78051D20975470A804A75470880457589
:10166000470A8040754710803BD2028037D2038002
:1016700033D204802FE54F24FDF8884F8603088677
:101680000408860518188B408C418D428B828C8310
:101690008DF0E545121935A3E54612193580058A06
:1016A00082120F94200206200303300470E54F24B9
:1016B000FCF8884F86030886040886050886061805
:1016C00018188B408C418D428E43E540E541E54240
:1016D000E5438B828C838DF0EE12197B74FFB54944
:1016E00003754906300427747F5543FB8B44E5445A
:1016F000EB2BFB8B44E54230E70674014544F5448F
:10170000E54424684006749925444002D20330031E
:101710000612129002137E12101D02137EE547700E
:101720000302137E7BA1300A2BE54F14F8884FE6A5
:10173000FC3395E0FDFEFF8C408D418E428F4320AF
:10174000095EAC407D007E007F008C408D418E4262
:101750008F43804C300B1FE54F24FCF8884F8604E4
:101760000886050886060886071818188C408D41DB
:101770008E428F43802AE54F24FEF8884F86040866
:10178000860518ED3395E0FEFF8C408D418E428F2B
:101790004320090CAC40AD417E007F008E428F4358
:1017A000300C43E54045414542454360397408B536
:1017B000470C758230C003120F94D0038028741038
:1017C000B54723758230C003120F94D00330010C4B
:1017D000758278C003120F94D003800A758258C0B6
:1017E00003120F94D003300925AC40AD41AE42E561
:1017F00043FF30E717C3E49CFCE49DFDE49EFEE458
:101800009FFF8C408D418E428F438002C209754AF2
:1018100000D20D8B00754400C000120FDED00020F6
:101820000D0DE544C4FCE6FD4CF61888038002A6C5
:1018300044054AB20DE54045414542454370D688CE
:1018400003E548700375480120061A200517E54A8C
:1018500004FCC39548500E758220C003120F94D02B
:1018600003154880E930090E75822DC003120F94CC
:10187000D00315488024E54A602030070E75822B7E
:10188000C003120F94D0031548800F30080C7582E6
:1018900020C003120F94D003154820051EAC481534
:1018A00048C3E54A9C50273006047C3080027C20E7
:1018B0008C82C003120F94D00380E2C3E54A95489E
:1018C0005009E548C3954AF54880037548008B00E8
:1018D000AB4A154AEB6022B20D200D0A08E6C4544B
:1018E0000FFB8B4480078603740F5BF544854482AD
:1018F000C000120FAED00080D720050302137EABCC
:10190000481548EB700302137E758220120F9480F5
:10191000EE8A82120F9402137E85458285468322C9
:10192000AA82BA0A0810990280FB75990D109902D3
:1019300080FB8A992220F71030F6118883A8822034
:10194000F507F6A88375830022F280F7F022FCAB3E
:10195000F0AA83A982749EF582C2D1EC30E716D238
:10196000D1E9F42401F9EAF43400FAEBF43400FB91
:10197000ECF43400FC120ED6020E87C0E0F845826B
:10198000458345F07009F5F0FBFCFDFE021A49E8BD
:1019900023A2F792E0F8A982AA83D2F7ABF07C00E9
:1019A0007E07C3749798404074FF2EFE740A89F036
:1019B000A4F985F082740A8AF0A4FA85F083740A87
:1019C0008BF0A4FB740529F9EA3582FAEB3583FB29
:1019D000740035F0FCC3EC13FCEB13FBEA13FAE9DB
:1019E00013F908EC70EF80BAE8C3947FF88B838E0C
:1019F000F0E4FBFCFDFEFF08C3E933F9EA33FAE546
:101A00008333F583EB3BD4FBEC3CD4FCED3DD4FDC0
:101A1000EE3ED4FEEF3FD4FF602D05F074052BD4CD
:101A2000FBE43CD4FCE43DD4FDE43ED4FEE43FD4EE
:101A3000FF758204C3EF13FFEE13FEED13FDEC13ED
:101A4000FCEB13FBD582EDD8AF789CD0E020E70407
:101A5000762B8002762D087906E7C4540F4430F6C1
:101A600008B90603762E08E7540F4430F60819B972
:101A700002E7764508E5F020E704762B8004762D12
:101A8000F4040875F00A844430F608E5F04430F6B2
:101A900008E4F690009C75F04022AA82AB83ACF07B
:101AA0007D007E008A828B838CF0120AA5FFA3AA98
:101AB00082AB83EF60070DBD00EA0E80E78D828E5A
:101AC0008322000000000000000000000000000071
:00000001FF
