:1000000002000375814B12011CE582600302006F40
:10001000780079007A007B007C007D00EC4D601C4C
:1000200088828983E493A3A882A9838A828B83F040
:10003000A3AA82AB831CBCFFE31D80E07582007520
:1000400083007C007D00EC4D600AE4F0A31CBCFF43
:10005000F51D80F27582007583007C007D00EC4DFB
:10006000600AE4F0A31CBCFFF51D80F212011B1214
:1000700003CE80FE1B5B324A00414443207465730B
:10008000742070726F6772616D0A46696C653A2000
:1000900025730A436F6D70696C65643A2025732C73
:1000A0002025730A0A00443A5C636C6F6E655C4CF1
:1000B0004142355C6C61623576312E63004D617270
:1000C00020203520323032340031393A35303A355B
:1000D000350076723A2020202020663A2020202009
:1000E000487A0076743A20202020207068613A20F7
:1000F000202020000D0A25332E3266000A5640507B
:10010000315F343D25372E3566562C205640503110
:100110005F353D25372E3566560D002275A70075D3
:1001200097DE7597AD75FF8075EF0675A71075C1E1
:100130002075A70075A90075A900E5A930E7FB7532
:10014000A90375A903E5A930E7FB43A41075E101F4
:1001500075E20075E340759810858E8E758DE68585
:100160008D8B53890F438920D28ED29975820022BC
:1001700075A700C2EF75B28075BC2075B91E75E811
:100180000075DF3F75B300D2EF22AA82438E40751F
:1001900092B87593FF8592948593957591047B0031
:1001A000C3EB9A500BE59130E7FB53917F0B80F046
:1001B00075910022AA82AB837C007D00C3EC9AED8E
:1001C0009B502B7E00BE0400501D7582FAC002C0F9
:1001D00003C004C005C00612018AD006D005D004B1
:1001E000D003D0020E80DE0CBC00D10D80CE22D216
:1001F000A075822812018AC2A022AA828AE0A2E700
:100200009290A2E69291A2E59292A2E49293C00209
:100210001201EF75822812018AD0028AE0A2E392CD
:1002200090A2E29291A2E19292A2E092930201EF57
:10023000AA82D2978A821201FA9000020201B4AA1D
:1002400082C2978A821201FA9000050201B4C2A00C
:100250009000141201B475823312023F758233127A
:10026000023F75823212023F75822812023F758268
:100270000C12023F75820112023F9000140201B479
:10028000AA82AB83ACF07402B50A047DC080027D03
:10029000808D82C002C003C00412023F900005128C
:1002A00001B4D004D003D0027D007E00ED2AFFEE21
:1002B0003BF88C018F82888389F0120665FF6020ED
:1002C0008F82C002C003C004C005C006120230D035
:1002D00006D005D004D003D0020DBD00CF0E80CCD7
:1002E0003000248D028E03C3EA9410EB6480948066
:1002F0005015758220C002C003120230D003D00214
:100300000ABA00E30B80E0225389F0438901C28CD2
:1003100022AA828516F005F07401800225E0D5F04E
:10032000FBFB75A720BA0002800ABA0102800FBA4F
:10033000021E8014EBF4FA52F1EB42D48012EBF47B
:10034000FA52F2EB42D58008EBF4FA52F3EB42CCCE
:1003500075A700228582BBC2EDD2EC30EDFD85BDD4
:100360008285BE8322120354120681AA82AB83AC1B
:10037000F0FDC002C003C004C00590333375F053D4
:1003800074401206BDAA82AB83ACF0FDE58124FC6B
:10039000F581E4C0E074FCC0E0747FC0E07446C046
:1003A000E08A828B838CF0ED120807AA82AB83ACC3
:1003B000F0FDE58124FCF5818A828B838CF0ED22AF
:1003C000C2EDD2EC30EDFD85BD8285BE83221203E5
:1003D0000812024E9001F41201B47474C0E074006B
:1003E000C0E07480C0E01207D915811581158174B1
:1003F000C9C0E07400C0E07480C0E074BDC0E074A7
:1004000000C0E07480C0E074A6C0E07400C0E07476
:1004100080C0E07479C0E07400C0E07480C0E01275
:1004200007D9E58124F4F58175160475820112035C
:1004300011751605758201120311120170750A01FA
:10044000D2009000D275F080120280750A02D200AC
:100450009000E375F080120280E4F50FF510C3E51B
:100460000F940AE5106480948050EE758A00758CB4
:1004700000C28D7509002081FD3081FDD28C308154
:1004800009108D0280F8050980F4208109108D0281
:1004900080F8050980F4C28C850982120760AC825D
:1004A000AD83AEF0FFC004C005C006C007900000D9
:1004B00075F08074471206BD85821185831285F020
:1004C00013F514E58124FCF581858C82120760AA5E
:1004D00082AB83ACF0FDC002C003C004C005900035
:1004E0000075F08074431206BDAA82AB83ACF0FDA8
:1004F000E58124FCF581C002C003C004C00585115C
:10050000828512838513F0E51412076B85821185AD
:10051000831285F013F514E58124FCF581AE8A7F02
:10052000008E828F831207FAAE82AF83AAF0FBC0DF
:1005300006C007C002C0038511828512838513F0AF
:10054000E51412076BAA82AB83ACF0FDE58124FCB5
:10055000F581C002C003C004C00590F4FC75F03200
:1005600074341206BDAA82AB83ACF0FDE58124FC95
:10057000F581C002C003C004C005C00BC00CC00D93
:10058000C00E8A828B838CF0ED12068DAE82E581DF
:1005900024FCF581D005D004D003D002EE60088A97
:1005A0000B8B0C8C0D8D0EC00BC00CC00DC00E90B3
:1005B000000075F07A74441206BDAA82AB83ACF0D9
:1005C000FDE58124FCF581C002C003C004C00574B0
:1005D000F4C0E07400C0E07480C0E01207D9E58187
:1005E00024F9F5819000011201B475820A120365A5
:1005F000AA82AB83ACF0FD7834A60208A60308A655
:100600000408A60575820B12036585821185831285
:1006100085F013F5147838A61108A61208A6130859
:10062000A61478348606088607088602088603C062
:1006300011C012C013C014C006C007C002C00374AA
:10064000FCC0E07400C0E07480C0E01207D9E5810E
:1006500024F5F5819001F41201B4050FE4B50F0201
:10066000051002045E20F71430F6148883A8822057
:10067000F507E6A88375830022E280F7E49322E081
:1006800022E4AC83AB82FAF9748E02092FFFA881B1
:100690001818120957D2D133E6400730E70B75829C
:1006A000012220E70675820022C2D1120939E970C1
:1006B00003F5822230D101B3E433F58222120A0419
:1006C000BC00030209A3EF60FA30D502B2D1E58382
:1006D000B4FF030209B9E582B4FF030209B9258317
:1006E00040072482400B0209A3248314500302090B
:1006F000B9F582EA8DF0A4A8F0EA8EF0A428F8E417
:1007000035F0F9EB8DF0A428E935F0F9E433CA8F20
:10071000F0A429F9EA35F0FAEBF88EF0A429F9EA09
:1007200035F0FAE433FBEC8DF0A429F9EA35F0FA60
:10073000E43BFBE88FF0A42AFAEB35F0FBE433CC82
:10074000FD8EF0A42AFAEB35F0FBE43CFCED8FF0D3
:10075000A42BFBEC35F0FC20E7031209D10209823F
:10076000E4AC82FBFAF9748602092F120A047900BC
:10077000E583B58202800D5003120A32E583C395EA
:1007800082120A4CE5D0C465D020E117EA2DFAEBBD
:100790003EFBEC3FFC50097401120A4CEC4480FC17
:1007A000020982C3EA9DFAEB9EFBEC9FFC500FC34B
:1007B000E499F9E49AFAE49BFBE49CFCB2D11209B7
:1007C000D102098202141B85823085833185F03283
:1007D0008515339007C4020E6EC008858108E508B0
:1007E00024FBF533E50824FBF886300886310886BB
:1007F000329007C4120E6ED00822AC83AB827A000E
:100800007900748E021439120A0430D502B2D1BFB5
:100810000009BC00030209C60209B9BC00030209B1
:10082000A3E583B4FF0BE582B4FF030209C6020906
:10083000A3E582B4FF030209B9C395835007247F5F
:10084000400B0209A324801450030209B9C0E0E45C
:10085000CCCBCAF98D168E178F18EF54F0C4F5194A
:100860007583068519F0EB84F582E9C4F9EAC4FAC8
:10087000EBC4FBEC540FC47803D6FC18EBD6FB1882
:10088000EAD6FA8582F0EDA4A8F0FD8582F0EEA408
:1008900028FEE435F0F88582F0EFA428FFE435F077
:1008A000F8E99DF9EA9EFAEB9FFBEC98FCAD16AED9
:1008B00017AF1830E7101582E92DF9EA3EFAEB3F41
:1008C000FBE43CFC80EDC082D58398C3E933F9EAB0
:1008D00033FAEB33FBEC33FCC3E99DEA9EEB9FEC70
:1008E0009400B3E413F9D002D0E0C44AFAD003D0A4
:1008F000E0C44BFBD004D0E0F5F0540FC44CFCD066
:1009000082158230F40FD3EC13FCEB13FBEA13FADD
:10091000E913F90582E930E70A74012AFAE43BFB9E
:10092000E43CFC02099AFCABF0AA83A982749EC243
:10093000D1F5821209D10209827901AA82E68F8259
:10094000B5821318E6B5F00E18E6B5830918E68AE5
:1009500082B58202790022B4800FE5F0700AE58347
:100960007006E58270027F00EFB6801518B60010A1
:1009700018B6000B18B6000608080876002208080A
:100980000822B98003EA13B34010EA2401FAE43BD9
:10099000FBE43CFC50047C800582BC000EBB000BD9
:1009A000BA0008E4F5F0F583F58222A2D1E58213BE
:1009B0008CF092F78B838A8222E4F583F58275F0BE
:1009C00080F4A2D11322E4F583F58275F0C0747F20
:1009D000227804EC7011E58224F8500AF582E4C90B
:1009E000CACBFCD8EF22EC7820058220E713D58211
:1009F0000122C3E933F9EA33FAEB33FBEC33FCD8D9
:100A0000EA158222AA82AB83A2F73392D16002D286
:100A1000F7F582ACF0E58124F9F8E6FD08E6FE087A
:100A200086F008E6A2F73392D56002D2F7F583AFDD
:100A3000F022E582C583F582A2D133A2D592D113EB
:100A400092D5ECCFFCEBCEFBEACDFA226040F82544
:100A500082500274FFF582E824F8501ECCCBCAF90C
:100A6000E4CC24F85014CBCAF9E4CB24F8500BCAD8
:100A7000F9E4CA24F8500379002224086010F8C36E
:100A8000EC13FCEB13FBEA13FAE913F9D8F122AAF1
:100A90008274A0C0E0740AC0E0C022C0238A82220F
:100AA0000529E4B52902052A22AA8274302AFA24EB
:100AB000C6500A74072AFA3001034302208A8202D0
:100AC0000A8FE582FAC4540FF582C002120AA9D037
:100AD00002740F5AF582020AA9AA24AB25AC26ADEE
:100AE00027AE28752F20EE2EFEED235401FF42067F
:100AF000EA2AFAEB33FBEC33FCED33FDC3EE952B26
:100B00004008EEC3952BFE430201D52FD98A248BD2
:100B1000258C268D278E28227848E624D075F00A69
:100B2000A4FA7849E624D02AFA78478603BB2D0434
:100B3000C3E49AFA752B01C3E464808AF063F08001
:100B400095F05029752F038A0374F6252F401C0554
:100B50002BE52F14243CF8E52F243CF98704A60448
:100B6000772E1BEBFA6004052F80DE8B02EA30E75C
:100B70000D783D8603783EA603783D762E0AE52D56
:100B8000600AE52D04FB252BF52B8005300C0205B2
:100B90002B783C8603E4BB2D0104FB700620070381
:100BA000300802052B300503020C5F300657EB605E
:100BB0000C75822DC002120A8FD002801C30070CE7
:100BC00075822BC002120A8FD002800D30080A7580
:100BD0008220C002120A8FD002783D8604BC2E0CFF
:100BE000758230C002120A8FD002152CAC2C152C45
:100BF000C3E52B9C4003020CA3758230C002120A8D
:100C00008FD00280E7AC2C152CC3E52B9C500C75C3
:100C10008220C002120A8FD00280EA783C8604BC8F
:100C20002D0C75822DC002120A8FD002801C300755
:100C30000C75822BC002120A8FD002800D30080A78
:100C4000758220C002120A8FD002783D8604BC2E25
:100C500052758230C002120A8FD002152C8044EBEC
:100C6000600E75822DC002120A8FD002152C8020D2
:100C700030070E75822BC002120A8FD002152C800D
:100C80000F30080C758220C002120A8FD002152C7A
:100C9000783D8603BB2E0C758230C002120A8FD0BD
:100CA00002152C752F01C20EE52F243CF88603BBDC
:100CB0004503020D60BB2E348A03C3E464808BF0CD
:100CC00063F08095F0500F758230C003120A8FD008
:100CD000031B8B0280E48B02D20EE52D7038200CB2
:100CE00003020D6075822E120A8F8074300E278ADF
:100CF00003EB30E71FC3E46480852DF063F080953B
:100D0000F0500C758230C003120A8FD003152D0BE2
:100D10008B0280DD8B02300E0EC3E46480852DF0E3
:100D200063F08095F05021E52F243CF886038B82F8
:100D3000C002120A8FD002300E0EE52F243CF88636
:100D400003BB2E028002152D152CC3E46480852D73
:100D5000F063F08095F04003200E05052F020CA8EB
:100D6000C3E46480852DF063F08095F0500A7582AD
:100D700030120A8F152D80E830050FAA2C152CEAA9
:100D80006008758220120A8F80F122E52D700330F1
:100D90000C0D7407252DFAE52CC39AF52C8006E579
:100DA0002C24FAF52C752F00783C8602BA2B0F20E4
:100DB000070C783C7620200805752F01052C2005AE
:100DC00019AA2CC3E464808AF063F08095F0500A7D
:100DD000758220120A8F152C80E7C20EE52F243C65
:100DE000F88602BA00028069BA451F3001027665B2
:100DF000C3E46480852DF063F08095F0500A75821D
:100E000030120A8F152D80E8D20EC3E52F9402E42C
:100E100033FA7014EA700EC3E46480852DF063F039
:100E20008095F04003300E16E52F243CF886028AA8
:100E300082120A8FE52F24FD5012152D800E7402A8
:100E4000B52F09300C0675822E120A8F052F020D60
:100E5000DC300519AA2CC3E464808AF063F0809525
:100E6000F0500A758220120A8F152C80E7228582A5
:100E700022858323E4F529F52AAA30AB31AC328AE6
:100E8000828B838CF0120665FD74012AF530E43BF9
:100E9000F5318C32EDFA7003021414BA2502800386
:100EA00002140CC205C206C207C208C209C20AC2A5
:100EB0000BC20CC202C203C204752B00752C007554
:100EC0002DFFAB30AC31AD328B828C838DF01206AE
:100ED00065FAA3AB82AC838B308C318D32BA250797
:100EE0008A82120A8F80928A06BE3000402E8A06BD
:100EF000EE24C6402774FFB52D13E52C75F00AA427
:100F0000FEEA24D02EF52C70BFD20680BBE52D75ED
:100F1000F00AA4FEEA24D02EF52D80ACBA2E0A7475
:100F2000FFB52DA4752D00809F8A06BE6100400E7E
:100F30008A06EE248540075302DFD2018002C201F7
:100F4000BA20028075BA2303020FC9BA2A03020F1E
:100F5000CEBA2B02805FBA2D028055BA4202805F62
:100F6000BA4303021013BA440302114EBA450302F6
:100F70001168BA4603021164BA470302116CBA49F8
:100F80000302114EBA4C02803BBA4E03021170BAF2
:100F90004F03021155BA50030210E7BA530302106F
:100FA00037BA550302115ABA580302115F02119A57
:100FB000D205020EC8D207020EC8D208020EC8D24D
:100FC0000A020EC8D20B020EC8D20C020EC874FF61
:100FD000B52D20300A0BE53314F88833862C020E29
:100FE000C8E53324FEF888338606088607188E2C59
:100FF000020EC8300A0BE53314F88833862D020E32
:10100000C8E53324FEF888338606088607188E2D37
:10101000020EC8300A0AE53314F888338602800FBE
:10102000E53324FEF888338603088604188B028A89
:1010300082120A8F02119FE53324FDF8883386035C
:1010400008860408860518188B248C258D268B822B
:101050008C838DF0121595AB82AC838B2E74FFB50B
:101060002D03852E2D20051DC3E52E952C5016E54C
:101070002CC3952EF52CAB2C152CEB60087582201B
:10108000120A8F80F18524828525838526F0120639
:1010900065FBFA6029AB2D152DC3E464808BF063EA
:1010A000F08095F050188A82120A8FAB24AC25ADDF
:1010B000260BBB00010C8B248C258D2680C72005B8
:1010C0000302119FC3E52E952C400302119FE52CCE
:1010D000C3952EF52CAB2C152CEB700302119F75CC
:1010E0008220120A8F80EEE53324FDF888338603D0
:1010F00008860408860518188B248C258D26E5267D
:10110000FB30E7047A438013EB546060047A50802C
:101110000AEB30E6047A4980027A588A82C00212C9
:101120000A8F75823A120A8F758230120A8F758281
:1011300078120A8FD002BA4902800BBA5002800698
:10114000852582120AC2852482120AC28051D209E0
:10115000752B0A804A752B088045752B0A804075CF
:101160002B10803BD2028037D2038033D204802FF1
:10117000E53324FDF88833860308860408860518BD
:10118000188B248C258D268B828C838DF0E529127B
:10119000157CA3E52A12157C80058A82120A8F200D
:1011A0000206200303300470E53324FCF8883386FC
:1011B000030886040886050886061818188B248CF0
:1011C000258D268E27E524E525E526E5278B828CCF
:1011D000838DF0EE12145D74FFB52D03752D06306E
:1011E0000427747F5527FB8B28E528EB2BFB8B28E6
:1011F000E52630E70674014528F528E528246840EF
:1012000006749925284002D203300306120D8B0282
:101210000E79120B18020E79E52B7003020E797B02
:1012200041300A2BE53314F88833E6FC3395E0FDB2
:10123000FEFF8C248D258E268F2720095EAC247D11
:10124000007E007F008C248D258E268F27804C30D9
:101250000B1FE53324FCF8883386040886050886CE
:10126000060886071818188C248D258E268F27804F
:101270002AE53324FEF88833860408860518ED3302
:1012800095E0FEFF8C248D258E268F2720090CAC3F
:1012900024AD257E007F008E268F27300C43E52469
:1012A00045254526452760397408B52B0C758230D5
:1012B000C003120A8FD00380287410B52B237582C7
:1012C00030C003120A8FD00330010C758278C0033E
:1012D000120A8FD003800A758258C003120A8FD079
:1012E00003300925AC24AD25AE26E527FF30E717EE
:1012F000C3E49CFCE49DFDE49EFEE49FFF8C248DF2
:10130000258E268F278002C209752E00D20D8B00F4
:10131000752800C000120AD9D000200D0DE528C4A0
:10132000FCE6FD4CF61888038002A628052EB20DB7
:10133000E52445254526452770D68803E52C70030E
:10134000752C0120061A200517E52E04FCC3952CE8
:10135000500E758220C003120A8FD003152C80E92D
:1013600030090E75822DC003120A8FD003152C8010
:1013700024E52E602030070E75822BC003120A8FE1
:10138000D003152C800F30080C758220C003120A80
:101390008FD003152C20051EAC2C152CC3E52E9CDC
:1013A00050273006047C3080027C208C82C00312DF
:1013B0000A8FD00380E2C3E52E952C5009E52CC39B
:1013C000952EF52C8003752C008B00AB2E152EEB83
:1013D0006022B20D200D0A08E6C4540FFB8B288052
:1013E000078603740F5BF528852882C000120AA9BE
:1013F000D00080D7200503020E79AB2C152CEB70A2
:1014000003020E79758220120A8F80EE8A82120AF8
:101410008F020E79852982852A8322AA82BA0A0838
:1014200010990280FB75990D10990280FB8A992210
:10143000FCABF0AA83A982749EF582C2D1EC30E79E
:1014400016D2D1E9F42401F9EAF43400FAEBF434C9
:1014500000FBECF43400FC1209D1020982C0E0F870
:101460004582458345F07009F5F0FBFCFDFE021551
:101470002BE823A2F792E0F8A982AA83D2F7ABF077
:101480007C007E07C3749798404074FF2EFE740A58
:1014900089F0A4F985F082740A8AF0A4FA85F083B1
:1014A000740A8BF0A4FB740529F9EA3582FAEB354E
:1014B00083FB740035F0FCC3EC13FCEB13FBEA1365
:1014C000FAE913F908EC70EF80BAE8C3947FF88B5F
:1014D000838EF0E4FBFCFDFEFF08C3E933F9EA3339
:1014E000FAE58333F583EB3BD4FBEC3CD4FCED3DD8
:1014F000D4FDEE3ED4FEEF3FD4FF602D05F0740521
:101500002BD4FBE43CD4FCE43DD4FDE43ED4FEE427
:101510003FD4FF758204C3EF13FFEE13FEED13FDFE
:10152000EC13FCEB13FBD582EDD8AF783CD0E02078
:10153000E704762B8002762D087906E7C4540F4421
:1015400030F608B90603762E08E7540F4430F60843
:1015500019B902E7764508E5F020E704762B800408
:10156000762DF4040875F00A844430F608E5F0445A
:1015700030F608E4F690003C75F0402220F7103079
:10158000F6118883A88220F507F6A88375830022C8
:10159000F280F7F022AA82AB83ACF07D007E008A55
:1015A000828B838CF0120665FFA3AA82AB83EF6067
:1015B000070DBD00EA0E80E78D828E8322000000B9
:00000001FF
