:10000000020003758151120151E582600302006F05
:10001000780079007A007B007C007D00EC4D601C4C
:1000200088828983E493A3A882A9838A828B83F040
:10003000A3AA82AB831CBCFFE31D80E07582007520
:1000400083007C007D00EC4D600AE4F0A31CBCFF43
:10005000F51D80F27582007583007C007D00EC4DFB
:10006000600AE4F0A31CBCFFF51D80F212015012DF
:10007000040380FE1B5B324A0041444320746573D5
:10008000742070726F6772616D0A46696C653A2000
:1000900025730A436F6D70696C65643A2025732C73
:1000A0002025730A0A00433A5C55736572735C71CC
:1000B000697579755C4F6E6544726976655C446FED
:1000C00063756D656E74735C4769744875625C4CEA
:1000D0004142355C6C61623576312E63004D617250
:1000E00020203620323032340031393A35313A303E
:1000F000340076723A2020202020663A20202020EA
:10010000487A0076743A20202020207068613A20D6
:10011000202020000A706572696F643D25332E32FD
:10012000660D000A564050315F343D25372E356646
:10013000562C20564050315F353D25372E356656BA
:100140000D000D0A646567726565733A20256600C7
:100150002275A7007597DE7597AD75FF8075EF0660
:1001600075A71075C12075A70075A90075A900E5D0
:10017000A930E7FB75A90375A903E5A930E7FB439F
:10018000A41075E10175E20075E340759810858E45
:100190008E758DE6858D8B53890F438920D28ED243
:1001A000997582002275A700C2EF75B28075BC20D8
:1001B00075B91E75E80075DF3F75B300D2EF22AA4E
:1001C00082438E407592B87593FF8592948593957E
:1001D0007591047B00C3EB9A500BE59130E7FB531C
:1001E000917F0B80F075910022AA82AB837C007D09
:1001F00000C3EC9AED9B502B7E00BE0400501D7591
:1002000082FAC002C003C004C005C0061201BFD0FC
:1002100006D005D004D003D0020E80DE0CBC00D185
:100220000D80CE22D2A07582281201BFC2A022AAC0
:10023000828AE0A2E79290A2E69291A2E59292A22F
:10024000E49293C0021202247582281201BFD002E8
:100250008AE0A2E39290A2E29291A2E19292A2E0BD
:100260009293020224AA82D2978A8212022F9000CD
:10027000020201E9AA82C2978A8212022F90000527
:100280000201E9C2A09000141201E9758233120242
:100290007475823312027475823212027475822868
:1002A00012027475820C120274758201120274902B
:1002B00000140201E9AA82AB83ACF07402B52304F6
:1002C0007DC080027D808D82C002C003C004120206
:1002D000749000051201E9D004D003D0027D007EA5
:1002E00000ED2AFFEE3BF88C018F82888389F012A3
:1002F0000919FF60208F82C002C003C004C005C07E
:1003000006120265D006D005D004D003D0020DBD80
:1003100000CF0E80CC3000248D028E03C3EA9410EF
:10032000EB648094805015758220C002C0031202D5
:1003300065D003D0020ABA00E30B80E0225389F0B3
:10034000438901C28C22AA82851CF005F0740180C9
:100350000225E0D5F0FBFB75A720BA0002800ABA9F
:100360000102800FBA021E8014EBF4FA52F1EB4244
:10037000D48012EBF4FA52F2EB42D58008EBF4FA97
:1003800052F3EB42CC75A700228582BBC2EDD2ECC2
:1003900030EDFD85BD8285BE8322120389120935A9
:1003A000AA82AB83ACF0FDC002C003C004C00590BC
:1003B000923A75F05374401209A1AA82AB83ACF053
:1003C000FDE58124FCF581E4C0E074FCC0E0747FAD
:1003D000C0E07446C0E08A828B838CF0ED120AEB99
:1003E000AA82AB83ACF0FDE58124FCF5818A828B87
:1003F000838CF0ED22C2EDD2EC30EDFD85BD82851F
:10040000BE832275240075250075260075270075AA
:100410002A00752B00752C00752D00752E00752F88
:100420000075300075310075320075330075340089
:1004300075350012033D1202839001F41201E97434
:1004400074C0E07400C0E07480C0E0120ABD158181
:100450001581158174E9C0E07400C0E07480C0E0CB
:1004600074DDC0E07400C0E07480C0E074A6C0E039
:100470007400C0E07480C0E07479C0E07400C0E033
:100480007480C0E0120ABDE58124F4F581751C0476
:10049000758201120346751C05758201120346120E
:1004A00001A5752301D2009000F275F0801202B50B
:1004B000752302D20090010375F0801202B5E4F5B5
:1004C00028F529C3E528940AE5296480948040032F
:1004D000020620758A00758C00C28D75220020816D
:1004E000FD3081FDD28C308109108D0280F805220B
:1004F00080F4208109108D0280F8052280F4C28CDE
:10050000852282120A44AE82AF83AAF0FBC006C0E5
:1005100007C002C00390000075F08074471209A163
:1005200085823685833785F038F539E58124FCF5F9
:1005300081858C82120A44AE82AF83AAF0FBC0068A
:10054000C007C002C00390000075F0807443120918
:10055000A1AA82AB83ACF0FDE58124FCF581C00249
:10056000C003C004C0058536828537838538F0E531
:1005700039120A4F85823685833785F038F539E59B
:100580008124FCF581AE8A7F008E828F83120ADE81
:10059000AE82AF83AAF0FBC006C007C002C00385CD
:1005A00036828537838538F0E539120A4FAA82AB47
:1005B00083ACF0FDE58124FCF581C002C003C004DA
:1005C000C00590F4FC75F03274341209A1AA82AB14
:1005D00083ACF0FDE58124FCF581C002C003C004BA
:1005E000C005C024C025C026C0278A828B838CF01A
:1005F000ED120941AE82E58124FCF581D005D004DD
:10060000D003D002EE60088A248B258C268D27909B
:1006100000011201E90528E4B5280205290204C3F6
:100620007A007B00C3EA9414EB6480948040030258
:10063000070275820AC002C00312039AAC82AD831E
:10064000AEF0FF783AA60408A60508A60608A60795
:1006500075820B12039AAC82AD83AEF0FF783EA692
:100660000408A60508A60608A607783A86040886A0
:1006700005088606088607C004C005C006C00785B1
:100680002A82852B83852CF0E52D120971AC82E539
:100690008124FCF581D003D002EC600D783A862AE3
:1006A00008862B08862C08862D783E860408860549
:1006B000088606088607C002C003C004C005C0063D
:1006C000C007852E82852F838530F0E531120971B0
:1006D000AC82E58124FCF581D003D002EC600D787A
:1006E0003E862E08862F088630088631900001C08D
:1006F00002C0031201E9D003D0020ABA00010B02C2
:100700000624C024C025C026C02790000075F07ABA
:1007100074441209A1AA82AB83ACF0FDE58124FCEC
:10072000F581C002C003C004C0057414C0E07401A8
:10073000C0E07480C0E0120ABDE58124F9F581C0F3
:100740002EC02FC030C031C02AC02BC02CC02D7489
:1007500023C0E07401C0E07480C0E0120ABDE581EE
:1007600024F5F5812081033082FA30810C75320046
:1007700075330075348075353F30820C75320075E5
:1007800033007534807535BF9000011201E9758A18
:1007900000758C00C28D7522002081FD3081FD30F6
:1007A000811520820E30810BD28C108D0280F305D2
:1007B0002280EFC28C80E8852282120A44AA82AB92
:1007C00083ACF0FDC002C003C004C00590000075FA
:1007D000F08074471209A185823685833785F03809
:1007E000F539E58124FCF581858C82120A44AE82BC
:1007F000AF83AAF0FBC006C007C002C00390000090
:1008000075F08074431209A1AA82AB83ACF0FDE5B8
:100810008124FCF581C002C003C004C00585368276
:100820008537838538F0E539120A4F85823685830E
:100830003785F038F539E58124FCF581AE8A7F00F3
:100840008E828F83120ADEAE82AF83AAF0FBC006CF
:10085000C007C002C0038536828537838538F0E53E
:1008600039120A4FAA82AB83ACF0FDE58124FCF576
:1008700081C002C003C004C00590F4FC75F032745E
:10088000341209A1AA82AB83ACF0FDE58124FCF50A
:1008900081C002C003C004C00585328285338385D0
:1008A00034F0E5351209A1AA82AB83ACF0FDE581F5
:1008B00024FCF581C002C003C004C005900000758F
:1008C000F0B474431209A1AA82AB83ACF0FDE581B8
:1008D00024FCF581C024C025C026C0278A828B83D2
:1008E0008CF0ED120AEBAA82AB83ACF0FDE581241B
:1008F000FCF581C002C003C004C0057442C0E074AE
:1009000001C0E07480C0E0120ABDE58124F9F581E0
:100910009001F41201E90204BE20F71430F61488A5
:1009200083A88220F507E6A88375830022E280F77A
:10093000E49322E022E4AC83AB82FAF9748E020CD9
:1009400013FFA8811818120C3BD2D133E6400730B0
:10095000E70B7582012220E70675820022C2D112C0
:100960000C1DE97003F5822230D101B3E433F58226
:1009700022FFA8811818120C3BD2D133E640073071
:10098000E70B7582002220E70675820122C2D11290
:100990000C1DE97003F5822220D101B3E433F58206
:1009A00022120CE8BC0003020C87EF60FA30D5027B
:1009B000B2D1E583B4FF03020C9DE582B4FF0302CC
:1009C0000C9D258340072482400B020C872483144E
:1009D0005003020C9DF582EA8DF0A4A8F0EA8EF097
:1009E000A428F8E435F0F9EB8DF0A428E935F0F906
:1009F000E433CA8FF0A429F9EA35F0FAEBF88EF067
:100A0000A429F9EA35F0FAE433FBEC8DF0A429F9D6
:100A1000EA35F0FAE43BFBE88FF0A42AFAEB35F074
:100A2000FBE433CCFD8EF0A42AFAEB35F0FBE43C7A
:100A3000FCED8FF0A42BFBEC35F0FC20E703120C4F
:100A4000B5020C66E4AC82FBFAF97486020C131250
:100A50000CE87900E583B58202800D5003120D1673
:100A6000E583C39582120D30E5D0C465D020E1172F
:100A7000EA2DFAEB3EFBEC3FFC50097401120D30FD
:100A8000EC4480FC020C66C3EA9DFAEB9EFBEC9FF3
:100A9000FC500FC3E499F9E49AFAE49BFBE49CFC54
:100AA000B2D1120CB5020C660216FF85821885833E
:100AB0001985F01A85091B900AA8021152C00885F1
:100AC0008108E50824FBF51BE50824FBF8861808D7
:100AD000861908861A900AA8121152D00822AC83EF
:100AE000AB827A007900748E02171D120CE830D5A3
:100AF00002B2D1BF0009BC0003020CAA020C9DBCCB
:100B00000003020C87E583B4FF0BE582B4FF030208
:100B10000CAA020C87E582B4FF03020C9DC39583E7
:100B20005007247F400B020C872480145003020CD2
:100B30009DC0E0E4CCCBCAF98D1C8E1D8F1EEF54F6
:100B4000F0C4F51F758306851FF0EB84F582E9C4B8
:100B5000F9EAC4FAEBC4FBEC540FC47803D6FC18D2
:100B6000EBD6FB18EAD6FA8582F0EDA4A8F0FD8555
:100B700082F0EEA428FEE435F0F88582F0EFA42898
:100B8000FFE435F0F8E99DF9EA9EFAEB9FFBEC985B
:100B9000FCAD1CAE1DAF1E30E7101582E92DF9EA41
:100BA0003EFAEB3FFBE43CFC80EDC082D58398C36A
:100BB000E933F9EA33FAEB33FBEC33FCC3E99DEAA2
:100BC0009EEB9FEC9400B3E413F9D002D0E0C44A4A
:100BD000FAD003D0E0C44BFBD004D0E0F5F0540FC2
:100BE000C44CFCD082158230F40FD3EC13FCEB1311
:100BF000FBEA13FAE913F90582E930E70A74012ADE
:100C0000FAE43BFBE43CFC020C7EFCABF0AA83A9BB
:100C100082749EC2D1F582120CB5020C667901AACB
:100C200082E68F82B5821318E6B5F00E18E6B5831A
:100C30000918E68A82B58202790022B4800FE5F0B5
:100C4000700AE5837006E58270027F00EFB68015BA
:100C500018B6001018B6000B18B60006080808767B
:100C6000002208080822B98003EA13B34010EA24DE
:100C700001FAE43BFBE43CFC50047C800582BC00B0
:100C80000EBB000BBA0008E4F5F0F583F58222A252
:100C9000D1E582138CF092F78B838A8222E4F5836C
:100CA000F58275F080F4A2D11322E4F583F5827504
:100CB000F0C0747F227804EC7011E58224F8500AA9
:100CC000F582E4C9CACBFCD8EF22EC78200582205B
:100CD000E713D5820122C3E933F9EA33FAEB33FB98
:100CE000EC33FCD8EA158222AA82AB83A2F73392B6
:100CF000D16002D2F7F582ACF0E58124F9F8E6FD87
:100D000008E6FE0886F008E6A2F73392D56002D224
:100D1000F7F583AFF022E582C583F582A2D133A235
:100D2000D592D11392D5ECCFFCEBCEFBEACDFA22D3
:100D30006040F82582500274FFF582E824F8501EC6
:100D4000CCCBCAF9E4CC24F85014CBCAF9E4CB24B8
:100D5000F8500BCAF9E4CA24F85003790022240899
:100D60006010F8C3EC13FCEB13FBEA13FAE913F978
:100D7000D8F122AA827484C0E0740DC0E0C00AC019
:100D80000B8A82220511E4B51102051222AA82748F
:100D9000302AFA24C6500A74072AFA3001034302A3
:100DA000208A82020D73E582FAC4540FF582C002D4
:100DB000120D8DD002740F5AF582020D8DAA0CAB64
:100DC0000DAC0EAD0FAE10751720EE2EFEED2354B8
:100DD00001FF4206EA2AFAEB33FBEC33FCED33FD6C
:100DE000C3EE95134008EEC39513FE430201D517D9
:100DF000D98A0C8B0D8C0E8D0F8E1022784EE62426
:100E0000D075F00AA4FA784FE624D02AFA784D86F5
:100E100003BB2D04C3E49AFA751301C3E464808A0A
:100E2000F063F08095F050297517038A0374F62556
:100E300017401C0513E517142442F8E5172442F95E
:100E40008704A604772E1BEBFA6004051780DE8B5F
:100E500002EA30E70D784386037844A603784376A8
:100E60002E0AE515600AE51504FB2513F513800528
:100E7000300C02051378428603E4BB2D0104FB709D
:100E8000062007033008020513300503020F433024
:100E90000657EB600C75822DC002120D73D00280D4
:100EA0001C30070C75822BC002120D73D002800D0E
:100EB00030080A758220C002120D73D00278438672
:100EC00004BC2E0C758230C002120D73D0021514B2
:100ED000AC141514C3E5139C4003020F87758230D0
:100EE000C002120D73D00280E7AC141514C3E513D1
:100EF0009C500C758220C002120D73D00280EA78DB
:100F0000428604BC2D0C75822DC002120D73D002D6
:100F1000801C30070C75822BC002120D73D002802A
:100F20000D30080A758220C002120D73D00278437A
:100F30008604BC2E52758230C002120D73D0021589
:100F4000148044EB600E75822DC002120D73D00226
:100F50001514802030070E75822BC002120D73D03D
:100F6000021514800F30080C758220C002120D7318
:100F7000D002151478438603BB2E0C758230C00254
:100F8000120D73D0021514751701C20EE517244215
:100F9000F88603BB4503021044BB2E348A03C3E426
:100FA00064808BF063F08095F0500F758230C00341
:100FB000120D73D0031B8B0280E48B02D20EE51559
:100FC0007038200C0302104475822E120D73807449
:100FD000300E278A03EB30E71FC3E464808515F0E9
:100FE00063F08095F0500C758230C003120D73D001
:100FF0000315150B8B0280DD8B02300E0EC3E464EB
:10100000808515F063F08095F05021E5172442F8B3
:1010100086038B82C002120D73D002300E0EE517CC
:101020002442F88603BB2E02800215151514C3E472
:1010300064808515F063F08095F04003200E05056F
:1010400017020F8CC3E464808515F063F08095F07F
:10105000500A758230120D73151580E830050FAAFD
:10106000141514EA6008758220120D7380F122E5D0
:10107000157003300C0D74072515FAE514C39AF5A5
:10108000148006E51424FAF51475170078428602D8
:10109000BA2B0F20070C784276202008057517011F
:1010A0000514200519AA14C3E464808AF063F08053
:1010B00095F0500A758220120D73151480E7C20E48
:1010C000E5172442F88602BA00028069BA451F304B
:1010D00001027665C3E464808515F063F08095F0C5
:1010E000500A758230120D73151580E8D20EC3E5D3
:1010F000179402E433FA7014EA700EC3E464808536
:1011000015F063F08095F04003300E16E517244289
:10111000F886028A82120D73E51724FD5012151508
:10112000800E7402B51709300C0675822E120D73ED
:1011300005170210C0300519AA14C3E464808AF0B0
:1011400063F08095F0500A758220120D731514809B
:10115000E72285820A85830BE4F511F512AA18AB04
:1011600019AC1A8A828B838CF0120919FD74012A3A
:10117000F518E43BF5198C1AEDFA70030216F8BA6B
:10118000250280030216F0C205C206C207C208C2C9
:1011900009C20AC20BC20CC202C203C20475130008
:1011A0007514007515FFAB18AC19AD1A8B828C83C2
:1011B0008DF0120919FAA3AB82AC838B188C198DB0
:1011C0001ABA25078A82120D7380928A06BE3000F1
:1011D000402E8A06EE24C6402774FFB51513E51489
:1011E00075F00AA4FEEA24D02EF51470BFD2068052
:1011F000BBE51575F00AA4FEEA24D02EF51580ACE7
:10120000BA2E0A74FFB515A4751500809F8A06BE14
:101210006100400E8A06EE248540075302DFD201AA
:101220008002C201BA20028075BA23030212ADBA4D
:101230002A030212B2BA2B02805FBA2D028055BA7D
:101240004202805FBA43030212F7BA440302143227
:10125000BA450302144CBA4603021448BA470302C3
:101260001450BA4903021432BA4C02803BBA4E03FE
:10127000021454BA4F03021439BA50030213CBBA02
:10128000530302131BBA550302143EBA5803021447
:101290004302147ED2050211ACD2070211ACD2086F
:1012A0000211ACD20A0211ACD20B0211ACD20C0268
:1012B00011AC74FFB51520300A0BE51B14F8881B20
:1012C00086140211ACE51B24FEF8881B86060886EE
:1012D00007188E140211AC300A0BE51B14F8881B9A
:1012E00086150211ACE51B24FEF8881B86060886CD
:1012F00007188E150211AC300A0AE51B14F8881B7A
:101300008602800FE51B24FEF8881B8603088604EE
:10131000188B028A82120D73021483E51B24FDF8D8
:10132000881B860308860408860518188B0C8C0D0C
:101330008D0E8B828C838DF0121879AB82AC838BEF
:101340001674FFB5150385161520051DC3E5169502
:10135000145016E514C39516F514AB141514EB6070
:1013600008758220120D7380F1850C82850D8385AE
:101370000EF0120919FBFA6029AB151515C3E464C8
:10138000808BF063F08095F050188A82120D73AB59
:101390000CAC0DAD0E0BBB00010C8B0C8C0D8D0E2F
:1013A00080C7200503021483C3E516951440030289
:1013B0001483E514C39516F514AB141514EB7003E0
:1013C000021483758220120D7380EEE51B24FDF854
:1013D000881B860308860408860518188B0C8C0D5C
:1013E0008D0EE50EFB30E7047A438013EB5460600A
:1013F000047A50800AEB30E6047A4980027A588AEF
:1014000082C002120D7375823A120D73758230120A
:101410000D73758278120D73D002BA4902800BBA2F
:1014200050028006850D82120DA6850C82120DA633
:101430008051D20975130A804A75130880457513C7
:101440000A8040751310803BD2028037D20380336C
:10145000D204802FE51B24FDF8881B860308860430
:1014600008860518188B0C8C0D8D0E8B828C838D45
:10147000F0E511121860A3E51212186080058A8247
:10148000120D73200206200303300470E51B24FCB8
:10149000F8881B860308860408860508860618183F
:1014A000188B0C8C0D8D0E8E0FE50CE50DE50EE501
:1014B0000F8B828C838DF0EE12174174FFB51503EC
:1014C000751506300427747F550FFB8B10E510EB64
:1014D0002BFB8B10E50E30E70674014510F510E587
:1014E0001024684006749925104002D20330030688
:1014F00012106F02115D120DFC02115DE5137003F5
:1015000002115D7B47300A2BE51B14F8881BE6FCB3
:101510003395E0FDFEFF8C0C8D0D8E0E8F0F200994
:101520005EAC0C7D007E007F008C0C8D0D8E0E8FCE
:101530000F804C300B1FE51B24FCF8881B86040829
:1015400086050886060886071818188C0C8D0D8EDF
:101550000E8F0F802AE51B24FEF8881B8604088660
:101560000518ED3395E0FEFF8C0C8D0D8E0E8F0F60
:1015700020090CAC0CAD0D7E007F008E0E8F0F305D
:101580000C43E50C450D450E450F60397408B51345
:101590000C758230C003120D73D00380287410B50F
:1015A0001323758230C003120D73D00330010C7504
:1015B0008278C003120D73D003800A758258C0036D
:1015C000120D73D003300925AC0CAD0DAE0EE50F36
:1015D000FF30E717C3E49CFCE49DFDE49EFEE49F1E
:1015E000FF8C0C8D0D8E0E8F0F8002C209751600B8
:1015F000D20D8B00751000C000120DBDD000200D63
:101600000DE510C4FCE6FD4CF61888038002A61018
:101610000516B20DE50C450D450E450F70D6880335
:10162000E514700375140120061A200517E5160449
:10163000FCC39514500E758220C003120D73D003A5
:10164000151480E930090E75822DC003120D73D078
:101650000315148024E516602030070E75822BC018
:1016600003120D73D0031514800F30080C758220FF
:10167000C003120D73D003151420051EAC141514ED
:10168000C3E5169C50273006047C3080027C208CF9
:1016900082C003120D73D00380E2C3E51695145087
:1016A00009E514C39516F51480037514008B00AB7F
:1016B000161516EB6022B20D200D0A08E6C4540F71
:1016C000FB8B1080078603740F5BF510851082C0BA
:1016D00000120D8DD00080D720050302115DAB14E0
:1016E0001514EB700302115D758220120D7380EEEC
:1016F0008A82120D7302115D85118285128322AADE
:1017000082BA0A0810990280FB75990D109902801F
:10171000FB8A9922FCABF0AA83A982749EF582C24F
:10172000D1EC30E716D2D1E9F42401F9EAF434001F
:10173000FAEBF43400FBECF43400FC120CB5020CB0
:1017400066C0E0F84582458345F07009F5F0FBFC82
:10175000FDFE02180FE823A2F792E0F8A982AA83FF
:10176000D2F7ABF07C007E07C3749798404074FFBB
:101770002EFE740A89F0A4F985F082740A8AF0A416
:10178000FA85F083740A8BF0A4FB740529F9EA3515
:1017900082FAEB3583FB740035F0FCC3EC13FCEBF1
:1017A00013FBEA13FAE913F908EC70EF80BAE8C307
:1017B000947FF88B838EF0E4FBFCFDFEFF08C3E909
:1017C00033F9EA33FAE58333F583EB3BD4FBEC3CA6
:1017D000D4FCED3DD4FDEE3ED4FEEF3FD4FF602DB2
:1017E00005F074052BD4FBE43CD4FCE43DD4FDE4CB
:1017F0003ED4FEE43FD4FF758204C3EF13FFEE1323
:10180000FEED13FDEC13FCEB13FBD582EDD8AF78A6
:1018100042D0E020E704762B8002762D087906E797
:10182000C4540F4430F608B90603762E08E7540F67
:101830004430F60819B902E7764508E5F020E704D8
:10184000762B8004762DF4040875F00A844430F673
:1018500008E5F04430F608E4F690004275F04022C6
:1018600020F71030F6118883A88220F507F6A883A8
:1018700075830022F280F7F022AA82AB83ACF07D60
:10188000007E008A828B838CF0120919FFA3AA8242
:10189000AB83EF60070DBD00EA0E80E78D828E837B
:1018A0002200000000000000000000000000000016
:00000001FF
