:10000000020003758131120126E582600302006F50
:10001000780079007A007B007C007D00EC4D601C4C
:1000200088828983E493A3A882A9838A828B83F040
:10003000A3AA82AB831CBCFFE31D80E07582007520
:1000400083007C007D00EC4D600AE4F0A31CBCFF43
:10005000F51D80F27582007583007C007D00EC4DFB
:10006000600AE4F0A31CBCFFF51D80F2120125120A
:1000700001DF80FE1B5B324A0045464D382050654B
:1000800072696F64206D6561737572656D656E74FC
:100090002061742070696E2050302E312075736994
:1000A0006E672054696D657220302E0A46696C6552
:1000B0003A2025730A436F6D70696C65643A202598
:1000C000732C2025730A0A00433A5C5573657273DA
:1000D0005C71697579755C4F6E6544726976655CB3
:1000E000446F63756D656E74735C476974487562BF
:1000F0005C4C4142355C506572696F6445464D38D1
:100100002E63004D617220203420323032340031B1
:10011000373A34303A3233000D543D2566206D7342
:1001200020202020002275A7007597DE7597AD432B
:10013000FF8075EF0275A71075C12075A70075A91E
:100140000075A900E5A930E7FB75A90375A903E5CA
:10015000A930E7FB43A41075E10175E20075E340A7
:10016000759810858E8E758DE6858D8B53890F431E
:100170008920D28ED29975820022AA82438E407540
:1001800092B87593FF8592948593957591047B0041
:10019000C3EB9A500BE59130E7FB53917F0B80F056
:1001A00075910022AA82AB83BA0004BB00012275BC
:1001B00082F9C002C00312017A7582F912017A75C0
:1001C00082F912017A7582FA12017AD003D0021AEA
:1001D000BAFF011B80D25389F0438901C28C2212DD
:1001E00001D69001F41201A47474C0E07400C0E060
:1001F0007480C0E0120368158115811581740FC0E9
:10020000E07401C0E07480C0E07403C0E07401C019
:10021000E07480C0E074C8C0E07400C0E07480C0C6
:10022000E07479C0E07400C0E07480C0E01203683C
:10023000E58124F4F581C28C758901758C00758A7D
:100240000020A2FD30A2FDD28C20A2FDC28CAB8C7E
:100250007A00AC8A7D00EC2AFAED3B8A82C58225C1
:10026000E0C58233F583120389AA82AB83ACF0FD2B
:10027000C002C003C004C00590000075F07A744449
:100280001202B0AA82AB83ACF0FDE58124FCF581BB
:10029000C002C003C004C0057418C0E07401C0E00F
:1002A0007480C0E0120368E58124F9F5810202360A
:1002B000120418BC00030203B7EF60FA30D502B293
:1002C000D1E583B4FF030203CDE582B4FF0302034B
:1002D000CD258340072482400B0203B724831450AA
:1002E000030203CDF582EA8DF0A4A8F0EA8EF0A413
:1002F00028F8E435F0F9EB8DF0A428E935F0F9E4BD
:1003000033CA8FF0A429F9EA35F0FAEBF88EF0A49D
:1003100029F9EA35F0FAE433FBEC8DF0A429F9EA87
:1003200035F0FAE43BFBE88FF0A42AFAEB35F0FB5A
:10033000E433CCFD8EF0A42AFAEB35F0FBE43CFC70
:10034000ED8FF0A42BFBEC35F0FC20E7031203E566
:10035000020396020DD285821985831A85F01B85CA
:100360000A1C900353020825C008858108E508246B
:10037000FBF51CE50824FBF8861908861A08861B7D
:10038000900353120825D00822AC83AB827A0079FF
:1003900000748E020DF0B98003EA13B34010EA2412
:1003A00001FAE43BFBE43CFC50047C800582BC0089
:1003B0000EBB000BBA0008E4F5F0F583F58222A22B
:1003C000D1E582138CF092F78B838A8222E4F58345
:1003D000F58275F080F4A2D11322E4F583F58275DD
:1003E000F0C0747F227804EC7011E58224F8500A82
:1003F000F582E4C9CACBFCD8EF22EC782005822034
:10040000E713D5820122C3E933F9EA33FAEB33FB70
:10041000EC33FCD8EA158222AA82AB83A2F733928E
:10042000D16002D2F7F582ACF0E58124F9F8E6FD5F
:1004300008E6FE0886F008E6A2F73392D56002D2FD
:10044000F7F583AFF022AA827457C0E07404C0E0CD
:10045000C00BC00C8A82220512E4B51202051322D9
:10046000AA8274302AFA24C6500A74072AFA300085
:10047000034302208A82020446E582FAC4540FF53F
:1004800082C002120460D002740F5AF58202046026
:10049000AA0DAB0EAC0FAD10AE11751820EE2EFEEE
:1004A000ED235401FF4206EA2AFAEB33FBEC33FC5E
:1004B000ED33FDC3EE95144008EEC39514FE4302E0
:1004C00001D518D98A0D8B0E8C0F8D108E112278C4
:1004D0002EE624D075F00AA4FA782FE624D02AFA62
:1004E000782D8603BB2D04C3E49AFA751401C3E486
:1004F00064808AF063F08095F050297518038A03B0
:1005000074F62518401C0514E518142422F8E51883
:100510002422F98704A604772E1BEBFA6004051841
:1005200080DE8B02EA30E70D782386037824A60369
:100530007823762E0AE516600AE51604FB2514F5E5
:10054000148005300B02051478228603E4BB2D01CC
:1005500004FB700620060330070205143004030272
:100560000616300557EB600C75822DC0021204464A
:10057000D002801C30060C75822BC002120446D0BB
:1005800002800D30070A758220C002120446D00294
:1005900078238604BC2E0C758230C002120446D02B
:1005A000021515AC151515C3E5149C400302065A37
:1005B000758230C002120446D00280E7AC151515D2
:1005C000C3E5149C500C758220C002120446D00270
:1005D00080EA78228604BC2D0C75822DC00212049C
:1005E00046D002801C30060C75822BC002120446D5
:1005F000D002800D30070A758220C002120446D056
:100600000278238604BC2E52758230C00212044642
:10061000D00215158044EB600E75822DC0021204C5
:1006200046D0021515802030060E75822BC00212AE
:100630000446D0021515800F30070C758220C002C9
:10064000120446D002151578238603BB2E0C758242
:1006500030C002120446D0021515751801C20DE50E
:10066000182422F88603BB4503020717BB2E348AE1
:1006700003C3E464808BF063F08095F0500F7582C3
:1006800030C003120446D0031B8B0280E48B02D2DD
:100690000DE5167038200B0302071775822E120421
:1006A000468074300D278A03EB30E71FC3E4648073
:1006B0008516F063F08095F0500C758230C00312FF
:1006C0000446D00315160B8B0280DD8B02300D0E15
:1006D000C3E464808516F063F08095F05021E5183E
:1006E0002422F886038B82C002120446D002300D09
:1006F0000EE5182422F88603BB2E0280021516157B
:1007000015C3E464808516F063F08095F040032003
:100710000D05051802065FC3E464808516F063F0DA
:100720008095F0500A758230120446151680E83024
:10073000040FAA151515EA60087582201204468078
:10074000F122E5167003300B0D74072516FAE51536
:10075000C39AF5158006E51524FAF5157518007885
:10076000228602BA2B0F20060C782276202007055D
:100770007518010515200419AA15C3E464808AF0D0
:1007800063F08095F0500A7582201204461515809A
:10079000E7C20DE5182422F88602BA00028069BA81
:1007A000451F3000027665C3E464808516F063F06F
:1007B0008095F0500A758230120446151680E8D2F2
:1007C0000DC3E5189402E433FA7014EA700EC3E422
:1007D00064808516F063F08095F04003300D16E5D7
:1007E000182422F886028A82120446E51824FD5055
:1007F000121516800E7402B51809300B0675822E7C
:100800001204460518020793300419AA15C3E464BC
:10081000808AF063F08095F0500A758220120446B9
:10082000151580E72285820B85830CE4F512F513FC
:10083000AA19AB1AAC1B8A828B838CF0120E14FDA2
:1008400074012AF519E43BF51A8C1BEDFA700302CA
:100850000DCBBA25028003020DC3C204C205C20635
:10086000C207C208C209C20AC20BC201C202C20345
:100870007514007515007516FFAB19AC1AAD1B8BFE
:10088000828C838DF0120E14FAA3AB82AC838B1989
:100890008C1A8D1BBA25078A8212044680928A061A
:1008A000BE3000402E8A06EE24C6402774FFB516DF
:1008B00013E51575F00AA4FEEA24D02EF51570BFD5
:1008C000D20580BBE51675F00AA4FEEA24D02EF509
:1008D0001680ACBA2E0A74FFB516A4751600809F58
:1008E0008A06BE6100400E8A06EE24854007530248
:1008F000DFD2008002C200BA20028075BA23030250
:100900000980BA2A03020985BA2B02805FBA2D0238
:100910008055BA4202805FBA43030209CABA44034F
:10092000020B05BA4503020B1FBA4603020B1BBAA2
:100930004703020B23BA4903020B05BA4C02803B62
:10094000BA4E03020B27BA4F03020B0CBA50030234
:100950000A9EBA53030209EEBA5503020B11BA58A4
:1009600003020B16020B51D20402087FD2060208C2
:100970007FD20702087FD20902087FD20A02087FCD
:10098000D20B02087F74FFB5162030090BE51C144A
:10099000F8881C861502087FE51C24FEF8881C8652
:1009A00006088607188E1502087F30090BE51C140F
:1009B000F8881C861602087FE51C24FEF8881C8631
:1009C00006088607188E1602087F30090AE51C14EF
:1009D000F8881C8602800FE51C24FEF8881C86031C
:1009E000088604188B028A82120446020B56E51C04
:1009F00024FDF8881C860308860408860518188BD1
:100A00000D8C0E8D0F8B828C838DF0120F68AB8254
:100A1000AC838B1774FFB5160385171620041DC30E
:100A2000E51795155016E515C39517F515AB151572
:100A300015EB600875822012044680F1850D8285D1
:100A40000E83850FF0120E14FBFA6029AB161516F3
:100A5000C3E464808BF063F08095F050188A8212B2
:100A60000446AB0DAC0EAD0F0BBB00010C8B0D8C17
:100A70000E8D0F80C7200403020B56C3E517951592
:100A80004003020B56E515C39517F515AB15151563
:100A9000EB7003020B5675822012044680EEE51CB3
:100AA00024FDF8881C860308860408860518188B20
:100AB0000D8C0E8D0FE50FFB30E7047A438013EBAE
:100AC000546060047A50800AEB30E6047A49800270
:100AD0007A588A82C00212044675823A1204467518
:100AE0008230120446758278120446D002BA490256
:100AF000800BBA50028006850E82120479850D8221
:100B00001204798051D20875140A804A751408803D
:100B10004575140A8040751410803BD2018037D28D
:100B2000028033D203802FE51C24FDF8881C860345
:100B300008860408860518188B0D8C0E8D0F8B8285
:100B40008C838DF0E512120F4FA3E513120F4F8027
:100B5000058A82120446200106200203300370E554
:100B60001C24FCF8881C8603088604088605088671
:100B7000061818188B0D8C0E8D0F8E10E50DE50ED6
:100B8000E50FE5108B828C838DF0EE120E3074FF32
:100B9000B51603751606300327747F5510FB8B11AD
:100BA000E511EB2BFB8B11E50F30E70674014511C6
:100BB000F511E51124684006749925114002D2020E
:100BC0003002061207420208301204CF020830E554
:100BD0001470030208307B2730092BE51C14F888B9
:100BE0001CE6FC3395E0FDFEFF8C0D8D0E8E0F8F05
:100BF0001020085EAC0D7D007E007F008C0D8D0EF8
:100C00008E0F8F10804C300A1FE51C24FCF8881CC6
:100C100086040886050886060886071818188C0DAD
:100C20008D0E8E0F8F10802AE51C24FEF8881C86FE
:100C30000408860518ED3395E0FEFF8C0D8D0E8EB1
:100C40000F8F1020080CAC0DAD0E7E007F008E0FB4
:100C50008F10300B43E50D450E450F45106039747C
:100C600008B5140C758230C003120446D0038028E6
:100C70007410B51423758230C003120446D00330BB
:100C8000000C758278C003120446D003800A758276
:100C900058C003120446D003300825AC0DAD0EAE8B
:100CA0000FE510FF30E717C3E49CFCE49DFDE49ED4
:100CB000FEE49FFF8C0D8D0E8E0F8F108002C208F8
:100CC000751700D20C8B00751100C000120490D073
:100CD00000200C0DE511C4FCE6FD4CF618880380DD
:100CE00002A6110517B20CE50D450E450F45107013
:100CF000D68803E515700375150120051A20041721
:100D0000E51704FCC39515500E758220C00312042C
:100D100046D003151580E930080E75822DC00312E8
:100D20000446D00315158024E517602030060E75A3
:100D3000822BC003120446D0031515800F30070C18
:100D4000758220C003120446D003151520041EAC82
:100D5000151515C3E5179C50273005047C3080021B
:100D60007C208C82C003120446D00380E2C3E517C6
:100D700095155009E515C39517F5158003751500F0
:100D80008B00AB171517EB6022B20C200C0A08E69B
:100D9000C4540FFB8B1180078603740F5BF511851C
:100DA0001182C000120460D00080D7200403020822
:100DB00030AB151515EB7003020830758220120454
:100DC0004680EE8A8212044602083085128285131C
:100DD0008322AA82BA0A0810990280FB75990D1025
:100DE000990280FB8A9922FCABF0AA83A982749EA7
:100DF000F582C2D1EC30E716D2D1E9F42401F9EA48
:100E0000F43400FAEBF43400FBECF43400FC12038D
:100E1000E502039620F71430F6148883A88220F5A3
:100E200007E6A88375830022E280F7E49322E0229C
:100E3000C0E0F84582458345F07009F5F0FBFCFD04
:100E4000FE020EFEE823A2F792E0F8A982AA83D25E
:100E5000F7ABF07C007E07C3749798404074FF2E78
:100E6000FE740A89F0A4F985F082740A8AF0A4FA63
:100E700085F083740A8BF0A4FB740529F9EA3582A6
:100E8000FAEB3583FB740035F0FCC3EC13FCEB1379
:100E9000FBEA13FAE913F908EC70EF80BAE8C3949F
:100EA0007FF88B838EF0E4FBFCFDFEFF08C3E93383
:100EB000F9EA33FAE58333F583EB3BD4FBEC3CD41E
:100EC000FCED3DD4FDEE3ED4FEEF3FD4FF602D059A
:100ED000F074052BD4FBE43CD4FCE43DD4FDE43EAB
:100EE000D4FEE43FD4FF758204C3EF13FFEE13FE7C
:100EF000ED13FDEC13FCEB13FBD582EDD8AF78229C
:100F0000D0E020E704762B8002762D087906E7C42E
:100F1000540F4430F608B90603762E08E7540F4400
:100F200030F60819B902E7764508E5F020E70476BF
:100F30002B8004762DF4040875F00A844430F608FA
:100F4000E5F04430F608E4F690002275F0402220E7
:100F5000F71030F6118883A88220F507F6A883756C
:100F6000830022F280F7F022AA82AB83ACF07D00EE
:100F70007E008A828B838CF0120E14FFA3AA82ABB0
:100F800083EF60070DBD00EA0E80E78D828E83221D
:00000001FF
