:10000000020003758131120126E582600302006F50
:10001000780079007A007B007C007D00EC4D601C4C
:1000200088828983E493A3A882A9838A828B83F040
:10003000A3AA82AB831CBCFFE31D80E07582007520
:1000400083007C007D00EC4D600AE4F0A31CBCFF43
:10005000F51D80F27582007583007C007D00EC4DFB
:10006000600AE4F0A31CBCFFF51D80F2120125120A
:1000700001DF80FE1B5B324A0045464D382050654B
:1000800072696F64206D6561737572656D656E74FC
:100090002061742070696E2050302E312075736994
:1000A0006E672054696D657220302E0A46696C6552
:1000B0003A2025730A436F6D70696C65643A202598
:1000C000732C2025730A0A00433A5C5573657273DA
:1000D0005C71697579755C4F6E6544726976655CB3
:1000E000446F63756D656E74735C476974487562BF
:1000F0005C4C4142355C506572696F6445464D38D1
:100100002E63004D617220203420323032340031B1
:10011000373A31353A3132000D543D2566206D7342
:1001200020202020002275A7007597DE7597AD432B
:10013000FF8075EF0275A71075C12075A70075A91E
:100140000075A900E5A930E7FB75A90375A903E5CA
:10015000A930E7FB43A41075E10175E20075E340A7
:10016000759810858E8E758DE6858D8B53890F431E
:100170008920D28ED29975820022AA82438E407540
:1001800092B87593FF8592948593957591047B0041
:10019000C3EB9A500BE59130E7FB53917F0B80F056
:1001A00075910022AA82AB83BA0004BB00012275BC
:1001B00082F9C002C00312017A7582F912017A75C0
:1001C00082F912017A7582FA12017AD003D0021AEA
:1001D000BAFF011B80D25389F0438901C28C2212DD
:1001E00001D69001F41201A47474C0E07400C0E060
:1001F0007480C0E01204A9158115811581740FC0A7
:10020000E07401C0E07480C0E07403C0E07401C019
:10021000E07480C0E074C8C0E07400C0E07480C0C6
:10022000E07479C0E07400C0E07480C0E01204A9FA
:10023000E58124F4F581758A00758C00C28D7509FD
:10024000002081FD3081FDD28C308109108D02802B
:10025000F8050980F4208109108D0280F8050980D5
:10026000F4C28C850982120430AA82AB83ACF0FD03
:10027000C002C003C004C00590000075F080744740
:1002800012038DAA82AB83ACF0FDE58124FCF581DD
:10029000858C82C002C003C004C005120430AE8247
:1002A000AF83A8F0F9C006C007C000C001900000ED
:1002B00075F080744312038DAE82AF83A8F0F9E528
:1002C0008124FCF581D005D004D003D002C006C043
:1002D00007C000C0018A828B838CF0ED12043BAA18
:1002E00082AB83ACF0FDE58124FCF581AE8A7F0012
:1002F0008E828F83C002C003C004C0051204CAAE40
:1003000082AF83A8F0F9D005D004D003D002C00694
:10031000C007C000C0018A828B838CF0ED12043BC1
:10032000AA82AB83ACF0FDE58124FCF581C002C05C
:1003300003C004C00590F4FC75F032743412038DD0
:10034000AA82AB83ACF0FDE58124FCF581C002C03C
:1003500003C004C00590000075F07A744412038D48
:10036000AA82AB83ACF0FDE58124FCF581C002C01C
:1003700003C004C0057418C0E07401C0E07480C0FC
:10038000E01204A9E58124F9F5810202361205592B
:10039000BC00030204F8EF60FA30D502B2D1E58365
:1003A000B4FF0302050EE582B4FF0302050E2583A8
:1003B00040072482400B0204F824831450030205F2
:1003C0000EF582EA8DF0A4A8F0EA8EF0A428F8E4F5
:1003D00035F0F9EB8DF0A428E935F0F9E433CA8F54
:1003E000F0A429F9EA35F0FAEBF88EF0A429F9EA3D
:1003F00035F0FAE433FBEC8DF0A429F9EA35F0FA94
:10040000E43BFBE88FF0A42AFAEB35F0FBE433CCB5
:10041000FD8EF0A42AFAEB35F0FBE43CFCED8FF006
:10042000A42BFBEC35F0FC20E7031205260204D7D1
:10043000E4AC82FBFAF97486020590120559790042
:10044000E583B58202800D500312059AE583C395BA
:10045000821205B4E5D0C465D020E117EA2DFAEB8D
:100460003EFBEC3FFC500974011205B4EC4480FCE7
:100470000204D7C3EA9DFAEB9EFBEC9FFC500FC32E
:10048000E499F9E49AFAE49BFBE49CFCB2D11205EE
:10049000260204D7020F8385821985831A85F01BF3
:1004A000850A1C9004940209D6C008858108E508D5
:1004B00024FBF51CE50824FBF8861908861A088633
:1004C0001B9004941209D6D00822AC83AB827A0028
:1004D0007900748E020FA1B98003EA13B34010EAC9
:1004E0002401FAE43BFBE43CFC50047C800582BC24
:1004F000000EBB000BBA0008E4F5F0F583F582228C
:10050000A2D1E582138CF092F78B838A8222E4F5E4
:1005100083F58275F080F4A2D11322E4F583F5828D
:1005200075F0C0747F227804EC7011E58224F850D5
:100530000AF582E4C9CACBFCD8EF22EC7820058208
:1005400020E713D5820122C3E933F9EA33FAEB330A
:10055000FBEC33FCD8EA158222AA82AB83A2F733E4
:1005600092D16002D2F7F582ACF0E58124F9F8E689
:10057000FD08E6FE0886F008E6A2F73392D5600291
:10058000D2F7F583AFF022FCABF0AA83A982749E68
:10059000C2D1F5821205260204D7E582C583F58211
:1005A000A2D133A2D592D11392D5ECCFFCEBCEFBE6
:1005B000EACDFA226040F82582500274FFF582E805
:1005C00024F8501ECCCBCAF9E4CC24F85014CBCA82
:1005D000F9E4CB24F8500BCAF9E4CA24F8500379A3
:1005E000002224086010F8C3EC13FCEB13FBEA13A1
:1005F000FAE913F9D8F122AA827408C0E07406C09F
:10060000E0C00BC00C8A82220512E4B51202051369
:1006100022AA8274302AFA24C6500A74072AFA30B1
:1006200000034302208A820205F7E582FAC4540FD0
:10063000F582C002120611D002740F5AF58202062A
:1006400011AA0DAB0EAC0FAD10AE11751820EE2E29
:10065000FEED235401FF4206EA2AFAEB33FBEC33AA
:10066000FCED33FDC3EE95144008EEC39514FE4334
:100670000201D518D98A0D8B0E8C0F8D108E112288
:10068000782EE624D075F00AA4FA782FE624D02A32
:10069000FA782D8603BB2D04C3E49AFA751401C3BE
:1006A000E464808AF063F08095F050297518038A1D
:1006B0000374F62518401C0514E518142422F8E5E7
:1006C000182422F98704A604772E1BEBFA60040590
:1006D0001880DE8B02EA30E70D782386037824A6A3
:1006E000037823762E0AE516600AE51604FB251426
:1006F000F5148005300B02051478228603E4BB2D27
:100700000104FB70062006033007020514300403C1
:100710000207C7300557EB600C75822DC002120529
:10072000F7D002801C30060C75822BC0021205F730
:10073000D002800D30070A758220C0021205F7D062
:100740000278238604BC2E0C758230C0021205F795
:10075000D0021515AC151515C3E5149C400302080D
:100760000B758230C0021205F7D00280E7AC151578
:1007700015C3E5149C500C758220C0021205F7D0F9
:100780000280EA78228604BC2D0C75822DC00212EC
:1007900005F7D002801C30060C75822BC0021205B2
:1007A000F7D002800D30070A758220C0021205F7CB
:1007B000D00278238604BC2E52758230C002120506
:1007C000F7D00215158044EB600E75822DC0021221
:1007D00005F7D0021515802030060E75822BC00259
:1007E0001205F7D0021515800F30070C758220C056
:1007F000021205F7D002151578238603BB2E0C755F
:100800008230C0021205F7D0021515751801C20D0D
:10081000E5182422F88603BB45030208C8BB2E3422
:100820008A03C3E464808BF063F08095F0500F7509
:100830008230C0031205F7D0031B8B0280E48B02C9
:10084000D20DE5167038200B030208C875822E12EF
:1008500005F78074300D278A03EB30E71FC3E4648B
:10086000808516F063F08095F0500C758230C003DF
:100870001205F7D00315160B8B0280DD8B02300DAD
:100880000EC3E464808516F063F08095F05021E596
:10089000182422F886038B82C0021205F7D002309A
:1008A0000D0EE5182422F88603BB2E0280021516D1
:1008B0001515C3E464808516F063F08095F040035D
:1008C000200D050518020810C3E464808516F06346
:1008D000F08095F0500A7582301205F7151680E801
:1008E00030040FAA151515EA60087582201205F765
:1008F00080F122E5167003300B0D74072516FAE51A
:1009000015C39AF5158006E51524FAF51575180036
:1009100078228602BA2B0F20060C78227620200738
:10092000057518010515200419AA15C3E464808A09
:10093000F063F08095F0500A7582201205F71515C6
:1009400080E7C20DE5182422F88602BA0002806909
:10095000BA451F3000027665C3E464808516F063F3
:10096000F08095F0500A7582301205F7151680E870
:10097000D20DC3E5189402E433FA7014EA700EC382
:10098000E464808516F063F08095F04003300D1626
:10099000E5182422F886028A821205F7E51824FD5C
:1009A00050121516800E7402B51809300B067582A8
:1009B0002E1205F70518020944300419AA15C3E4DC
:1009C00064808AF063F08095F0500A7582201205E9
:1009D000F7151580E72285820B85830CE4F512F567
:1009E00013AA19AB1AAC1B8A828B838CF0120FC529
:1009F000FD74012AF519E43BF51A8C1BEDFA70031E
:100A0000020F7CBA25028003020F74C204C205C221
:100A100006C207C208C209C20AC20BC201C202C290
:100A2000037514007515007516FFAB19AC1AAD1BD4
:100A30008B828C838DF0120FC5FAA3AB82AC838BB3
:100A4000198C1A8D1BBA25078A821205F780928AA3
:100A500006BE3000402E8A06EE24C6402774FFB53D
:100A60001613E51575F00AA4FEEA24D02EF51570CC
:100A7000BFD20580BBE51675F00AA4FEEA24D02E8D
:100A8000F51680ACBA2E0A74FFB516A47516008050
:100A90009F8A06BE6100400E8A06EE2485400753F9
:100AA00002DFD2008002C200BA20028075BA23039E
:100AB000020B31BA2A03020B36BA2B02805FBA2D21
:100AC000028055BA4202805FBA4303020B7BBA44EC
:100AD00003020CB6BA4503020CD0BA4603020CCC92
:100AE000BA4703020CD4BA4903020CB6BA4C0280CE
:100AF0003BBA4E03020CD8BA4F03020CBDBA5003E6
:100B0000020C4FBA5303020B9FBA5503020CC2BA30
:100B10005803020CC7020D02D204020A30D20602A8
:100B20000A30D207020A30D209020A30D20A020A77
:100B300030D20B020A3074FFB5162030090BE51CC9
:100B400014F8881C8615020A30E51C24FEF8881C5F
:100B50008606088607188E15020A3030090BE51C38
:100B600014F8881C8616020A30E51C24FEF8881C3E
:100B70008606088607188E16020A3030090AE51C18
:100B800014F8881C8602800FE51C24FEF8881C8659
:100B900003088604188B028A821205F7020D07E506
:100BA0001C24FDF8881C860308860408860518188E
:100BB0008B0D8C0E8D0F8B828C838DF0121119ABE7
:100BC00082AC838B1774FFB5160385171620041D9E
:100BD000C3E51795155016E515C39517F515AB1513
:100BE0001515EB60087582201205F780F1850D82DE
:100BF000850E83850FF0120FC5FBFA6029AB161521
:100C000016C3E464808BF063F08095F050188A82FC
:100C10001205F7AB0DAC0EAD0F0BBB00010C8B0D2D
:100C20008C0E8D0F80C7200403020D07C3E51795B6
:100C3000154003020D07E515C39517F515AB1515FE
:100C400015EB7003020D077582201205F780EEE5A3
:100C50001C24FDF8881C86030886040886051818DD
:100C60008B0D8C0E8D0FE50FFB30E7047A4380135C
:100C7000EB546060047A50800AEB30E6047A4980D5
:100C8000027A588A82C0021205F775823A1205F775
:100C90007582301205F77582781205F7D002BA49CD
:100CA00002800BBA50028006850E8212062A850D3C
:100CB0008212062A8051D20875140A804A751408D7
:100CC000804575140A8040751410803BD20180372E
:100CD000D2028033D203802FE51C24FDF8881C86C5
:100CE0000308860408860518188B0D8C0E8D0F8B53
:100CF000828C838DF0E512121100A3E5131211000E
:100D000080058A821205F720010620020330037055
:100D1000E51C24FCF8881C86030886040886050860
:100D200086061818188B0D8C0E8D0F8E10E50DE5AC
:100D30000EE50FE5108B828C838DF0EE120FE174BF
:100D4000FFB51603751606300327747F5510FB8B0D
:100D500011E511EB2BFB8B11E50F30E70674014514
:100D600011F511E51124684006749925114002D24D
:100D7000023002061208F30209E11206800209E1BC
:100D8000E51470030209E17B2730092BE51C14F8F8
:100D9000881CE6FC3395E0FDFEFF8C0D8D0E8E0F5A
:100DA0008F1020085EAC0D7D007E007F008C0D8DC5
:100DB0000E8E0F8F10804C300A1FE51C24FCF88823
:100DC0001C86040886050886060886071818188CED
:100DD0000D8D0E8E0F8F10802AE51C24FEF8881CC6
:100DE000860408860518ED3395E0FEFF8C0D8D0E08
:100DF0008E0F8F1020080CAC0DAD0E7E007F008E84
:100E00000F8F10300B43E50D450E450F451060392F
:100E10007408B5140C758230C0031205F7D0038036
:100E2000287410B51423758230C0031205F7D0035F
:100E300030000C758278C0031205F7D003800A7564
:100E40008258C0031205F7D003300825AC0DAD0E53
:100E5000AE0FE510FF30E717C3E49CFCE49DFDE412
:100E60009EFEE49FFF8C0D8D0E8E0F8F108002C2B0
:100E700008751700D20C8B00751100C000120641D6
:100E8000D000200C0DE511C4FCE6FD4CF6188803DB
:100E90008002A6110517B20CE50D450E450F451051
:100EA00070D68803E515700375150120051A200416
:100EB00017E51704FCC39515500E758220C0031268
:100EC00005F7D003151580E930080E75822DC00393
:100ED0001205F7D00315158024E517602030060EA3
:100EE00075822BC0031205F7D0031515800F30074C
:100EF0000C758220C0031205F7D003151520041EBF
:100F0000AC151515C3E5179C50273005047C3080BF
:100F1000027C208C82C0031205F7D00380E2C3E577
:100F20001795155009E515C39517F5158003751527
:100F3000008B00AB171517EB6022B20C200C0A08CF
:100F4000E6C4540FFB8B1180078603740F5BF51109
:100F5000851182C000120611D00080D72004030240
:100F600009E1AB151515EB70030209E1758220123A
:100F700005F780EE8A821205F70209E18512828563
:100F8000138322AA82BA0A0810990280FB75990D70
:100F900010990280FB8A9922FCABF0AA83A9827483
:100FA0009EF582C2D1EC30E716D2D1E9F42401F9E2
:100FB000EAF43400FAEBF43400FBECF43400FC12F5
:100FC00005260204D720F71430F6148883A882205F
:100FD000F507E6A88375830022E280F7E49322E018
:100FE00022C0E0F84582458345F07009F5F0FBFC2E
:100FF000FDFE0210AFE823A2F792E0F8A982AA83CF
:10100000D2F7ABF07C007E07C3749798404074FF22
:101010002EFE740A89F0A4F985F082740A8AF0A47D
:10102000FA85F083740A8BF0A4FB740529F9EA357C
:1010300082FAEB3583FB740035F0FCC3EC13FCEB58
:1010400013FBEA13FAE913F908EC70EF80BAE8C36E
:10105000947FF88B838EF0E4FBFCFDFEFF08C3E970
:1010600033F9EA33FAE58333F583EB3BD4FBEC3C0D
:10107000D4FCED3DD4FDEE3ED4FEEF3FD4FF602D19
:1010800005F074052BD4FBE43CD4FCE43DD4FDE432
:101090003ED4FEE43FD4FF758204C3EF13FFEE138A
:1010A000FEED13FDEC13FCEB13FBD582EDD8AF780E
:1010B00022D0E020E704762B8002762D087906E71F
:1010C000C4540F4430F608B90603762E08E7540FCF
:1010D0004430F60819B902E7764508E5F020E70440
:1010E000762B8004762DF4040875F00A844430F6DB
:1010F00008E5F04430F608E4F690002275F040224E
:1011000020F71030F6118883A88220F507F6A8830F
:1011100075830022F280F7F022AA82AB83ACF07DC7
:10112000007E008A828B838CF0120FC5FFA3AA82F7
:10113000AB83EF60070DBD00EA0E80E78D828E83E2
:10114000220000000000000000000000000000007D
:00000001FF
