:10000000020003758143120147E582600302006F1D
:10001000780079007A007B007C007D00EC4D601C4C
:1000200088828983E493A3A882A9838A828B83F040
:10003000A3AA82AB831CBCFFE31D80E07582007520
:1000400083007C007D00EC4D600AE4F0A31CBCFF43
:10005000F51D80F27582007583007C007D00EC4DFB
:10006000600AE4F0A31CBCFFF51D80F212014612E9
:1000700002D280FE1B5B324A004144432074657308
:10008000742070726F6772616D0A46696C653A2000
:1000900025730A436F6D70696C65643A2025732C73
:1000A0002025730A0A00433A5C55736572735C71CC
:1000B000697579755C4F6E6544726976655C446FED
:1000C00063756D656E74735C4769744875625C4CEA
:1000D0004142355C597568616E5F59757169616E31
:1000E0005F6C6162352E63004D61722020342032D6
:1000F0003032340031383A34303A353600564050D8
:10010000322E323D25372E3566562C205640503241
:100110002E333D25372E3566562C20564050322E34
:10012000343D25372E3566562C20564050322E351C
:100130003D25372E3566560D000D543D2566206D44
:100140007320202020002275A7007597DE7597ADDB
:1001500075FF8075EF0675A71075C12075A700752E
:10016000A90075A900E5A930E7FB75A90375A903E6
:10017000E5A930E7FB43A41075E10175E20075E3E2
:1001800040759810858E8E758DE6858D8B53890F01
:10019000438920D28ED2997582002275A700C2EFC2
:1001A00075B28075BC2075B91E75E80075DF3F75A6
:1001B000B300D2EF22AA82438E407592B87593FFA6
:1001C0008592948593957591047B00C3EB9A500BAF
:1001D000E59130E7FB53917F0B80F075910022AAE7
:1001E00082AB837C007D00C3EC9AED9B502B7E009C
:1001F000BE0400501D7582FAC002C003C004C005D1
:10020000C0061201B5D006D005D004D003D0020E2E
:1002100080DE0CBC00D10D80CE225389F0438901D1
:10022000C28C22AA82851BF005F07401800225E0B1
:10023000D5F0FBFB75A720BA0002800ABA01028044
:100240000FBA021E8014EBF4FA52F1EB42D4801282
:10025000EBF4FA52F2EB42D58008EBF4FA52F3EBEE
:1002600042CC75A700228582BBC2EDD2EC30EDFDF9
:1002700085BD8285BE8322120266120454AA82AB17
:1002800083ACF0FDC002C003C004C005906C8B7548
:10029000F0537440120460AA82AB83ACF0FDE58198
:1002A00024FCF581E4C0E074FCC0E0747FC0E0741D
:1002B00046C0E08A828B838CF0ED120546AA82ABA1
:1002C00083ACF0FDE58124FCF5818A828B838CF080
:1002D000ED2212021A9001F41201DF7474C0E0746E
:1002E00000C0E07480C0E0120518158115811581E9
:1002F00074F4C0E07400C0E07480C0E074E8C0E052
:100300007400C0E07480C0E074A6C0E07400C0E077
:100310007480C0E07479C0E07400C0E07480C0E014
:10032000120518E58124F4F581751B02758202120D
:100330000223751B03758202120223751B0475824A
:1003400002120223751B0575820212022312019B01
:10035000C28C758901758C00758A0075820F120236
:1003600077AA82AB83ACF0FD8A0A8B0B8C0C8D0DC7
:10037000758210120277AA82AB83ACF0FD8A0E8BD5
:100380000F8C108D11758211120277AA82AB83AC8B
:10039000F0FD8A128B138C148D1575821212027760
:1003A000AA82AB83ACF0FD8A168B178C188D19C00E
:1003B00002C003C004C005C012C013C014C015C0E1
:1003C0000EC00FC010C011C00AC00BC00CC00D740D
:1003D000FDC0E07400C0E07480C0E0120518E58143
:1003E00024EDF58130A2FD20A2FDD28CAB8C7A00E9
:1003F000AC8A7D00EC2AFAED3B8A82C58225E0C5F5
:100400008233F583120539AA82AB83ACF0FDC002BA
:10041000C003C004C00590000075F07A7444120453
:1004200060AA82AB83ACF0FDE58124FCF581C002BB
:10043000C003C004C0057439C0E07401C0E074801A
:10044000C0E0120518E58124F9F5819001F412014C
:10045000DF020350E4AC83AB82FAF9748E02066EBD
:100460001206FABC0003020699EF60FA30D502B218
:10047000D1E583B4FF030206AFE582B4FF030206B1
:10048000AF258340072482400B0206992483145031
:10049000030206AFF582EA8DF0A4A8F0EA8EF0A47C
:1004A00028F8E435F0F9EB8DF0A428E935F0F9E40B
:1004B00033CA8FF0A429F9EA35F0FAEBF88EF0A4EC
:1004C00029F9EA35F0FAE433FBEC8DF0A429F9EAD6
:1004D00035F0FAE43BFBE88FF0A42AFAEB35F0FBA9
:1004E000E433CCFD8EF0A42AFAEB35F0FBE43CFCBF
:1004F000ED8FF0A42BFBEC35F0FC20E7031206C7D0
:100500000206780210B485823085833185F0328509
:100510001A33900503020B07C008858108E50824FB
:10052000FBF533E50824FBF886300886310886326F
:10053000900503120B07D00822AC83AB827A0079B6
:1005400000748E0210D21206FA30D502B2D1BF006A
:1005500009BC00030206BC0206AFBC0003020699F8
:10056000E583B4FF0BE582B4FF030206BC020699E3
:10057000E582B4FF030206AFC395835007247F4092
:100580000B02069924801450030206AFC0E0E4CCAD
:10059000CBCAF98D1B8E1C8F1DEF54F0C4F51E7550
:1005A0008306851EF0EB84F582E9C4F9EAC4FAEB10
:1005B000C4FBEC540FC47803D6FC18EBD6FB18EA46
:1005C000D6FA8582F0EDA4A8F0FD8582F0EEA4288D
:1005D000FEE435F0F88582F0EFA428FFE435F0F86A
:1005E000E99DF9EA9EFAEB9FFBEC98FCAD1BAE1C73
:1005F000AF1D30E7101582E92DF9EA3EFAEB3FFB1B
:10060000E43CFC80EDC082D58398C3E933F9EA333A
:10061000FAEB33FBEC33FCC3E99DEA9EEB9FEC94D1
:1006200000B3E413F9D002D0E0C44AFAD003D0E01A
:10063000C44BFBD004D0E0F5F0540FC44CFCD08286
:10064000158230F40FD3EC13FCEB13FBEA13FAE939
:1006500013F90582E930E70A74012AFAE43BFBE466
:100660003CFC020690FCABF0AA83A982749EC2D126
:10067000F5821206C7020678B98003EA13B3401068
:10068000EA2401FAE43BFBE43CFC50047C80058254
:10069000BC000EBB000BBA0008E4F5F0F583F58250
:1006A00022A2D1E582138CF092F78B838A8222E416
:1006B000F583F58275F080F4A2D11322E4F583F579
:1006C0008275F0C0747F227804EC7011E58224F802
:1006D000500AF582E4C9CACBFCD8EF22EC78200599
:1006E0008220E713D5820122C3E933F9EA33FAEB1A
:1006F00033FBEC33FCD8EA158222AA82AB83A2F743
:100700003392D16002D2F7F582ACF0E58124F9F89A
:10071000E6FD08E6FE0886F008E6A2F73392D5600B
:1007200002D2F7F583AFF022AA827439C0E07407D1
:10073000C0E0C022C0238A82220529E4B52902052F
:100740002A22AA8274302AFA24C6500A74072AFA86
:100750003000034302208A82020728E582FAC4544B
:100760000FF582C002120742D002740F5AF58202BE
:100770000742AA24AB25AC26AD27AE28752F20EE64
:100780002EFEED235401FF4206EA2AFAEB33FBEC7E
:1007900033FCED33FDC3EE952B4008EEC3952BFEE5
:1007A000430201D52FD98A248B258C268D278E28AC
:1007B000227840E624D075F00AA4FA7841E624D0E5
:1007C0002AFA783F8603BB2D04C3E49AFA752B01FD
:1007D000C3E464808AF063F08095F05029752F039C
:1007E0008A0374F6252F401C052BE52F142434F8BA
:1007F000E52F2434F98704A604772E1BEBFA600456
:10080000052F80DE8B02EA30E70D783586037836D7
:10081000A6037835762E0AE52D600AE52D04FB2522
:100820002BF52B8005300B02052B78348603E4BBB7
:100830002D0104FB7006200603300702052B30044F
:10084000030208F8300557EB600C75822DC00212C8
:100850000728D002801C30060C75822BC0021207BC
:1008600028D002800D30070A758220C002120728A6
:10087000D00278358604BC2E0C758230C002120777
:1008800028D002152CAC2C152CC3E52B9C40030260
:10089000093C758230C002120728D00280E7AC2CD8
:1008A000152CC3E52B9C500C758220C00212072822
:1008B000D00280EA78348604BC2D0C75822DC002EB
:1008C000120728D002801C30060C75822BC0021241
:1008D0000728D002800D30070A758220C002120757
:1008E00028D00278358604BC2E52758230C00212A0
:1008F0000728D002152C8044EB600E75822DC002B3
:10090000120728D002152C802030060E75822BC0CD
:1009100002120728D002152C800F30070C75822098
:10092000C002120728D002152C78358603BB2E0C86
:10093000758230C002120728D002152C752F01C213
:100940000DE52F2434F88603BB45030209F9BB2EBD
:10095000348A03C3E464808BF063F08095F0500F19
:10096000758230C003120728D0031B8B0280E48BF2
:1009700002D20DE52D7038200B030209F975822E85
:100980001207288074300D278A03EB30E71FC3E479
:100990006480852DF063F08095F0500C758230C036
:1009A00003120728D003152D0B8B0280DD8B02303C
:1009B0000D0EC3E46480852DF063F08095F0502126
:1009C000E52F2434F886038B82C002120728D00258
:1009D000300D0EE52F2434F88603BB2E028002155D
:1009E0002D152CC3E46480852DF063F08095F040D4
:1009F00003200D05052F020941C3E46480852DF015
:100A000063F08095F0500A758230120728152D800A
:100A1000E830040FAA2C152CEA6008758220120712
:100A20002880F122E52D7003300B0D7407252DFA77
:100A3000E52CC39AF52C8006E52C24FAF52C752FAD
:100A40000078348602BA2B0F20060C7834762020EA
:100A50000705752F01052C200419AA2CC3E4648016
:100A60008AF063F08095F0500A75822012072815ED
:100A70002C80E7C20DE52F2434F88602BA000280EC
:100A800069BA451F3000027665C3E46480852DF0A5
:100A900063F08095F0500A758230120728152D807A
:100AA000E8D20DC3E52F9402E433FA7014EA700E15
:100AB000C3E46480852DF063F08095F04003300D31
:100AC00016E52F2434F886028A82120728E52F249F
:100AD000FD5012152D800E7402B52F09300B0675CE
:100AE000822E120728052F020A75300419AA2CC37A
:100AF000E464808AF063F08095F0500A75822012D9
:100B00000728152C80E722858222858323E4F52996
:100B1000F52AAA30AB31AC328A828B838CF012106A
:100B2000F6FD74012AF530E43BF5318C32EDFA70B4
:100B3000030210ADBA250280030210A5C204C2054B
:100B4000C206C207C208C209C20AC20BC201C2025F
:100B5000C203752B00752C00752DFFAB30AC31AD89
:100B6000328B828C838DF01210F6FAA3AB82AC83A9
:100B70008B308C318D32BA25078A821207288092F9
:100B80008A06BE3000402E8A06EE24C6402774FF37
:100B9000B52D13E52C75F00AA4FEEA24D02EF52C11
:100BA00070BFD20580BBE52D75F00AA4FEEA24D003
:100BB0002EF52D80ACBA2E0A74FFB52DA4752D002C
:100BC000809F8A06BE6100400E8A06EE248540079B
:100BD0005302DFD2008002C200BA20028075BA231D
:100BE00003020C62BA2A03020C67BA2B02805FBAB6
:100BF0002D028055BA4202805FBA4303020CACBAA0
:100C00004403020DE7BA4503020E01BA4603020D82
:100C1000FDBA4703020E05BA4903020DE7BA4C02BA
:100C2000803BBA4E03020E09BA4F03020DEEBA50D2
:100C300003020D80BA5303020CD0BA5503020DF320
:100C4000BA5803020DF8020E33D204020B61D20629
:100C5000020B61D207020B61D209020B61D20A02B8
:100C60000B61D20B020B6174FFB52D2030090BE52F
:100C70003314F88833862C020B61E53324FEF888A0
:100C8000338606088607188E2C020B6130090BE5A7
:100C90003314F88833862D020B61E53324FEF8887F
:100CA000338606088607188E2D020B6130090AE587
:100CB0003314F888338602800FE53324FEF8883336
:100CC0008603088604188B028A82120728020E38CF
:100CD000E53324FDF8883386030886040886051862
:100CE000188B248C258D268B828C838DF012124AD2
:100CF000AB82AC838B2E74FFB52D03852E2D200483
:100D00001DC3E52E952C5016E52CC3952EF52CAB66
:100D10002C152CEB600875822012072880F18524A1
:100D2000828525838526F01210F6FBFA6029AB2D0B
:100D3000152DC3E464808BF063F08095F050188A21
:100D400082120728AB24AC25AD260BBB00010C8B0F
:100D5000248C258D2680C7200403020E38C3E52E7F
:100D6000952C4003020E38E52CC3952EF52CAB2CA8
:100D7000152CEB7003020E3875822012072880EEC6
:100D8000E53324FDF88833860308860408860518B1
:100D9000188B248C258D26E526FB30E7047A4380CA
:100DA00013EB546060047A50800AEB30E6047A4911
:100DB00080027A588A82C00212072875823A120786
:100DC00028758230120728758278120728D002BA57
:100DD0004902800BBA5002800685258212075B8586
:100DE000248212075B8051D208752B0A804A752B2A
:100DF000088045752B0A8040752B10803BD20180FE
:100E000037D2028033D203802FE53324FDF88833B4
:100E1000860308860408860518188B248C258D26E1
:100E20008B828C838DF0E529121231A3E52A1212F0
:100E30003180058A82120728200106200203300330
:100E400070E53324FCF88833860308860408860599
:100E50000886061818188B248C258D268E27E524E5
:100E6000E525E526E5278B828C838DF0EE121112A5
:100E700074FFB52D03752D06300327747F5527FBAE
:100E80008B28E528EB2BFB8B28E52630E706740141
:100E90004528F528E528246840067499252840024D
:100EA000D202300206120A24020B121207B1020B00
:100EB00012E52B7003020B127B3930092BE533143A
:100EC000F88833E6FC3395E0FDFEFF8C248D258EFB
:100ED000268F2720085EAC247D007E007F008C24B6
:100EE0008D258E268F27804C300A1FE53324FCF891
:100EF00088338604088605088606088607181818A9
:100F00008C248D258E268F27802AE53324FEF888B1
:100F100033860408860518ED3395E0FEFF8C248D9A
:100F2000258E268F2720080CAC24AD257E007F005F
:100F30008E268F27300B43E524452545264527601F
:100F4000397408B52B0C758230C003120728D00302
:100F500080287410B52B23758230C003120728D067
:100F60000330000C758278C003120728D003800A72
:100F7000758258C003120728D003300825AC24AD71
:100F800025AE26E527FF30E717C3E49CFCE49DFD72
:100F9000E49EFEE49FFF8C248D258E268F27800201
:100FA000C208752E00D20C8B00752800C0001207F5
:100FB00072D000200C0DE528C4FCE6FD4CF6188824
:100FC000038002A628052EB20CE5244525452645BA
:100FD0002770D68803E52C7003752C0120051A2094
:100FE0000417E52E04FCC3952C500E758220C00317
:100FF000120728D003152C80E930080E75822DC009
:1010000003120728D003152C8024E52E602030061B
:101010000E75822BC003120728D003152C800F30C9
:10102000070C758220C003120728D003152C20045A
:101030001EAC2C152CC3E52E9C50273005047C30AB
:1010400080027C208C82C003120728D00380E2C378
:10105000E52E952C5009E52CC3952EF52C800375B3
:101060002C008B00AB2E152EEB6022B20C200C0A4C
:1010700008E6C4540FFB8B2880078603740F5BF5CA
:1010800028852882C000120742D00080D7200403A0
:10109000020B12AB2C152CEB7003020B1275822085
:1010A00012072880EE8A82120728020B12852982F5
:1010B000852A8322AA82BA0A0810990280FB7599B0
:1010C0000D10990280FB8A9922FCABF0AA83A982B9
:1010D000749EF582C2D1EC30E716D2D1E9F4240136
:1010E000F9EAF43400FAEBF43400FBECF43400FCDD
:1010F0001206C702067820F71430F6148883A882F7
:1011000020F507E6A88375830022E280F7E49322A6
:10111000E022C0E0F84582458345F07009F5F0FB18
:10112000FCFDFE0211E0E823A2F792E0F8A982AAF2
:1011300083D2F7ABF07C007E07C37497984040746D
:10114000FF2EFE740A89F0A4F985F082740A8AF0F1
:10115000A4FA85F083740A8BF0A4FB740529F9EADC
:101160003582FAEB3583FB740035F0FCC3EC13FCDD
:10117000EB13FBEA13FAE913F908EC70EF80BAE815
:10118000C3947FF88B838EF0E4FBFCFDFEFF08C365
:10119000E933F9EA33FAE58333F583EB3BD4FBEC2F
:1011A0003CD4FCED3DD4FDEE3ED4FEEF3FD4FF60D9
:1011B0002D05F074052BD4FBE43CD4FCE43DD4FDB8
:1011C000E43ED4FEE43FD4FF758204C3EF13FFEE88
:1011D00013FEED13FDEC13FCEB13FBD582EDD8AF42
:1011E0007834D0E020E704762B8002762D0879064B
:1011F000E7C4540F4430F608B90603762E08E754C6
:101200000F4430F60819B902E7764508E5F020E703
:1012100004762B8004762DF4040875F00A8444309B
:10122000F608E5F04430F608E4F690003475F04036
:101230002220F71030F6118883A88220F507F6A83F
:101240008375830022F280F7F022AA82AB83ACF090
:101250007D007E008A828B838CF01210F6FFA3AA99
:1012600082AB83EF60070DBD00EA0E80E78D828EB2
:1012700083220000000000000000000000000000C9
:00000001FF
