:1000000002000375814312010CE582600302006F58
:10001000780079007A007B007C007D00EC4D601C4C
:1000200088828983E493A3A882A9838A828B83F040
:10003000A3AA82AB831CBCFFE31D80E07582007520
:1000400083007C007D00EC4D600AE4F0A31CBCFF43
:10005000F51D80F27582007583007C007D00EC4DFB
:10006000600AE4F0A31CBCFFF51D80F212010B1224
:1000700002A580FE1B5B324A004144432074657335
:10008000742070726F6772616D0A46696C653A2000
:1000900025730A436F6D70696C65643A2025732C73
:1000A0002025730A0A00433A5C55736572735C71CC
:1000B000697579755C4F6E6544726976655C446FED
:1000C00063756D656E74735C4769744875625C4CEA
:1000D0004142355C597568616E5F59757169616E31
:1000E0005F6C6162352E63004D61722020342032D6
:1000F0003032340032303A31303A3335000A0D5460
:100100003D2566206D7320202020002275A70075F4
:1001100097DE7597AD75FF8075EF0675A71075C1F1
:100120002075A70075A90075A900E5A930E7FB7542
:10013000A90375A903E5A930E7FB43A41075E10104
:1001400075E20075E340759810858E8E758DE68595
:100150008D8B53890F438920D28ED29975820022CC
:1001600075A700C2EF75B28075BC2075B91E75E821
:100170000075DF3F75B300D2EF22AA82438E40752F
:1001800092B87593FF8592948593957591047B0041
:10019000C3EB9A500BE59130E7FB53917F0B80F056
:1001A00075910022AA82AB837C007D00C3EC9AED9E
:1001B0009B502B7E00BE0400501D7582FAC002C009
:1001C00003C004C005C00612017AD006D005D004D1
:1001D000D003D0020E80DE0CBC00D10D80CE2253A5
:1001E00089F0438901C28C22AA828517F005F07438
:1001F00001800225E0D5F0FBFB75A720BA00028044
:100200000ABA0102800FBA021E8014EBF4FA52F10E
:10021000EB42D48012EBF4FA52F2EB42D58008EBB9
:10022000F4FA52F3EB42CC75A700228582BBC2EDF3
:10023000D2EC30EDFD85BD8285BE832212022B12E9
:100240000488AA82AB83ACF0FDC002C003C004C026
:100250000590333375F0537440120494AA82AB8333
:10026000ACF0FDE58124FCF581E4C0E074FCC0E065
:10027000747FC0E07446C0E08A828B838CF0ED12FC
:1002800005DEAA82AB83ACF0FDE58124FCF5818A12
:10029000828B838CF0ED22C2EDD2EC30EDFD85BD7A
:1002A0008285BE83221201DF9001F41201A47474CE
:1002B000C0E07400C0E07480C0E01205B015811584
:1002C00081158174F4C0E07400C0E07480C0E074F3
:1002D000E8C0E07400C0E07480C0E074A6C0E074C0
:1002E00000C0E07480C0E07479C0E07400C0E074C5
:1002F00080C0E01205B0E58124F4F581751706751C
:1003000082011201E87517077582011201E81201D6
:100310006075820C12023CAA82AB83ACF0FD8A0AA3
:100320008B0B8C0C8D0D75820D12023CAA82AB8357
:10033000ACF0FD8A0E8B0F8C108D11758A00758CB8
:1003400000C28D7509002097FD3097FDD28C309743
:1003500009108D0280F8050980F4209709108D029C
:1003600080F8050980F4C28C850982120537AA82BB
:10037000AB83ACF0FDC002C003C004C00590000018
:1003800075F080744712049485821285831385F07A
:1003900014F515E58124FCF581858C82120537AEB4
:1003A00082AF83AAF0FBC006C007C002C003900062
:1003B0000075F0807443120494AA82AB83ACF0FD04
:1003C000E58124FCF581C002C003C004C00585128C
:1003D000828513838514F0E5151205428582128506
:1003E000831385F014F515E58124FCF581AE8A7F31
:1003F000008E828F831205D1AE82AF83AAF0FBC03C
:1004000006C007C002C0038512828513838514F0DD
:10041000E515120542AA82AB83ACF0FDE58124FC10
:10042000F581C002C003C004C00590F4FC75F03231
:100430007434120494AA82AB83ACF0FDE58124FCF1
:10044000F581C002C003C004C00590000075F07AB9
:100450007444120494AA82AB83ACF0FDE58124FCC1
:10046000F581C002C003C004C00574FDC0E0740083
:10047000C0E07480C0E01205B0E58124F9F58190F8
:1004800001F41201A4020311E4AC83AB82FAF97403
:100490008E020706120792BC0003020731EF60FAD2
:1004A00030D502B2D1E583B4FF03020747E582B439
:1004B000FF03020747258340072482400B020731D0
:1004C0002483145003020747F582EA8DF0A4A8F0B4
:1004D000EA8EF0A428F8E435F0F9EB8DF0A428E9D1
:1004E00035F0F9E433CA8FF0A429F9EA35F0FAEBD4
:1004F000F88EF0A429F9EA35F0FAE433FBEC8DF03C
:10050000A429F9EA35F0FAE43BFBE88FF0A42AFAD3
:10051000EB35F0FBE433CCFD8EF0A42AFAEB35F09A
:10052000FBE43CFCED8FF0A42BFBEC35F0FC20E76A
:100530000312075F020710E4AC82FBFAF97486022B
:1005400007061207927900E583B58202800D5003F9
:100550001207C0E583C395821207DAE5D0C465D0DF
:1005600020E117EA2DFAEB3EFBEC3FFC5009740149
:100570001207DAEC4480FC020710C3EA9DFAEB9EF6
:10058000FBEC9FFC500FC3E499F9E49AFAE49BFB5F
:10059000E49CFCB2D112075F0207100211A9858208
:1005A0003085833185F03285163390059B020BFC34
:1005B000C008858108E50824FBF533E50824FBF82D
:1005C000863008863108863290059B120BFCD008D5
:1005D00022AC83AB827A007900748E0211C71207B5
:1005E0009230D502B2D1BF0009BC00030207540209
:1005F0000747BC0003020731E583B4FF0BE582B473
:10060000FF03020754020731E582B4FF03020747E4
:10061000C395835007247F400B0207312480145078
:1006200003020747C0E0E4CCCBCAF98D178E188FC0
:1006300019EF54F0C4F51A758306851AF0EB84F5AA
:1006400082E9C4F9EAC4FAEBC4FBEC540FC47803A2
:10065000D6FC18EBD6FB18EAD6FA8582F0EDA4A8F2
:10066000F0FD8582F0EEA428FEE435F0F88582F0F6
:10067000EFA428FFE435F0F8E99DF9EA9EFAEB9F34
:10068000FBEC98FCAD17AE18AF1930E7101582E9F6
:100690002DF9EA3EFAEB3FFBE43CFC80EDC082D54D
:1006A0008398C3E933F9EA33FAEB33FBEC33FCC349
:1006B000E99DEA9EEB9FEC9400B3E413F9D002D0DD
:1006C000E0C44AFAD003D0E0C44BFBD004D0E0F53C
:1006D000F0540FC44CFCD082158230F40FD3EC13CD
:1006E000FCEB13FBEA13FAE913F90582E930E70A98
:1006F00074012AFAE43BFBE43CFC020728FCABF063
:10070000AA83A982749EC2D1F58212075F020710E4
:10071000B98003EA13B34010EA2401FAE43BFBE496
:100720003CFC50047C800582BC000EBB000BBA0070
:1007300008E4F5F0F583F58222A2D1E582138CF06E
:1007400092F78B838A8222E4F583F58275F080F438
:10075000A2D11322E4F583F58275F0C0747F22786C
:1007600004EC7011E58224F8500AF582E4C9CACB82
:10077000FCD8EF22EC7820058220E713D5820122F5
:10078000C3E933F9EA33FAEB33FBEC33FCD8EA156F
:100790008222AA82AB83A2F73392D16002D2F7F50C
:1007A00082ACF0E58124F9F8E6FD08E6FE0886F063
:1007B00008E6A2F73392D56002D2F7F583AFF022B4
:1007C000E582C583F582A2D133A2D592D11392D509
:1007D000ECCFFCEBCEFBEACDFA226040F82582504C
:1007E0000274FFF582E824F8501ECCCBCAF9E4CCA1
:1007F00024F85014CBCAF9E4CB24F8500BCAF9E41E
:10080000CA24F8500379002224086010F8C3EC13BE
:10081000FCEB13FBEA13FAE913F9D8F122AA82746C
:100820002EC0E07408C0E0C022C0238A82220529BD
:10083000E4B52902052A22AA8274302AFA24C65075
:100840000A74072AFA3000034302208A8202081D34
:10085000E582FAC4540FF582C002120837D0027440
:100860000F5AF582020837AA24AB25AC26AD27AE75
:1008700028752F20EE2EFEED235401FF4206EA2AB2
:10088000FAEB33FBEC33FCED33FDC3EE952B400864
:10089000EEC3952BFE430201D52FD98A248B258CDC
:1008A000268D278E28227840E624D075F00AA4FAF7
:1008B0007841E624D02AFA783F8603BB2D04C3E4AE
:1008C0009AFA752B01C3E464808AF063F08095F096
:1008D0005029752F038A0374F6252F401C052BE53C
:1008E0002F142434F8E52F2434F98704A604772E36
:1008F0001BEBFA6004052F80DE8B02EA30E70D78EF
:100900003586037836A6037835762E0AE52D600AFB
:10091000E52D04FB252BF52B8005300B02052B78EC
:10092000348603E4BB2D0104FB7006200603300768
:1009300002052B3004030209ED300557EB600C75FE
:10094000822DC00212081DD002801C30060C758258
:100950002BC00212081DD002800D30070A758220BC
:10096000C00212081DD00278358604BC2E0C758298
:1009700030C00212081DD002152CAC2C152CC3E57A
:100980002B9C4003020A31758230C00212081DD030
:100990000280E7AC2C152CC3E52B9C500C758220F3
:1009A000C00212081DD00280EA78348604BC2D0CE7
:1009B00075822DC00212081DD002801C30060C75F5
:1009C000822BC00212081DD002800D30070A7582EA
:1009D00020C00212081DD00278358604BC2E527544
:1009E0008230C00212081DD002152C8044EB600E2C
:1009F00075822DC00212081DD002152C80203006F1
:100A00000E75822BC00212081DD002152C800F30EB
:100A1000070C758220C00212081DD002152C7835F3
:100A20008603BB2E0C758230C00212081DD0021541
:100A30002C752F01C20DE52F2434F88603BB450326
:100A4000020AEEBB2E348A03C3E464808BF063F0A9
:100A50008095F0500F758230C00312081DD0031B23
:100A60008B0280E48B02D20DE52D7038200B03023F
:100A70000AEE75822E12081D8074300D278A03EB52
:100A800030E71FC3E46480852DF063F08095F0505B
:100A90000C758230C00312081DD003152D0B8B027C
:100AA00080DD8B02300D0EC3E46480852DF063F091
:100AB0008095F05021E52F2434F886038B82C00204
:100AC00012081DD002300D0EE52F2434F88603BB2A
:100AD0002E028002152D152CC3E46480852DF06351
:100AE000F08095F04003200D05052F020A36C3E47F
:100AF0006480852DF063F08095F0500A7582301285
:100B0000081D152D80E830040FAA2C152CEA60086A
:100B100075822012081D80F122E52D7003300B0D27
:100B20007407252DFAE52CC39AF52C8006E52C24B4
:100B3000FAF52C752F0078348602BA2B0F20060C9C
:100B400078347620200705752F01052C200419AA7A
:100B50002CC3E464808AF063F08095F0500A7582BB
:100B60002012081D152C80E7C20DE52F2434F886CD
:100B700002BA00028069BA451F3000027665C3E4FC
:100B80006480852DF063F08095F0500A75823012F4
:100B9000081D152D80E8D20DC3E52F9402E433FA29
:100BA0007014EA700EC3E46480852DF063F08095C4
:100BB000F04003300D16E52F2434F886028A8212A5
:100BC000081DE52F24FD5012152D800E7402B52F3F
:100BD00009300B0675822E12081D052F020B6A3094
:100BE0000419AA2CC3E464808AF063F08095F05065
:100BF0000A75822012081D152C80E7228582228525
:100C00008323E4F529F52AAA30AB31AC328A828BF2
:100C1000838CF01211EBFD74012AF530E43BF531C1
:100C20008C32EDFA70030211A2BA25028003021180
:100C30009AC204C205C206C207C208C209C20AC2D9
:100C40000BC201C202C203752B00752C00752DFF6B
:100C5000AB30AC31AD328B828C838DF01211EBFA5C
:100C6000A3AB82AC838B308C318D32BA25078A825C
:100C700012081D80928A06BE3000402E8A06EE249D
:100C8000C6402774FFB52D13E52C75F00AA4FEEAC3
:100C900024D02EF52C70BFD20580BBE52D75F00A4F
:100CA000A4FEEA24D02EF52D80ACBA2E0A74FFB52E
:100CB0002DA4752D00809F8A06BE6100400E8A0615
:100CC000EE248540075302DFD2008002C200BA2022
:100CD000028075BA2303020D57BA2A03020D5CBACB
:100CE0002B02805FBA2D028055BA4202805FBA4360
:100CF00003020DA1BA4403020EDCBA4503020EF64C
:100D0000BA4603020EF2BA4703020EFABA490302C8
:100D10000EDCBA4C02803BBA4E03020EFEBA4F0301
:100D2000020EE3BA5003020E75BA5303020DC5BAA0
:100D30005503020EE8BA5803020EED020F28D20442
:100D4000020C56D206020C56D207020C56D20902E9
:100D50000C56D20A020C56D20B020C5674FFB52D5B
:100D60002030090BE53314F88833862C020C56E545
:100D70003324FEF888338606088607188E2C020C6A
:100D80005630090BE53314F88833862D020C56E5EE
:100D90003324FEF888338606088607188E2D020C49
:100DA0005630090AE53314F888338602800FE5339C
:100DB00024FEF888338603088604188B028A821280
:100DC000081D020F2DE53324FDF8883386030886BD
:100DD0000408860518188B248C258D268B828C831D
:100DE0008DF012133FAB82AC838B2E74FFB52D03B5
:100DF000852E2D20041DC3E52E952C5016E52CC301
:100E0000952EF52CAB2C152CEB6008758220120862
:100E10001D80F18524828525838526F01211EBFB48
:100E2000FA6029AB2D152DC3E464808BF063F0804C
:100E300095F050188A8212081DAB24AC25AD260B04
:100E4000BB00010C8B248C258D2680C72004030257
:100E50000F2DC3E52E952C4003020F2DE52CC395D5
:100E60002EF52CAB2C152CEB7003020F2D75822068
:100E700012081D80EEE53324FDF8883386030886CA
:100E80000408860518188B248C258D26E526FB3052
:100E9000E7047A438013EB546060047A50800AEBD5
:100EA00030E6047A4980027A588A82C00212081D0C
:100EB00075823A12081D75823012081D75827812EB
:100EC000081DD002BA4902800BBA5002800685255F
:100ED000821208508524821208508051D208752B46
:100EE0000A804A752B088045752B0A8040752B10A7
:100EF000803BD2018037D2028033D203802FE5338A
:100F000024FDF88833860308860408860518188BA4
:100F1000248C258D268B828C838DF0E52912132657
:100F2000A3E52A12132680058A8212081D200106D5
:100F3000200203300370E53324FCF888338603086D
:100F400086040886050886061818188B248C258DBB
:100F5000268E27E524E525E526E5278B828C838DE3
:100F6000F0EE12120774FFB52D03752D063003271E
:100F7000747F5527FB8B28E528EB2BFB8B28E52678
:100F800030E70674014528F528E5282468400674F2
:100F90009925284002D202300206120B19020C07D2
:100FA0001208A6020C07E52B7003020C077B3930F0
:100FB000092BE53314F88833E6FC3395E0FDFEFF9A
:100FC0008C248D258E268F2720085EAC247D007E04
:100FD000007F008C248D258E268F27804C300A1FA1
:100FE000E53324FCF888338604088605088606085D
:100FF00086071818188C248D258E268F27802AE5C1
:101000003324FEF88833860408860518ED3395E00E
:10101000FEFF8C248D258E268F2720080CAC24AD56
:10102000257E007F008E268F27300B43E524452543
:101030004526452760397408B52B0C758230C003EE
:1010400012081DD00380287410B52B23758230C080
:101050000312081DD00330000C758278C0031208FB
:101060001DD003800A758258C00312081DD00330BA
:101070000825AC24AD25AE26E527FF30E717C3E4ED
:101080009CFCE49DFDE49EFEE49FFF8C248D258E58
:10109000268F278002C208752E00D20C8B0075287F
:1010A00000C000120867D000200C0DE528C4FCE643
:1010B000FD4CF61888038002A628052EB20CE52404
:1010C00045254526452770D68803E52C7003752CE9
:1010D0000120051A200417E52E04FCC3952C500EA0
:1010E000758220C00312081DD003152C80E930083A
:1010F0000E75822DC00312081DD003152C8024E527
:101100002E602030060E75822BC00312081DD003FE
:10111000152C800F30070C758220C00312081DD0DB
:1011200003152C20041EAC2C152CC3E52E9C502737
:101130003005047C3080027C208C82C00312081DA4
:10114000D00380E2C3E52E952C5009E52CC3952EE3
:10115000F52C8003752C008B00AB2E152EEB602236
:10116000B20C200C0A08E6C4540FFB8B28800786BB
:1011700003740F5BF528852882C000120837D00061
:1011800080D7200403020C07AB2C152CEB70030254
:101190000C0775822012081D80EE8A8212081D023B
:1011A0000C07852982852A8322AA82BA0A08109907
:1011B0000280FB75990D10990280FB8A9922FCAB85
:1011C000F0AA83A982749EF582C2D1EC30E716D2D0
:1011D000D1E9F42401F9EAF43400FAEBF43400FB29
:1011E000ECF43400FC12075F02071020F71430F60D
:1011F000148883A88220F507E6A88375830022E27D
:1012000080F7E49322E022C0E0F84582458345F070
:101210007009F5F0FBFCFDFE0212D5E823A2F7925F
:10122000E0F8A982AA83D2F7ABF07C007E07C374F2
:101230009798404074FF2EFE740A89F0A4F985F057
:1012400082740A8AF0A4FA85F083740A8BF0A4FBF6
:10125000740529F9EA3582FAEB3583FB740035F021
:10126000FCC3EC13FCEB13FBEA13FAE913F908ECEB
:1012700070EF80BAE8C3947FF88B838EF0E4FBFCB8
:10128000FDFEFF08C3E933F9EA33FAE58333F5835A
:10129000EB3BD4FBEC3CD4FCED3DD4FDEE3ED4FE68
:1012A000EF3FD4FF602D05F074052BD4FBE43CD454
:1012B000FCE43DD4FDE43ED4FEE43FD4FF7582045B
:1012C000C3EF13FFEE13FEED13FDEC13FCEB13FB6A
:1012D000D582EDD8AF7834D0E020E704762B8002B9
:1012E000762D087906E7C4540F4430F608B9060392
:1012F000762E08E7540F4430F60819B902E7764510
:1013000008E5F020E704762B8004762DF4040875B8
:10131000F00A844430F608E5F04430F608E4F6902C
:10132000003475F0402220F71030F6118883A8822F
:1013300020F507F6A88375830022F280F7F022AA31
:1013400082AB83ACF07D007E008A828B838CF012AE
:1013500011EBFFA3AA82AB83EF60070DBD00EA0E7D
:1013600080E78D828E8322000000000000000000D4
:00000001FF
