:1000000002000375814A120147E582600302006F16
:10001000780079007A007B007C007D00EC4D601C4C
:1000200088828983E493A3A882A9838A828B83F040
:10003000A3AA82AB831CBCFFE31D80E07582007520
:1000400083007C007D00EC4D600AE4F0A31CBCFF43
:10005000F51D80F27582007583007C007D00EC4DFB
:10006000600AE4F0A31CBCFFF51D80F212014612E9
:1000700002E080FE1B5B324A0041444320746573FA
:10008000742070726F6772616D0A46696C653A2000
:1000900025730A436F6D70696C65643A2025732C73
:1000A0002025730A0A00433A5C55736572735C71CC
:1000B000697579755C4F6E6544726976655C446FED
:1000C00063756D656E74735C4769744875625C4CEA
:1000D0004142355C597568616E5F59757169616E31
:1000E0005F6C6162352E63004D61722020342032D6
:1000F0003032340031383A32343A343600564050D7
:10010000322E323D25372E3566562C205640503241
:100110002E333D25372E3566562C20564050322E34
:10012000343D25372E3566562C20564050322E351C
:100130003D25372E3566560D000D543D2566206D44
:100140007320202020002275A7007597DE7597ADDB
:1001500075FF8075EF0675A71075C12075A700752E
:10016000A90075A900E5A930E7FB75A90375A903E6
:10017000E5A930E7FB43A41075E10175E20075E3E2
:1001800040759810858E8E758DE6858D8B53890F01
:10019000438920D28ED2997582002275A700C2EFC2
:1001A00075B28075BC2075B91E75E80075DF3F75A6
:1001B000B300D2EF22AA82438E407592B87593FFA6
:1001C0008592948593957591047B00C3EB9A500BAF
:1001D000E59130E7FB53917F0B80F075910022AAE7
:1001E00082AB837C007D00C3EC9AED9B502B7E009C
:1001F000BE0400501D7582FAC002C003C004C005D1
:10020000C0061201B5D006D005D004D003D0020E2E
:1002100080DE0CBC00D10D80CE225389F0438901D1
:10022000C28C22C2EDD2EC30EDFD85BD8285BE834D
:1002300022AA82851CF005F07401800225E0D5F029
:10024000FBFB75A720BA0002800ABA0102800FBA30
:10025000021E8014EBF4FA52F1EB42D48012EBF45C
:10026000FA52F2EB42D58008EBF4FA52F3EB42CCAF
:1002700075A700228582BBC2EDD2EC30EDFD85BDB5
:100280008285BE8322120274120504AA82AB83AC5B
:10029000F0FDC002C003C004C005906C8B75F05324
:1002A0007440120510AA82AB83ACF0FDE58124FCFA
:1002B000F581E4C0E074FCC0E0747FC0E07446C027
:1002C000E08A828B838CF0ED12065AAA82AB83AC53
:1002D000F0FDE58124FCF5818A828B838CF0ED2290
:1002E00012021A9001F41201DF7474C0E07400C0AD
:1002F000E07480C0E012062C15811581158174F41C
:10030000C0E07400C0E07480C0E074E8C0E0740035
:10031000C0E07480C0E074A6C0E07400C0E07480E7
:10032000C0E07479C0E07400C0E07480C0E01206E0
:100330002CE58124F4F581751C02758202120231CC
:10034000751C03758202120231751C04758202123B
:100350000231751C0575820212023112019B7582F1
:100360000F120285AA82AB83ACF0FD8A238B248C0A
:10037000258D26758210120285AA82AB83ACF0FD12
:100380008A278B288C298D2A758211120285AA82D0
:10039000AB83ACF0FD8A2B8B2C8C2D8D2E758212AD
:1003A000120285AA82AB83ACF0FD8A2F8B308C3190
:1003B0008D32C002C003C004C005C02BC02CC02DAC
:1003C000C02EC027C028C029C02AC023C024C025F1
:1003D000C02674FDC0E07400C0E07480C0E0120666
:1003E0002CE58124EDF58175BB0FC2EDD2EC30ED2B
:1003F000FD758A00758C00120223E5828583F04525
:10040000F070F4120223E5828583F045F060F4D2A7
:100410008C120223E5828583F045F070F4C28C854E
:100420008C821205B3AA82AB83ACF0FDC002C0037C
:10043000C004C00590000075F0807443120510855B
:10044000823785833885F039F53AE58124FCF581DA
:10045000AE8A7F008E828F8312064DAE82AF83AA52
:10046000F0FBC006C007C002C00385378285388311
:100470008539F0E53A1205BE85823385833485F0EF
:1004800035F536E58124FCF581E4C0E0C0E0C0E04C
:100490007440C0E08533828534838535F0E53612BB
:1004A000065AAE82AF83AAF0FBE58124FCF581EB0E
:1004B000B2E78E828F838AF0120779858222C03359
:1004C000C034C035C036900000E4F5F07440120529
:1004D00010AA82AB83ACF0FDE58124FCF581C0025B
:1004E000C003C004C0057439C0E07401C0E074806A
:1004F000C0E012062CE58124F9F5819001F4120187
:10050000DF02035EE4AC83AB82FAF9748E02078AE1
:10051000120816BC00030207B5EF60FA30D502B22C
:10052000D1E583B4FF030207CBE582B4FF030207E2
:10053000CB258340072482400B0207B52483145047
:10054000030207CBF582EA8DF0A4A8F0EA8EF0A4AE
:1005500028F8E435F0F9EB8DF0A428E935F0F9E45A
:1005600033CA8FF0A429F9EA35F0FAEBF88EF0A43B
:1005700029F9EA35F0FAE433FBEC8DF0A429F9EA25
:1005800035F0FAE43BFBE88FF0A42AFAEB35F0FBF8
:10059000E433CCFD8EF0A42AFAEB35F0FBE43CFC0E
:1005A000ED8FF0A42BFBEC35F0FC20E7031207E302
:1005B000020794E4AC82FBFAF9748602078A1208F7
:1005C000167900E583B58202800D5003120844E5D8
:1005D00083C3958212085EE5D0C465D020E117EA96
:1005E0002DFAEB3EFBEC3FFC5009740112085EEC67
:1005F0004480FC020794C3EA9DFAEB9EFBEC9FFC4F
:10060000500FC3E499F9E49AFAE49BFBE49CFCB232
:10061000D11207E302079402122D858218858319EF
:1006200085F01A85091B900617020C80C008858189
:1006300008E50824FBF51BE50824FBF88618088666
:100640001908861A900617120C80D00822AC83ABCA
:10065000827A007900748E02124B12081630D5028D
:10066000B2D1BF0009BC00030207D80207CBBC000F
:10067000030207B5E583B4FF0BE582B4FF0302076D
:10068000D80207B5E582B4FF030207CBC3958350B8
:1006900007247F400B0207B524801450030207CBC8
:1006A000C0E0E4CCCBCAF98D1C8E1D8F1EEF54F038
:1006B000C4F51F758306851FF0EB84F582E9C4F944
:1006C000EAC4FAEBC4FBEC540FC47803D6FC18EB75
:1006D000D6FB18EAD6FA8582F0EDA4A8F0FD858253
:1006E000F0EEA428FEE435F0F88582F0EFA428FFB0
:1006F000E435F0F8E99DF9EA9EFAEB9FFBEC98FCF3
:10070000AD1CAE1DAF1E30E7101582E92DF9EA3E93
:10071000FAEB3FFBE43CFC80EDC082D58398C3E953
:1007200033F9EA33FAEB33FBEC33FCC3E99DEA9E81
:10073000EB9FEC9400B3E413F9D002D0E0C44AFA82
:10074000D003D0E0C44BFBD004D0E0F5F0540FC48C
:100750004CFCD082158230F40FD3EC13FCEB13FB6E
:10076000EA13FAE913F90582E930E70A74012AFA73
:10077000E43BFBE43CFC0207AC7F86121271F5827D
:1007800022FCABF0AA83A982749EC2D1F582120723
:10079000E3020794B98003EA13B34010EA2401FA94
:1007A000E43BFBE43CFC50047C800582BC000EBBB7
:1007B000000BBA0008E4F5F0F583F58222A2D1E53A
:1007C00082138CF092F78B838A8222E4F583F58280
:1007D00075F080F4A2D11322E4F583F58275F0C0A0
:1007E000747F227804EC7011E58224F8500AF582B7
:1007F000E4C9CACBFCD8EF22EC7820058220E713AD
:10080000D5820122C3E933F9EA33FAEB33FBEC3347
:10081000FCD8EA158222AA82AB83A2F73392D16078
:1008200002D2F7F582ACF0E58124F9F8E6FD08E69E
:10083000FE0886F008E6A2F73392D56002D2F7F5FB
:1008400083AFF022E582C583F582A2D133A2D5928F
:10085000D11392D5ECCFFCEBCEFBEACDFA2260406F
:10086000F82582500274FFF582E824F8501ECCCBA4
:10087000CAF9E4CC24F85014CBCAF9E4CB24F850DC
:100880000BCAF9E4CA24F850037900222408601046
:10089000F8C3EC13FCEB13FBEA13FAE913F9D8F1F4
:1008A00022AA8274B2C0E07408C0E0C00AC00B8AF9
:1008B00082220511E4B51102051222AA8274302A9F
:1008C000FA24C6500A74072AFA3000034302208A29
:1008D000820208A1E582FAC4540FF582C002120810
:1008E000BBD002740F5AF5820208BBAA0CAB0DAC48
:1008F0000EAD0FAE10751720EE2EFEED235401FF46
:100900004206EA2AFAEB33FBEC33FCED33FDC3EE8F
:1009100095134008EEC39513FE430201D517D98AFB
:100920000C8B0D8C0E8D0F8E10227847E624D0751F
:10093000F00AA4FA7848E624D02AFA78468603BB5F
:100940002D04C3E49AFA751301C3E464808AF0634A
:10095000F08095F050297517038A0374F625174027
:100960001C0513E51714243BF8E517243BF987040D
:10097000A604772E1BEBFA6004051780DE8B02EAD3
:1009800030E70D783C8603783DA603783C762E0A46
:10099000E515600AE51504FB2513F5138005300BFA
:1009A000020513783B8603E4BB2D0104FB7006208F
:1009B00006033007020513300403020A713005579D
:1009C000EB600C75822DC0021208A1D002801C3091
:1009D000060C75822BC0021208A1D002800D3007D0
:1009E0000A758220C0021208A1D002783C8604BC9D
:1009F0002E0C758230C0021208A1D0021514AC145E
:100A00001514C3E5139C4003020AB5758230C00279
:100A10001208A1D00280E7AC141514C3E5139C5052
:100A20000C758220C0021208A1D00280EA783B86B1
:100A300004BC2D0C75822DC0021208A1D002801CAE
:100A400030060C75822BC0021208A1D002800D3036
:100A5000070A758220C0021208A1D002783C8604E1
:100A6000BC2E52758230C0021208A1D0021514802B
:100A700044EB600E75822DC0021208A1D00215143D
:100A8000802030060E75822BC0021208A1D00215FC
:100A900014800F30070C758220C0021208A1D0020A
:100AA0001514783C8603BB2E0C758230C0021208E8
:100AB000A1D0021514751701C20DE517243BF88665
:100AC00003BB4503020B72BB2E348A03C3E464806C
:100AD0008BF063F08095F0500F758230C0031208E0
:100AE000A1D0031B8B0280E48B02D20DE515703878
:100AF000200B03020B7275822E1208A18074300D38
:100B0000278A03EB30E71FC3E464808515F063F0A8
:100B10008095F0500C758230C0031208A1D00315E7
:100B2000150B8B0280DD8B02300D0EC3E4648085D3
:100B300015F063F08095F05021E517243BF886030B
:100B40008B82C0021208A1D002300D0EE517243BA3
:100B5000F88603BB2E02800215151514C3E46480C9
:100B60008515F063F08095F04003200D0505170210
:100B70000ABAC3E464808515F063F08095F0500AEA
:100B80007582301208A1151580E830040FAA1415DB
:100B900014EA60087582201208A180F122E5157020
:100BA00003300B0D74072515FAE514C39AF514806C
:100BB00006E51424FAF514751700783B8602BA2B63
:100BC0000F20060C783B76202007057517010514C9
:100BD000200419AA14C3E464808AF063F08095F0BD
:100BE000500A7582201208A1151480E7C20DE5177E
:100BF000243BF88602BA00028069BA451F30000221
:100C00007665C3E464808515F063F08095F0500A42
:100C10007582301208A1151580E8D20DC3E517942E
:100C200002E433FA7014EA700EC3E464808515F0B0
:100C300063F08095F04003300D16E517243BF886ED
:100C4000028A821208A1E51724FD50121515800EA4
:100C50007402B51709300B0675822E1208A105170C
:100C6000020BEE300419AA14C3E464808AF063F026
:100C70008095F0500A7582201208A1151480E72291
:100C800085820A85830BE4F511F512AA18AB19AC1D
:100C90001A8A828B838CF0121296FD74012AF51841
:100CA000E43BF5198C1AEDFA7003021226BA2502FC
:100CB000800302121EC204C205C206C207C208C2D5
:100CC00009C20AC20BC201C202C203751300751425
:100CD000007515FFAB18AC19AD1A8B828C838DF0A3
:100CE000121296FAA3AB82AC838B188C198D1ABAA8
:100CF00025078A821208A180928A06BE3000402E03
:100D00008A06EE24C6402774FFB51513E51475F066
:100D10000AA4FEEA24D02EF51470BFD20580BBE5EC
:100D20001575F00AA4FEEA24D02EF51580ACBA2E73
:100D30000A74FFB515A4751500809F8A06BE610070
:100D4000400E8A06EE248540075302DFD20080025F
:100D5000C200BA20028075BA2303020DDBBA2A034F
:100D6000020DE0BA2B02805FBA2D028055BA420212
:100D7000805FBA4303020E25BA4403020F60BA45EE
:100D800003020F7ABA4603020F76BA4703020F7EB8
:100D9000BA4903020F60BA4C02803BBA4E03020FFD
:100DA00082BA4F03020F67BA5003020EF9BA530317
:100DB000020E49BA5503020F6CBA5803020F7102B2
:100DC0000FACD204020CDAD206020CDAD207020C03
:100DD000DAD209020CDAD20A020CDAD20B020CDAED
:100DE00074FFB5152030090BE51B14F8881B861419
:100DF000020CDAE51B24FEF8881B86060886071815
:100E00008E14020CDA30090BE51B14F8881B8615CA
:100E1000020CDAE51B24FEF8881B860608860718F4
:100E20008E15020CDA30090AE51B14F8881B8602BD
:100E3000800FE51B24FEF8881B8603088604188BA8
:100E4000028A821208A1020FB1E51B24FDF8881B5B
:100E5000860308860408860518188B0C8C0D8D0EE9
:100E60008B828C838DF01213EAAB82AC838B167469
:100E7000FFB5150385161520041DC3E516951450FE
:100E800016E514C39516F514AB141514EB6008752C
:100E900082201208A180F1850C82850D83850EF0D9
:100EA000121296FBFA6029AB151515C3E464808B0A
:100EB000F063F08095F050188A821208A1AB0CAC58
:100EC0000DAD0E0BBB00010C8B0C8C0D8D0E80C775
:100ED000200403020FB1C3E51695144003020FB1BD
:100EE000E514C39516F514AB141514EB7003020F3B
:100EF000B17582201208A180EEE51B24FDF8881B45
:100F0000860308860408860518188B0C8C0D8D0E38
:100F1000E50EFB30E7047A438013EB546060047AFB
:100F200050800AEB30E6047A4980027A588A82C0FF
:100F3000021208A175823A1208A17582301208A126
:100F40007582781208A1D002BA4902800BBA500209
:100F50008006850D821208D4850C821208D4805137
:100F6000D20875130A804A751308804575130A80E4
:100F700040751310803BD2018037D2028033D203F8
:100F8000802FE51B24FDF8881B860308860408864D
:100F90000518188B0C8C0D8D0E8B828C838DF0E5D3
:100FA000111213D1A3E5121213D180058A821208FF
:100FB000A1200106200203300370E51B24FCF88801
:100FC0001B86030886040886050886061818188BF1
:100FD0000C8C0D8D0E8E0FE50CE50DE50EE50F8BDF
:100FE000828C838DF0EE1212B274FFB51503751565
:100FF00006300327747F550FFB8B10E510EB2BFB9E
:101000008B10E50E30E70674014510F510E510244D
:10101000684006749925104002D202300206120B75
:101020009D020C8B12092A020C8BE5137003020C33
:101030008B7B4030092BE51B14F8881BE6FC3395AD
:10104000E0FDFEFF8C0C8D0D8E0E8F0F20085EAC28
:101050000C7D007E007F008C0C8D0D8E0E8F0F801E
:101060004C300A1FE51B24FCF8881B860408860503
:101070000886060886071818188C0C8D0D8E0E8FA2
:101080000F802AE51B24FEF8881B860408860518B5
:10109000ED3395E0FEFF8C0C8D0D8E0E8F0F20082A
:1010A0000CAC0CAD0D7E007F008E0E8F0F300B430D
:1010B000E50C450D450E450F60397408B5130C75E8
:1010C0008230C0031208A1D00380287410B5132306
:1010D000758230C0031208A1D00330000C758278ED
:1010E000C0031208A1D003800A758258C0031208F9
:1010F000A1D003300825AC0CAD0DAE0EE50FFF30CE
:10110000E717C3E49CFCE49DFDE49EFEE49FFF8C96
:101110000C8D0D8E0E8F0F8002C208751600D20C3A
:101120008B00751000C0001208EBD000200C0DE5FC
:1011300010C4FCE6FD4CF61888038002A6100516C4
:10114000B20CE50C450D450E450F70D68803E5142D
:10115000700375140120051A200417E51604FCC35A
:101160009514500E758220C0031208A1D0031514E7
:1011700080E930080E75822DC0031208A1D0031536
:10118000148024E516602030060E75822BC00312F1
:1011900008A1D0031514800F30070C758220C003FE
:1011A0001208A1D003151420041EAC141514C3E5B5
:1011B000169C50273005047C3080027C208C82C035
:1011C000031208A1D00380E2C3E51695145009E587
:1011D00014C39516F51480037514008B00AB161517
:1011E00016EB6022B20C200C0A08E6C4540FFB8BED
:1011F0001080078603740F5BF510851082C0001203
:1012000008BBD00080D7200403020C8BAB1415144C
:10121000EB7003020C8B7582201208A180EE8A828B
:101220001208A1020C8B85118285128322AA82BA30
:101230000A0810990280FB75990D10990280FB8AAB
:101240009922FCABF0AA83A982749EF582C2D1ECEC
:1012500030E716D2D1E9F42401F9EAF43400FAEBCC
:10126000F43400FBECF43400FC1207E30207947F33
:101270009E12141230D1030207B5C3EF95825009B4
:1012800074FFF5F0F583F58222790012085E8982F9
:101290008A838BF0EC2220F71430F6148883A8821E
:1012A00020F507E6A88375830022E280F7E4932205
:1012B000E022C0E0F84582458345F07009F5F0FB77
:1012C000FCFDFE021380E823A2F792E0F8A982AAAF
:1012D00083D2F7ABF07C007E07C3749798404074CC
:1012E000FF2EFE740A89F0A4F985F082740A8AF050
:1012F000A4FA85F083740A8BF0A4FB740529F9EA3B
:101300003582FAEB3583FB740035F0FCC3EC13FC3B
:10131000EB13FBEA13FAE913F908EC70EF80BAE873
:10132000C3947FF88B838EF0E4FBFCFDFEFF08C3C3
:10133000E933F9EA33FAE58333F583EB3BD4FBEC8D
:101340003CD4FCED3DD4FDEE3ED4FEEF3FD4FF6037
:101350002D05F074052BD4FBE43CD4FCE43DD4FD16
:10136000E43ED4FEE43FD4FF758204C3EF13FFEEE6
:1013700013FEED13FDEC13FCEB13FBD582EDD8AFA0
:10138000783BD0E020E704762B8002762D087906A2
:10139000E7C4540F4430F608B90603762E08E75424
:1013A0000F4430F60819B902E7764508E5F020E762
:1013B00004762B8004762DF4040875F00A844430FA
:1013C000F608E5F04430F608E4F690003B75F0408E
:1013D0002220F71030F6118883A88220F507F6A89E
:1013E0008375830022F280F7F022AA82AB83ACF0EF
:1013F0007D007E008A828B838CF0121296FFA3AA56
:1014000082AB83EF60070DBD00EA0E80E78D828E10
:101410008322AA82AB83A2F73392D16002D2F7F57E
:1014200082ACF0220000000000000000000000007C
:00000001FF
