:1000000002000375814312010BE582600302006F59
:10001000780079007A007B007C007D00EC4D601C4C
:1000200088828983E493A3A882A9838A828B83F040
:10003000A3AA82AB831CBCFFE31D80E07582007520
:1000400083007C007D00EC4D600AE4F0A31CBCFF43
:10005000F51D80F27582007583007C007D00EC4DFB
:10006000600AE4F0A31CBCFFF51D80F212010A1225
:1000700002A480FE1B5B324A004144432074657336
:10008000742070726F6772616D0A46696C653A2000
:1000900025730A436F6D70696C65643A2025732C73
:1000A0002025730A0A00433A5C55736572735C71CC
:1000B000697579755C4F6E6544726976655C446FED
:1000C00063756D656E74735C4769744875625C4CEA
:1000D0004142355C597568616E5F59757169616E31
:1000E0005F6C6162352E63004D61722020342032D6
:1000F0003032340032303A35363A3136000D0A5457
:100100003D25372E3266206D73002275A700759746
:10011000DE7597AD75FF8075EF0675A71075C12068
:1001200075A70075A90075A900E5A930E7FB75A9B9
:100130000375A903E5A930E7FB43A41075E1017538
:10014000E20075E340759810858E8E758DE6858D7D
:100150008B53890F438920D28ED2997582002275E4
:10016000A700C2EF75B28075BC2075B91E75E80096
:1001700075DF3F75B300D2EF22AA82438E4075929D
:10018000B87593FF8592948593957591047B00C310
:10019000EB9A500BE59130E7FB53917F0B80F075A4
:1001A000910022AA82AB837C007D00C3EC9AED9B78
:1001B000502B7E00BE0400501D7582FAC002C003A1
:1001C000C004C005C006120179D006D005D004D005
:1001D00003D0020E80DE0CBC00D10D80CE225389EC
:1001E000F0438901C28C22AA828517F005F07401C0
:1001F000800225E0D5F0FBFB75A720BA0002800A3B
:10020000BA0102800FBA021E8014EBF4FA52F1EB2D
:1002100042D48012EBF4FA52F2EB42D58008EBF4B0
:10022000FA52F3EB42CC75A700228582BBC2EDD215
:10023000EC30EDFD85BD8285BE832212022A1204B8
:1002400087AA82AB83ACF0FDC002C003C004C00526
:1002500090333375F0537440120493AA82AB83AC8D
:10026000F0FDE58124FCF581E4C0E074FCC0E0749D
:100270007FC0E07446C0E08A828B838CF0ED12056B
:10028000DDAA82AB83ACF0FDE58124FCF5818A8296
:100290008B838CF0ED22C2EDD2EC30EDFD85BD827A
:1002A00085BE83221201DE9001F41201A37474C092
:1002B000E07400C0E07480C0E01205AF15811581C4
:1002C000158174F4C0E07400C0E07480C0E074E88C
:1002D000C0E07400C0E07480C0E074A6C0E07400A8
:1002E000C0E07480C0E07479C0E07400C0E0748045
:1002F000C0E01205AFE58124F4F58175170675821B
:10030000011201E77517077582011201E712015FFB
:1003100075820C12023BAA82AB83ACF0FD8A0A8B79
:100320000B8C0C8D0D75820D12023BAA82AB83AC37
:10033000F0FD8A0E8B0F8C108D11758A00758C0064
:10034000C28D7509002081FD3081FDD28C3081097C
:10035000108D0280F8050980F4208109108D02803B
:10036000F8050980F4C28C850982120536AA82AB91
:1003700083ACF0FDC002C003C004C005900000754E
:10038000F080744712049385821285831385F014DC
:10039000F515E58124FCF581858C82120536AE8247
:1003A000AF83AAF0FBC006C007C002C003900000E4
:1003B00075F0807443120493AA82AB83ACF0FDE520
:1003C0008124FCF581C002C003C004C005851282EF
:1003D0008513838514F0E515120541858212858306
:1003E0001385F014F515E58124FCF581AE8A7F00B4
:1003F0008E828F831205D0AE82AF83AAF0FBC00637
:10040000C007C002C0038512828513838514F0E5FE
:1004100015120541AA82AB83ACF0FDE58124FCF501
:1004200081C002C003C004C00590F4FC75F03274B2
:1004300034120493AA82AB83ACF0FDE58124FCF571
:1004400081C002C003C004C00590000075F07A743A
:1004500044120493AA82AB83ACF0FDE58124FCF541
:1004600081C002C003C004C00574FDC0E07400C0B8
:10047000E07480C0E01205AFE58124F9F5819000B9
:10048000011201A3020310E4AC83AB82FAF9748E6B
:10049000020705120791BC0003020730EF60FA3033
:1004A000D502B2D1E583B4FF03020746E582B4FF6B
:1004B00003020746258340072482400B02073024AD
:1004C00083145003020746F582EA8DF0A4A8F0EAEF
:1004D0008EF0A428F8E435F0F9EB8DF0A428E93586
:1004E000F0F9E433CA8FF0A429F9EA35F0FAEBF811
:1004F0008EF0A429F9EA35F0FAE433FBEC8DF0A490
:1005000029F9EA35F0FAE43BFBE88FF0A42AFAEB8C
:1005100035F0FBE433CCFD8EF0A42AFAEB35F0FB8A
:10052000E43CFCED8FF0A42BFBEC35F0FC20E70362
:1005300012075E02070FE4AC82FBFAF97486020729
:10054000051207917900E583B58202800D500312F0
:1005500007BFE583C395821207D9E5D0C465D020D3
:10056000E117EA2DFAEB3EFBEC3FFC500974011257
:1005700007D9EC4480FC02070FC3EA9DFAEB9EFB0F
:10058000EC9FFC500FC3E499F9E49AFAE49BFBE476
:100590009CFCB2D112075E02070F0211A8858230BF
:1005A00085833185F03285163390059A020BFBC0A6
:1005B00008858108E50824FBF533E50824FBF88667
:1005C0003008863108863290059A120BFBD008223B
:1005D000AC83AB827A007900748E0211C612079147
:1005E00030D502B2D1BF0009BC0003020753020795
:1005F00046BC0003020730E583B4FF0BE582B4FF7D
:1006000003020753020730E582B4FF03020746C323
:1006100095835007247F400B020730248014500339
:10062000020746C0E0E4CCCBCAF98D178E188F19AB
:10063000EF54F0C4F51A758306851AF0EB84F58241
:10064000E9C4F9EAC4FAEBC4FBEC540FC47803D64E
:10065000FC18EBD6FB18EAD6FA8582F0EDA4A8F0D8
:10066000FD8582F0EEA428FEE435F0F88582F0EFF7
:10067000A428FFE435F0F8E99DF9EA9EFAEB9FFB28
:10068000EC98FCAD17AE18AF1930E7101582E92DC4
:10069000F9EA3EFAEB3FFBE43CFC80EDC082D583F7
:1006A00098C3E933F9EA33FAEB33FBEC33FCC3E9E3
:1006B0009DEA9EEB9FEC9400B3E413F9D002D0E0E6
:1006C000C44AFAD003D0E0C44BFBD004D0E0F5F02C
:1006D000540FC44CFCD082158230F40FD3EC13FCC1
:1006E000EB13FBEA13FAE913F90582E930E70A7420
:1006F000012AFAE43BFBE43CFC020727FCABF0AA2E
:1007000083A982749EC2D1F58212075E02070FB9D7
:100710008003EA13B34010EA2401FAE43BFBE43C13
:10072000FC50047C800582BC000EBB000BBA0008A4
:10073000E4F5F0F583F58222A2D1E582138CF092E4
:10074000F78B838A8222E4F583F58275F080F4A228
:10075000D11322E4F583F58275F0C0747F2278040A
:10076000EC7011E58224F8500AF582E4C9CACBFC8A
:10077000D8EF22EC7820058220E713D5820122C32E
:10078000E933F9EA33FAEB33FBEC33FCD8EA1582B0
:1007900022AA82AB83A2F73392D16002D2F7F5820C
:1007A000ACF0E58124F9F8E6FD08E6FE0886F008DD
:1007B000E6A2F73392D56002D2F7F583AFF022E5D7
:1007C00082C583F582A2D133A2D592D11392D5EC02
:1007D000CFFCEBCEFBEACDFA226040F82582500236
:1007E00074FFF582E824F8501ECCCBCAF9E4CC247F
:1007F000F85014CBCAF9E4CB24F8500BCAF9E4CA78
:1008000024F8500379002224086010F8C3EC13FC8C
:10081000EB13FBEA13FAE913F9D8F122AA82742D3B
:10082000C0E07408C0E0C022C0238A82220529E407
:10083000B52902052A22AA8274302AFA24C6500A4F
:1008400074072AFA3000034302208A8202081CE55A
:1008500082FAC4540FF582C002120836D002740F17
:100860005AF582020836AA24AB25AC26AD27AE285D
:10087000752F20EE2EFEED235401FF4206EA2AFAE0
:10088000EB33FBEC33FCED33FDC3EE952B4008EE70
:10089000C3952BFE430201D52FD98A248B258C26A4
:1008A0008D278E28227840E624D075F00AA4FA78A5
:1008B00041E624D02AFA783F8603BB2D04C3E49A8C
:1008C000FA752B01C3E464808AF063F08095F050E0
:1008D00029752F038A0374F6252F401C052BE52F5D
:1008E000142434F8E52F2434F98704A604772E1B4A
:1008F000EBFA6004052F80DE8B02EA30E70D7835D5
:1009000086037836A6037835762E0AE52D600AE54B
:100910002D04FB252BF52B8005300B02052B78349D
:100920008603E4BB2D0104FB70062006033007029A
:10093000052B3004030209EC300557EB600C75827F
:100940002DC00212081CD002801C30060C75822BB0
:10095000C00212081CD002800D30070A758220C028
:100960000212081CD00278358604BC2E0C75823029
:10097000C00212081CD002152CAC2C152CC3E52B80
:100980009C4003020A30758230C00212081CD0025B
:1009900080E7AC2C152CC3E52B9C500C758220C035
:1009A0000212081CD00280EA78348604BC2D0C7533
:1009B000822DC00212081CD002801C30060C7582E9
:1009C0002BC00212081CD002800D30070A7582204D
:1009D000C00212081CD00278358604BC2E527582E3
:1009E00030C00212081CD002152C8044EB600E753A
:1009F000822DC00212081CD002152C802030060E59
:100A000075822BC00212081CD002152C800F3007F3
:100A10000C758220C00212081CD002152C78358675
:100A200003BB2E0C758230C00212081CD002152C9C
:100A3000752F01C20DE52F2434F88603BB45030250
:100A40000AEDBB2E348A03C3E464808BF063F0802C
:100A500095F0500F758230C00312081CD0031B8B19
:100A60000280E48B02D20DE52D7038200B03020AC0
:100A7000ED75822E12081C8074300D278A03EB302E
:100A8000E71FC3E46480852DF063F08095F0500C7F
:100A9000758230C00312081CD003152D0B8B028009
:100AA000DD8B02300D0EC3E46480852DF063F08091
:100AB00095F05021E52F2434F886038B82C0021272
:100AC000081CD002300D0EE52F2434F88603BB2E0F
:100AD000028002152D152CC3E46480852DF063F08F
:100AE0008095F04003200D05052F020A35C3E4640C
:100AF00080852DF063F08095F0500A7582301208E1
:100B00001C152D80E830040FAA2C152CEA600875FE
:100B1000822012081C80F122E52D7003300B0D7429
:100B200007252DFAE52CC39AF52C8006E52C24FA2E
:100B3000F52C752F0078348602BA2B0F20060C781E
:100B4000347620200705752F01052C200419AA2CC6
:100B5000C3E464808AF063F08095F0500A758220C7
:100B600012081C152C80E7C20DE52F2434F88602EC
:100B7000BA00028069BA451F3000027665C3E4649A
:100B800080852DF063F08095F0500A758230120850
:100B90001C152D80E8D20DC3E52F9402E433FA70C2
:100BA00014EA700EC3E46480852DF063F08095F044
:100BB0004003300D16E52F2434F886028A8212088D
:100BC0001CE52F24FD5012152D800E7402B52F093F
:100BD000300B0675822E12081C052F020B6930049B
:100BE00019AA2CC3E464808AF063F08095F0500A5F
:100BF00075822012081C152C80E7228582228583AD
:100C000023E4F529F52AAA30AB31AC328A828B83F2
:100C10008CF01211EAFD74012AF530E43BF5318CB9
:100C200032EDFA70030211A1BA2502800302119974
:100C3000C204C205C206C207C208C209C20AC20B68
:100C4000C201C202C203752B00752C00752DFFABCB
:100C500030AC31AD328B828C838DF01211EAFAA365
:100C6000AB82AC838B308C318D32BA25078A8212ED
:100C7000081C80928A06BE3000402E8A06EE24C6EA
:100C8000402774FFB52D13E52C75F00AA4FEEA2465
:100C9000D02EF52C70BFD20580BBE52D75F00AA4CF
:100CA000FEEA24D02EF52D80ACBA2E0A74FFB52DA5
:100CB000A4752D00809F8A06BE6100400E8A06EE54
:100CC000248540075302DFD2008002C200BA20020E
:100CD0008075BA2303020D56BA2A03020D5BBA2BA4
:100CE00002805FBA2D028055BA4202805FBA430388
:100CF000020DA0BA4403020EDBBA4503020EF5BA98
:100D00004603020EF1BA4703020EF9BA4903020E76
:100D1000DBBA4C02803BBA4E03020EFDBA4F03020F
:100D20000EE2BA5003020E74BA5303020DC4BA5550
:100D300003020EE7BA5803020EEC020F27D2040298
:100D40000C55D206020C55D207020C55D209020CE2
:100D500055D20A020C55D20B020C5574FFB52D204A
:100D600030090BE53314F88833862C020C55E53333
:100D700024FEF888338606088607188E2C020C5548
:100D800030090BE53314F88833862D020C55E53312
:100D900024FEF888338606088607188E2D020C5527
:100DA00030090AE53314F888338602800FE53324CE
:100DB000FEF888338603088604188B028A8212089C
:100DC0001C020F2CE53324FDF888338603088604C3
:100DD00008860518188B248C258D268B828C838D94
:100DE000F012133EAB82AC838B2E74FFB52D0385BE
:100DF0002E2D20041DC3E52E952C5016E52CC395F1
:100E00002EF52CAB2C152CEB600875822012081CDB
:100E100080F18524828525838526F01211EAFBFA6C
:100E20006029AB2D152DC3E464808BF063F08095B1
:100E3000F050188A8212081CAB24AC25AD260BBBDF
:100E400000010C8B248C258D2680C7200403020F03
:100E50002CC3E52E952C4003020F2CE52CC3952EB8
:100E6000F52CAB2C152CEB7003020F2C7582201285
:100E7000081C80EEE53324FDF888338603088604D9
:100E800008860518188B248C258D26E526FB30E76F
:100E9000047A438013EB546060047A50800AEB308C
:100EA000E6047A4980027A588A82C00212081C75C8
:100EB000823A12081C75823012081C75827812085A
:100EC0001CD002BA4902800BBA50028006852582E6
:100ED00012084F85248212084F8051D208752B0AC0
:100EE000804A752B088045752B0A8040752B108031
:100EF0003BD2018037D2028033D203802FE53324E6
:100F0000FDF88833860308860408860518188B24A4
:100F10008C258D268B828C838DF0E529121325A3D9
:100F2000E52A12132580058A8212081C200106205A
:100F30000203300370E53324FCF888338603088607
:100F4000040886050886061818188B248C258D261B
:100F50008E27E524E525E526E5278B828C838DF019
:100F6000EE12120674FFB52D03752D06300327749B
:100F70007F5527FB8B28E528EB2BFB8B28E52630BC
:100F8000E70674014528F528E52824684006749989
:100F900025284002D202300206120B18020C06125B
:100FA00008A5020C06E52B7003020C067B393009FC
:100FB0002BE53314F88833E6FC3395E0FDFEFF8C17
:100FC000248D258E268F2720085EAC247D007E0090
:100FD0007F008C248D258E268F27804C300A1FE5BC
:100FE0003324FCF8883386040886050886060886BC
:100FF000071818188C248D258E268F27802AE53314
:1010000024FEF88833860408860518ED3395E0FE43
:10101000FF8C248D258E268F2720080CAC24AD252F
:101020007E007F008E268F27300B43E52445254523
:1010300026452760397408B52B0C758230C0031221
:10104000081CD00380287410B52B23758230C00390
:1010500012081CD00330000C758278C00312081CE3
:10106000D003800A758258C00312081CD0033008D0
:1010700025AC24AD25AE26E527FF30E717C3E49C59
:10108000FCE49DFDE49EFEE49FFF8C248D258E26CE
:101090008F278002C208752E00D20C8B00752800A5
:1010A000C000120866D000200C0DE528C4FCE6FD47
:1010B0004CF61888038002A628052EB20CE52445BC
:1010C000254526452770D68803E52C7003752C012D
:1010D00020051A200417E52E04FCC3952C500E752C
:1010E0008220C00312081CD003152C80E930080EA2
:1010F00075822DC00312081CD003152C8024E52E08
:10110000602030060E75822BC00312081CD0031518
:101110002C800F30070C758220C00312081CD003EE
:10112000152C20041EAC2C152CC3E52E9C5027300A
:1011300005047C3080027C208C82C00312081CD005
:101140000380E2C3E52E952C5009E52CC3952EF5BE
:101150002C8003752C008B00AB2E152EEB6022B279
:101160000C200C0A08E6C4540FFB8B28800786036A
:10117000740F5BF528852882C000120836D00080E5
:10118000D7200403020C06AB2C152CEB7003020CC9
:101190000675822012081C80EE8A8212081C020C3E
:1011A00006852982852A8322AA82BA0A0810990212
:1011B00080FB75990D10990280FB8A9922FCABF097
:1011C000AA83A982749EF582C2D1EC30E716D2D1EF
:1011D000E9F42401F9EAF43400FAEBF43400FBEC0E
:1011E000F43400FC12075E02070F20F71430F614E7
:1011F0008883A88220F507E6A88375830022E28011
:10120000F7E49322E022C0E0F84582458345F07080
:1012100009F5F0FBFCFDFE0212D4E823A2F792E0F0
:10122000F8A982AA83D2F7ABF07C007E07C374973B
:1012300098404074FF2EFE740A89F0A4F985F0826C
:10124000740A8AF0A4FA85F083740A8BF0A4FB7404
:101250000529F9EA3582FAEB3583FB740035F0FC99
:10126000C3EC13FCEB13FBEA13FAE913F908EC7077
:10127000EF80BAE8C3947FF88B838EF0E4FBFCFD2B
:10128000FEFF08C3E933F9EA33FAE58333F583EB6C
:101290003BD4FBEC3CD4FCED3DD4FDEE3ED4FEEF64
:1012A0003FD4FF602D05F074052BD4FBE43CD4FC47
:1012B000E43DD4FDE43ED4FEE43FD4FF758204C394
:1012C000EF13FFEE13FEED13FDEC13FCEB13FBD558
:1012D00082EDD8AF7834D0E020E704762B80027618
:1012E0002D087906E7C4540F4430F608B906037692
:1012F0002E08E7540F4430F60819B902E77645087E
:10130000E5F020E704762B8004762DF4040875F0D0
:101310000A844430F608E5F04430F608E4F690001C
:101320003475F0402220F71030F6118883A882200F
:10133000F507F6A88375830022F280F7F022AA82CF
:10134000AB83ACF07D007E008A828B838CF012111F
:10135000EAFFA3AA82AB83EF60070DBD00EA0E800F
:10136000E78D828E83220000000000000000000054
:00000001FF
