:1000000002000375814312013AE582600302006F2A
:10001000780079007A007B007C007D00EC4D601C4C
:1000200088828983E493A3A882A9838A828B83F040
:10003000A3AA82AB831CBCFFE31D80E07582007520
:1000400083007C007D00EC4D600AE4F0A31CBCFF43
:10005000F51D80F27582007583007C007D00EC4DFB
:10006000600AE4F0A31CBCFFF51D80F212013912F6
:1000700002B980FE1B5B324A004144432074657321
:10008000742070726F6772616D0A46696C653A2000
:1000900025730A436F6D70696C65643A2025732C73
:1000A0002025730A0A00433A5C55736572735C71CC
:1000B000697579755C4F6E6544726976655C446FED
:1000C00063756D656E74735C4769744875625C4CEA
:1000D0004142355C597568616E5F59757169616E31
:1000E0005F6C6162352E63004D61722020342032D6
:1000F0003032340031373A32333A353000564050DE
:10010000322E323D25372E3566562C205640503241
:100110002E333D25372E3566562C20564050322E34
:10012000343D25372E3566562C20564050322E351C
:100130003D25372E3566560D002275A7007597DED2
:100140007597AD75FF8075EF0675A71075C12075A1
:10015000A70075A90075A900E5A930E7FB75A903FB
:1001600075A903E5A930E7FB43A41075E10175E229
:100170000075E340759810758DE6858D8B53890F5A
:10018000438920D28ED2997582002275A700C2EFD2
:1001900075B28075BC2075B91E75E80075DF3F75B6
:1001A000B300D2EF22AA82438E407592B87593FFB6
:1001B0008592948593957591047B00C3EB9A500BBF
:1001C000E59130E7FB53917F0B80F075910022AAF7
:1001D00082AB837C007D00C3EC9AED9B502B7E00AC
:1001E000BE0400501D7582FAC002C003C004C005E1
:1001F000C0061201A5D006D005D004D003D0020E4F
:1002000080DE0CBC00D10D80CE22AA82851AF005BA
:10021000F07401800225E0D5F0FBFB75A720BA0041
:1002200002800ABA0102800FBA021E8014EBF4FAAF
:1002300052F1EB42D48012EBF4FA52F2EB42D58049
:1002400008EBF4FA52F3EB42CC75A700228582BB8F
:10025000C2EDD2EC30EDFD85BD8285BE8322120257
:100260004D1203C6AA82AB83ACF0FDC002C003C02E
:1002700004C005906C8B75F05374401203D2AA82AF
:10028000AB83ACF0FDE58124FCF581E4C0E074FCB7
:10029000C0E0747FC0E07446C0E08A828B838CF03B
:1002A000ED1204ABAA82AB83ACF0FDE58124FCF532
:1002B000818A828B838CF0ED229001F41201CF743D
:1002C00074C0E07400C0E07480C0E012048A15813C
:1002D0001581158174F4C0E07400C0E07480C0E042
:1002E00074E8C0E07400C0E07480C0E074A6C0E0B0
:1002F0007400C0E07480C0E07479C0E07400C0E0B5
:100300007480C0E012048AE58124F4F581751A0234
:1003100075820212020A751A0375820212020A75A8
:100320001A0475820212020A751A057582021202F7
:100330000A12018B75820F12025EAA82AB83ACF0A7
:10034000FD8A098B0A8C0B8D0C75821012025EAA35
:1003500082AB83ACF0FD8A0D8B0E8C0F8D107582F5
:100360001112025EAA82AB83ACF0FD8A118B128C53
:10037000138D1475821212025EAA82AB83ACF0FD5B
:100380008A158B168C178D18C002C003C004C005D7
:10039000C011C012C013C014C00DC00EC00FC010D9
:1003A000C009C00AC00BC00C74FDC0E07400C0E0FE
:1003B0007480C0E012048AE58124EDF5819001F497
:1003C0001201CF020334E4AC83AB82FAF9748E02DB
:1003D00005D312065FBC00030205FEEF60FA30D5BC
:1003E00002B2D1E583B4FF03020614E582B4FF0331
:1003F000020614258340072482400B0205FE248355
:10040000145003020614F582EA8DF0A4A8F0EA8ED7
:10041000F0A428F8E435F0F9EB8DF0A428E935F0E4
:10042000F9E433CA8FF0A429F9EA35F0FAEBF88E33
:10043000F0A429F9EA35F0FAE433FBEC8DF0A429B5
:10044000F9EA35F0FAE43BFBE88FF0A42AFAEB3541
:10045000F0FBE433CCFD8EF0A42AFAEB35F0FBE49C
:100460003CFCED8FF0A42BFBEC35F0FC20E70312F5
:10047000062C0205DD02101985823085833185F056
:1004800032851933900475020A6CC008858108E52D
:100490000824FBF533E50824FBF88630088631088C
:1004A0008632900475120A6CD0082212065F30D58D
:1004B00002B2D1BF0009BC0003020621020614BC2F
:1004C00000030205FEE583B4FF0BE582B4FF0302DF
:1004D00006210205FEE582B4FF03020614C39583DC
:1004E0005007247F400B0205FE24801450030206AF
:1004F00014C0E0E4CCCBCAF98D1A8E1B8F1CEF54CC
:10050000F0C4F51D758306851DF0EB84F582E9C402
:10051000F9EAC4FAEBC4FBEC540FC47803D6FC1818
:10052000EBD6FB18EAD6FA8582F0EDA4A8F0FD859B
:1005300082F0EEA428FEE435F0F88582F0EFA428DE
:10054000FFE435F0F8E99DF9EA9EFAEB9FFBEC98A1
:10055000FCAD1AAE1BAF1C30E7101582E92DF9EA8D
:100560003EFAEB3FFBE43CFC80EDC082D58398C3B0
:10057000E933F9EA33FAEB33FBEC33FCC3E99DEAE8
:100580009EEB9FEC9400B3E413F9D002D0E0C44A90
:10059000FAD003D0E0C44BFBD004D0E0F5F0540F08
:1005A000C44CFCD082158230F40FD3EC13FCEB1357
:1005B000FBEA13FAE913F90582E930E70A74012A24
:1005C000FAE43BFBE43CFC0205F5FCABF0AA83A992
:1005D00082749EC2D1F58212062C0205DDB9800319
:1005E000EA13B34010EA2401FAE43BFBE43CFC507C
:1005F000047C800582BC000EBB000BBA0008E4F549
:10060000F0F583F58222A2D1E582138CF092F78B6C
:10061000838A8222E4F583F58275F080F4A2D113F7
:1006200022E4F583F58275F0C0747F227804EC70C3
:1006300011E58224F8500AF582E4C9CACBFCD8EF50
:1006400022EC7820058220E713D5820122C3E9330A
:10065000F9EA33FAEB33FBEC33FCD8EA158222AA31
:1006600082AB83A2F73392D16002D2F7F582ACF06D
:10067000E58124F9F8E6FD08E6FE0886F008E6A222
:10068000F73392D56002D2F7F583AFF022AA8274D5
:100690009EC0E07406C0E0C022C0238A82220529E1
:1006A000E4B52902052A22AA8274302AFA24C65007
:1006B0000A74072AFA3000034302208A8202068D58
:1006C000E582FAC4540FF582C0021206A7D0027464
:1006D0000F5AF5820206A7AA24AB25AC26AD27AE99
:1006E00028752F20EE2EFEED235401FF4206EA2A44
:1006F000FAEB33FBEC33FCED33FDC3EE952B4008F6
:10070000EEC3952BFE430201D52FD98A248B258C6D
:10071000268D278E28227840E624D075F00AA4FA88
:100720007841E624D02AFA783F8603BB2D04C3E43F
:100730009AFA752B01C3E464808AF063F08095F027
:100740005029752F038A0374F6252F401C052BE5CD
:100750002F142434F8E52F2434F98704A604772EC7
:100760001BEBFA6004052F80DE8B02EA30E70D7880
:100770003586037836A6037835762E0AE52D600A8D
:10078000E52D04FB252BF52B8005300B02052B787E
:10079000348603E4BB2D0104FB70062006033007FA
:1007A00002052B30040302085D300557EB600C7521
:1007B000822DC00212068DD002801C30060C75827C
:1007C0002BC00212068DD002800D30070A758220E0
:1007D000C00212068DD00278358604BC2E0C7582BC
:1007E00030C00212068DD002152CAC2C152CC3E59E
:1007F0002B9C40030208A1758230C00212068DD0E6
:100800000280E7AC2C152CC3E52B9C500C75822084
:10081000C00212068DD00280EA78348604BC2D0C0A
:1008200075822DC00212068DD002801C30060C7518
:10083000822BC00212068DD002800D30070A75820D
:1008400020C00212068DD00278358604BC2E527567
:100850008230C00212068DD002152C8044EB600E4F
:1008600075822DC00212068DD002152C8020300614
:100870000E75822BC00212068DD002152C800F300F
:10088000070C758220C00212068DD002152C783517
:100890008603BB2E0C758230C00212068DD0021565
:1008A0002C752F01C20DE52F2434F88603BB4503B8
:1008B00002095EBB2E348A03C3E464808BF063F0CC
:1008C0008095F0500F758230C00312068DD0031B47
:1008D0008B0280E48B02D20DE52D7038200B0302D1
:1008E000095E75822E12068D8074300D278A03EB07
:1008F00030E71FC3E46480852DF063F08095F050ED
:100900000C758230C00312068DD003152D0B8B029F
:1009100080DD8B02300D0EC3E46480852DF063F022
:100920008095F05021E52F2434F886038B82C00295
:1009300012068DD002300D0EE52F2434F88603BB4D
:100940002E028002152D152CC3E46480852DF063E2
:10095000F08095F04003200D05052F0208A6C3E4A2
:100960006480852DF063F08095F0500A7582301216
:10097000068D152D80E830040FAA2C152CEA60088E
:1009800075822012068D80F122E52D7003300B0D4B
:100990007407252DFAE52CC39AF52C8006E52C2446
:1009A000FAF52C752F0078348602BA2B0F20060C2E
:1009B00078347620200705752F01052C200419AA0C
:1009C0002CC3E464808AF063F08095F0500A75824D
:1009D0002012068D152C80E7C20DE52F2434F886F1
:1009E00002BA00028069BA451F3000027665C3E48E
:1009F0006480852DF063F08095F0500A7582301286
:100A0000068D152D80E8D20DC3E52F9402E433FA4C
:100A10007014EA700EC3E46480852DF063F0809555
:100A2000F04003300D16E52F2434F886028A821236
:100A3000068DE52F24FD5012152D800E7402B52F62
:100A400009300B0675822E12068D052F0209DA3049
:100A50000419AA2CC3E464808AF063F08095F050F6
:100A60000A75822012068D152C80E7228582228548
:100A70008323E4F529F52AAA30AB31AC328A828B84
:100A8000838CF012102EFD74012AF530E43BF53111
:100A90008C32EDFA7003021012BA250280030210A4
:100AA0000AC204C205C206C207C208C209C20AC2FB
:100AB0000BC201C202C203752B00752C00752DFFFD
:100AC000AB30AC31AD328B828C838DF012102EFAAC
:100AD000A3AB82AC838B308C318D32BA25078A82EE
:100AE00012068D80928A06BE3000402E8A06EE24C1
:100AF000C6402774FFB52D13E52C75F00AA4FEEA55
:100B000024D02EF52C70BFD20580BBE52D75F00AE0
:100B1000A4FEEA24D02EF52D80ACBA2E0A74FFB5BF
:100B20002DA4752D00809F8A06BE6100400E8A06A6
:100B3000EE248540075302DFD2008002C200BA20B3
:100B4000028075BA2303020BC7BA2A03020BCCBA80
:100B50002B02805FBA2D028055BA4202805FBA43F1
:100B600003020C11BA4403020D4CBA4503020D6690
:100B7000BA4603020D62BA4703020D6ABA4903027C
:100B80000D4CBA4C02803BBA4E03020D6EBA4F03B5
:100B9000020D53BA5003020CE5BA5303020C35BAE6
:100BA0005503020D58BA5803020D5D020D98D20488
:100BB000020AC6D206020AC6D207020AC6D2090231
:100BC0000AC6D20A020AC6D20B020AC674FFB52DA3
:100BD0002030090BE53314F88833862C020AC6E569
:100BE0003324FEF888338606088607188E2C020AFE
:100BF000C630090BE53314F88833862D020AC6E5A2
:100C00003324FEF888338606088607188E2D020ADC
:100C1000C630090AE53314F888338602800FE533BD
:100C200024FEF888338603088604188B028A821211
:100C3000068D020D9DE53324FDF888338603088672
:100C40000408860518188B248C258D268B828C83AE
:100C50008DF0121182AB82AC838B2E74FFB52D0305
:100C6000852E2D20041DC3E52E952C5016E52CC392
:100C7000952EF52CAB2C152CEB60087582201206F6
:100C80008D80F18524828525838526F012102EFB28
:100C9000FA6029AB2D152DC3E464808BF063F080DE
:100CA00095F050188A8212068DAB24AC25AD260B28
:100CB000BB00010C8B248C258D2680C720040302E9
:100CC0000D9DC3E52E952C4003020D9DE52CC3958B
:100CD0002EF52CAB2C152CEB7003020D9D7582208C
:100CE00012068D80EEE53324FDF8883386030886EE
:100CF0000408860518188B248C258D26E526FB30E4
:100D0000E7047A438013EB546060047A50800AEB66
:100D100030E6047A4980027A588A82C00212068D2F
:100D200075823A12068D75823012068D75827812A0
:100D3000068DD002BA4902800BBA50028006852582
:100D4000821206C08524821206C08051D208752BFB
:100D50000A804A752B088045752B0A8040752B1038
:100D6000803BD2018037D2028033D203802FE5331B
:100D700024FDF88833860308860408860518188B36
:100D8000248C258D268B828C838DF0E529121169A8
:100D9000A3E52A12116980058A8212068D200106B8
:100DA000200203300370E53324FCF88833860308FF
:100DB00086040886050886061818188B248C258D4D
:100DC000268E27E524E525E526E5278B828C838D75
:100DD000F0EE12104A74FFB52D03752D063003276F
:100DE000747F5527FB8B28E528EB2BFB8B28E5260A
:100DF00030E70674014528F528E528246840067484
:100E00009925284002D202300206120989020A7787
:100E1000120716020A77E52B7003020A777B393036
:100E2000092BE53314F88833E6FC3395E0FDFEFF2B
:100E30008C248D258E268F2720085EAC247D007E95
:100E4000007F008C248D258E268F27804C300A1F32
:100E5000E53324FCF88833860408860508860608EE
:100E600086071818188C248D258E268F27802AE552
:100E70003324FEF88833860408860518ED3395E0A0
:100E8000FEFF8C248D258E268F2720080CAC24ADE8
:100E9000257E007F008E268F27300B43E5244525D5
:100EA0004526452760397408B52B0C758230C00380
:100EB00012068DD00380287410B52B23758230C0A4
:100EC0000312068DD00330000C758278C003120621
:100ED0008DD003800A758258C00312068DD003306E
:100EE0000825AC24AD25AE26E527FF30E717C3E47F
:100EF0009CFCE49DFDE49EFEE49FFF8C248D258EEA
:100F0000268F278002C208752E00D20C8B00752810
:100F100000C0001206D7D000200C0DE528C4FCE666
:100F2000FD4CF61888038002A628052EB20CE52495
:100F300045254526452770D68803E52C7003752C7A
:100F40000120051A200417E52E04FCC3952C500E31
:100F5000758220C00312068DD003152C80E930085D
:100F60000E75822DC00312068DD003152C8024E54A
:100F70002E602030060E75822BC00312068DD00322
:100F8000152C800F30070C758220C00312068DD0FF
:100F900003152C20041EAC2C152CC3E52E9C5027C9
:100FA0003005047C3080027C208C82C00312068DC8
:100FB000D00380E2C3E52E952C5009E52CC3952E75
:100FC000F52C8003752C008B00AB2E152EEB6022C8
:100FD000B20C200C0A08E6C4540FFB8B288007864D
:100FE00003740F5BF528852882C0001206A7D00085
:100FF00080D7200403020A77AB2C152CEB70030278
:101000000A7775822012068D80EE8A8212068D0282
:101010000A77852982852A8322AA82BA0A0810992A
:101020000280FB75990D10990280FB8A992220F7A6
:101030001430F6148883A88220F507E6A883758308
:101040000022E280F7E49322E022C0E0F8458245E6
:101050008345F07009F5F0FBFCFDFE021118E82352
:10106000A2F792E0F8A982AA83D2F7ABF07C007EC7
:1010700007C3749798404074FF2EFE740A89F0A449
:10108000F985F082740A8AF0A4FA85F083740A8BD9
:10109000F0A4FB740529F9EA3582FAEB3583FB7479
:1010A0000035F0FCC3EC13FCEB13FBEA13FAE91375
:1010B000F908EC70EF80BAE8C3947FF88B838EF068
:1010C000E4FBFCFDFEFF08C3E933F9EA33FAE583EC
:1010D00033F583EB3BD4FBEC3CD4FCED3DD4FDEE8F
:1010E0003ED4FEEF3FD4FF602D05F074052BD4FBFA
:1010F000E43CD4FCE43DD4FDE43ED4FEE43FD4FF24
:10110000758204C3EF13FFEE13FEED13FDEC13FC29
:10111000EB13FBD582EDD8AF7834D0E020E704762E
:101120002B8002762D087906E7C4540F4430F60868
:10113000B90603762E08E7540F4430F60819B902B1
:10114000E7764508E5F020E704762B8004762DF459
:10115000040875F00A844430F608E5F04430F608D7
:10116000E4F690003475F0402220F71030F6118834
:1011700083A88220F507F6A88375830022F280F702
:10118000F022AA82AB83ACF07D007E008A828B8342
:101190008CF012102EFFA3AA82AB83EF60070DBD67
:1011A00000EA0E80E78D828E83220000000000009E
:00000001FF
